:020000040800F2
:10000000401C0020F10100089B420008633D0008ED
:1000100099420008010900081B4E0008000000007A
:10002000000000000000000000000000F142000895
:10003000E7090008000000009D420008F3420008A4
:100040000B0200080B0200080B0200080B0200085C
:100050000B0200080B0200080B0200080B0200084C
:100060000B0200080B0200080B0200081D09000823
:10007000290900080B0200080B0200080B02000807
:100080000B02000800000000790700080B020008BE
:100090000B020008ED090008F90900080B0200082E
:1000A0000B0200080B0200080B0200080B020008FC
:1000B0000B0200080B0200080B0200080B020008EC
:1000C0000B0200080B0200080B0200080B020008DC
:1000D0000B020008ED4D00080B0200080B0200089F
:1000E0000B0200080B0200080B0200080B020008BC
:1000F0000B0200080B0200080B02000800000000C1
:10010000000000000B020008000000000B020008C5
:100110000B02000800000000754300080B020008F5
:100120000B0200080B0200080B0200080B0200087B
:100130000B02000800000000000000000B02000895
:100140000B0200080B020008000000000000000085
:10015000000000000000000000000000000000009F
:100160000000000000000000000000000B0200087A
:100170000B0200080000000000000000000000006A
:10018000000000000B02000800000000000000005A
:10019000000000000000000000000000000000005F
:1001A00000000000000000000B0200080B02000825
:1001B0000B0200080B0200080B0200080000000000
:1001C000000000000B02000800000000000000001A
:1001D0000B0200080B020008DFF810D000F04AFA0A
:1001E0000048004731570008AFF30080401C002052
:1001F0000648804706480047FEE7FEE7FEE7FEE7C1
:10020000FEE7FEE7FEE7FEE7FEE7FEE765430008E0
:10021000D90100082DE9F05F0546002092469B4673
:1002200088460646814640241BE02846414647460C
:10023000224600F057F853465A46C01A914110D34F
:1002400011461846224600F03EF82D1A67EB0108C9
:100250004F4622460120002100F035F817EB000937
:100260004E41201EA4F10104DFDC484631462A46F7
:100270004346BDE8F09FD2B201E000F8012B491ED1
:10028000FBD270470022F6E710B513460A46044633
:100290001946FFF7F0FF204610BD30B50B4601466A
:1002A00000202022012409E021FA02F59D4205D315
:1002B00003FA02F5491B04FA02F52844151EA2F1BF
:1002C0000102F1DC30BD202A04DB203A00FA02F101
:1002D000002070479140C2F1200320FA03F3194334
:1002E00090407047202A04DB203A21FA02F00021D6
:1002F000704721FA02F3D040C2F120029140084336
:10030000194670472DE9FE4F804681EA0300C00F71
:100310000C46009021F0004123F00045B8EB0200AC
:10032000A94105D24046214690461C460B4602464E
:1003300023F00040104347D0270DC7F30A00C3F352
:100340000A510290401A019040286BDAC3F313005F
:1003500040F4801B0098924620B10023D2EB030AA0
:1003600063EB0B0B01985946C0F140025046FFF772
:10037000AAFF06460D4650465946019A00F08CF9F0
:1003800010EB08006141002487EA115284EAE77308
:100390001A4340D0009A62B3019A012A4FEA0752E9
:1003A00015DC001B61EB02014FF0004202EA07522C
:1003B000CDE90042001C41F5801132462B4600F089
:1003C0008CF903B0BDE8F08F40462146F9E7001BE9
:1003D00061EB0201001C41F5801300185B412018FD
:1003E000A2F5001747EB030140EAD570B6196D413D
:1003F00011E06D084FEA360645EAC0754FEA07522C
:10040000001B61EB0201001C41F5801149084FEA15
:1004100030000019514132462B4603B0BDE8F04F81
:1004200000F04CB90098012240000023D0EB0202FA
:1004300063EBE073009821464FEAE074B8EB0000EC
:1004400061EB0401E9E783F000435BE781F00041E1
:1004500058E72DE9FE4F81EA030404F0004421F03F
:10046000004100944FF0000B23F0004350EA0104D8
:100470005ED052EA03045BD0C3F30A54C1F30A55B9
:100480002C44A4F2F3340194A0FB0254C1F31301F1
:1004900041F48011C3F3130343F4801301FB0244BE
:1004A00000FB034E840A970A44EA815447EA8357C3
:1004B000A4FB076802958D0A05FB07854FEA932C7C
:1004C00004FB0C542705029D4FEA065847EA1637ED
:1004D000B5EB08056EEB070C870E920E47EA811705
:1004E00042EA8312A7FB0201B6EB0B0164EB0004A6
:1004F0002B0D43EA0C335E1844EB1C50DA46514690
:10050000E7FB0201C5F313044FEA0B3343EA14532C
:100510004FEA0432019C43EA0603A4F10C0402945E
:10052000009CCDE900B400F0D8F803B0BDE8F08F2E
:1005300000200146F9E72DE9F04D81EA030404F0BB
:10054000004B21F0004514464FF0000A23F0004113
:1005500050EA050220D054EA01021DD0C5F30A5723
:100560000246C5F31303C1F31300C1F30A5640F466
:10057000801543F48013A7EB0608101BD64608F23B
:10058000FD3873EB050002D308F1010801E0921871
:100590005B41B8F1000F03DA00200146BDE8F08DA1
:1005A00000204FF48011064684460EE0171B73EBC3
:1005B000050705D3121B63EB050306434CEA010C48
:1005C00049084FEA300092185B4150EA0107EDD12B
:1005D00052EA030012D082EA040083EA05010843CC
:1005E00005D0101BAB4106D20122002306E00022F9
:1005F0004FF0004302E06FF0010253101AEB0600C7
:100600004CEB085110EB0A0041EB0B01BDE8F04D3B
:1006100000F054B8C1F30A52C1F3130140F2FF33A2
:1006200041F480119A4202DA00200146704740F2FC
:1006300033439A42A2F2334202DC5242FFF752BEE7
:10064000FFF741BE30B5041E71F1000404DB4FF02A
:100650000044404264EB0101141E73F1000405DB09
:100660001C464FF00043524263EB0403994208BF1B
:10067000904230BD064C074D06E0E06840F00103B3
:1006800094E8070098471034AC42F6D3FFF7A8FD72
:10069000705C0008905C0008202A06DBCB17203A2B
:1006A00041FA02F043EAE07306E041FA02F3D04077
:1006B000C2F12002914008431946704710B5141E3C
:1006C00073F1000408DA401C41F1000192185B410B
:1006D0001A4301D120F0010010BD2DE9F04D9246E2
:1006E0009B4611B1B1FA81F202E0B0FA80F22032F9
:1006F0009046FFF7E8FD04460F4640EA0A0041EA4B
:100700000B0153465A46084313D0114653EA0100E1
:1007100019D0C8F140025046FFF7E4FD05460E46E9
:10072000504659464246FFF7CEFD084305D001200A
:1007300004E020463946BDE8F08D0020054346EA36
:10074000E0762C4337430A986305E40AA0EB0800DF
:100750000022FD0A44EA47540A3002D5002001462F
:10076000E9E7010510196941DDE90845001969410A
:10077000BDE8F04DA2E7000010B5044800F0E2FD2E
:10078000BDE81040024800F0DDBD00005000002030
:10079000BC00002070B5044620688168C1F34005A4
:1007A00003F0EEFA78B375BB2068816801F00D01A3
:1007B000012909D0E06D40F01000E065206E40F0A6
:1007C00001002066012070BD8168124A1140891C19
:1007D000816021680320086001F0F6FD054613E002
:1007E00001F0F2FD401B02280ED920688068C00786
:1007F0000AD0E06D40F01000E065206E40F001008E
:100800002066012070BD03E020688068C007E7D142
:100810000020F7E7C0FFFF7FF8B5044600200090F6
:10082000206803F0ADFA78BB20688168284A11423D
:1008300009D0E06D40F01000E065206E40F001004E
:1008400020660120F8BD8168214E7F3E3140491C61
:1008500081602048806800F0E070000210D51E48DA
:100860001E490068B0FBF1F0401C00EB4000800026
:10087000009002E00098401E009000980028F9D1F6
:1008800001F0A2FD05461CE020E003F079FA20B952
:10089000206881683140491C816001F095FD401B52
:1008A00002280ED920680068C043C00709D0E06D57
:1008B00040F01000E065206E40F00100206601204D
:1008C000F8BD20680168C943C907DED10020F8BD22
:1008D0003F0000800003005010000020400D030086
:1008E0004FF4FA71C181054982880B681A440A6085
:1008F000C0884A68104448600020704738000020D3
:10090000FEE78188C289B1FBF2F10181C388B3FBA4
:10091000F2F242811144494281817047014801F05D
:100920004EB80000B0030020014801F048B80000B4
:100930001004002010B502680E4CD1B214230839FF
:10094000A24203D20C4AB1FBF3F104E00A4A20327E
:10095000B1FBF3F1891D436C23F003031A44826455
:10096000054A8032C26401F01F02012191400165F5
:1009700010BD00000804024000080240017901F0A7
:100980007F01074A491E02EB81024265044A403258
:10099000826501F01F0201219140C165704700008E
:1009A0000009024030B5D0E913546C60446D002C4E
:1009B00002D0D0E916546C6090F8444004F01F0552
:1009C0000124AC40056C6C60046863608368102B84
:1009D00004D0036899600068C26030BD03689A6003
:1009E0000068C16030BD704772B6FEE7014801F093
:1009F000D0B9000028010020014801F0CAB9000068
:100A00002801002010B515490164036853F8802FB0
:100A1000848E22F4F81242EA04421A600F4A7032BD
:100A20004264036853F8802F90F8384022F07062D7
:100A300042EA04621A60094AB0328264084AC26417
:100A4000074AD8320265064AF0324265002001F5B5
:100A5000547200E001C19142FCD310BD00A40040DB
:100A600088A50040F0B5D1E901650C692C430D68FB
:100A7000002E19D045F080452C43D1E90665354359
:100A800091F820704E6946EA076635438E8945EA3B
:100A90000645406D03EBC30300EBC3031C605D60C0
:100AA000083300200B4E0FE044EA8544E5E71418B4
:100AB000155CE77845EA0765A77864783F0447EA5C
:100AC0000424254320C3001DCC68345D8442EED845
:100AD000F0BD0000205C0008F8B504460E46002575
:100AE000009594F85800012810D0012084F858008F
:100AF0002046FFF74FFE0346180009D0E06D40F096
:100B00001000E06584F858501846F8BD0220F8BD82
:100B1000E06D20F4885040F00200E06520688168B4
:100B2000124A114006F08042114341F000418160B9
:100B30000F4920680FE0009A521C0092009A8A42E6
:100B400009D3E06D20F0020040F01000E06584F869
:100B500058500120F8BD8268D20F002AEBD1E06D19
:100B600020F0020040F00100E065CBE7C0FFFF3F4E
:100B700002DE0400704700002DE9F84F04460D46E0
:100B800000270026009600206169DFF8009494F8A1
:100B90005820012A0BD04FF0010884F85880FC4AF5
:100BA00041B1296A012905D0A36EEBB12AE00220E8
:100BB000BDE8F88F6868092838D1A86A48B1296863
:100BC00000F07C0001F0F84140EA5140E96A084336
:100BD00003E0286800F0F840400C2168CB6C13401B
:100BE0000343CB64606621E0A1666666A96A39B1F9
:100BF000286A01F07C01401E0843E96A084301E0CD
:100C0000286A401E2968C1F38463297901F01F0115
:100C10008B400343A06E401EA066616E194361665F
:100C200020B92068C36C13400B43C364206803F0F1
:100C3000A3F858B995F8250098B12068C16895F8CF
:100C4000262021F4401141EA4251C160206803F09E
:100C5000A3F88246206803F08FF85AEA000A0ED003
:100C600002E195F8260095F82410400540EA01516C
:100C70002068C26822F440121143C160E6E7A86A06
:100C8000E8B3E86AD8B395F82500012868D0206851
:100C9000C16821F00071C16095F83000012865D06D
:100CA0002068016921F002010161AA68B2F1004FD8
:100CB0003BD02968206803F07BF82068416921F067
:100CC0000041416120686A69C168C1F3C1014900FE
:100CD0008A402969042958D02B6800EB8100016EF5
:100CE000DFF8B0C203F0F84301EA0C0113431943E3
:100CF00041F00041016620682A69A96900E01FE00F
:100D000000EB8200026E22F080720A430266297FA5
:100D100020682A69012935D0002100EB8200026E8B
:100D200022F000720A4302669EE0296800222068D1
:100D300003F03EF82068416941F000414161C1E79C
:100D400095F82500012805D02068C16821F00071C0
:100D5000C160A1E72068C16841F00071C1609BE7F4
:100D6000E06D40F02000E065012795E7D5E90D1022
:100D700001432068026922F4FF7242F0020211432B
:100D8000016192E74FF00071C7E7002102F0EAFF2E
:100D900040036FD00021206802F0E4FF90FAA0F039
:100DA000B0FA80F1286842036BD090FAA0F0B0FA54
:100DB00080F0814204D100221146206803F007F838
:100DC0000121206802F0CEFF40035DD001212068A0
:100DD00002F0C8FF90FAA0F0B0FA80F12868420350
:100DE00059D090FAA0F0B0FA80F0814204D10022EC
:100DF0000121206802F0EBFF0221206802F0B2FF1F
:100E000040034BD00221206802F0ACFF90FAA0F022
:100E1000B0FA80F12868420347D090FAA0F0B0FA07
:100E200080F0814204D100220221206802F0CFFF2D
:100E30000321206802F096FF400339D00321206887
:100E400002F090FF90FAA0F0B0FA80F12868420317
:100E500035D090FAA0F0B0FA80F0814204D100229F
:100E60000321206802F0B3FF206802F08DFF48B331
:100E7000B9E0FFE70021206802F074FFC0F384614D
:100E800090E7C0F3846094E70121206802F06AFFD4
:100E9000C0F38461A2E7C0F38460A6E70221206862
:100EA00002F060FFC0F38461B4E7C0F38460B8E788
:100EB0000321206802F056FFC0F38461C6E7C0F347
:100EC0008460CAE720682A7B296850F8B03FC1F3E4
:100ED000120C23EA0C0302F0180C2F4A22FA0CF22F
:100EE0000A4013430360E86848457CD12868410301
:100EF00019D090FAA0F1B1FA81F1491C01F01F015B
:100F0000092931D84103002910D090FAA0F1B1FA93
:100F100081F101F1010101F01F0108FA01F808D186
:100F2000C0F3846109E0C0F38461E6E7C0F3846143
:100F3000EFE790FAA0F1B1FA81F101F1010101F0BE
:100F40001F0148EA816102D1C0F3846003E090FA96
:100F5000A0F0B0FA80F000F1010000F01F0000EBFB
:100F6000400041EA00513AE04FEA4031002915D0F3
:100F700090FAA0F1B1FA81F101F1010101F01F0134
:100F800008FA01F80DD1C0F384610EE000007F4043
:100F90000040100400F0FF03FFFF0700C0F384616E
:100FA000EAE790FAA0F1B1FA81F101F1010101F053
:100FB0001F0148EA816102D1C0F3846003E090FA26
:100FC000A0F0B0FA80F000F1010000F01F00A0F1E5
:100FD0000A0000EB400041EA005040F00071AA68AE
:100FE000206802F0E5FE28482968014248D0274AD7
:100FF000906800F0E070264B994202D0254B994250
:101000001ED103021CD42168B1F1A04F38D140F4A5
:101010000000916821F0E071014391601E481F4972
:101020000068B0FBF1F0801C00EB400080000090F5
:1010300002E00098401E009000980028F9D11FE0BF
:10104000174D184BA9420CD1C5010AD42168994209
:1010500016D040F08070916821F0E07101439160FA
:101060000EE0114DA9420BD1410209D421689942E9
:1010700006D040F48000916821F0E0710143916056
:1010800084F85860384693E500000880000300505B
:10109000000021C31000C09010000020400D03008C
:1010A000000052C700010050000084CB10B500685A
:1010B000B0F1A04F15D109210A4800F01BF80A4CE5
:1010C00060600921094800F015F8A060207818B97F
:1010D0000748FFF705FC2070BDE810400448FFF703
:1010E00010BC10BD500000202C000020BC000020CF
:1010F00098070020A1F5807100680F390ED0B1F576
:10110000837F08D0B1F5037F02D0D0F8800070470C
:10111000D0F88C007047D0F888007047D0F8840071
:10112000704770472DE9F04104464748806800F059
:101130001F05206802F020FE10B10220BDE8F081FA
:101140002068C16801F00041C06C10F4C07F00D17C
:1011500081B194F85800012812D0012084F8580079
:101160002046FFF759FB0146002759B184F8587013
:101170000846E3E7E06D40F02000E0650120DDE790
:101180000220DBE7E06DC00504D5206E20F00800EA
:10119000206600E02766E06D42F20102904340F4D1
:1011A0008050E065294B20684FF0A046984201D15D
:1011B000324600E00246824200D01DB9E26D22F4C0
:1011C0008012E2656022026084F858702068C2686C
:1011D000920203D5426842F480624260A069082806
:1011E0000ED02068426822F04002426020684268C7
:1011F00042F020024260206898420CD132460BE057
:101200002068426822F0200242602068426842F072
:1012100040024260EFE70246824209D045B1062D06
:1012200006D0072D04D0E06D40F48010E0659FE704
:10123000C26802F00072002A9AD18268044B1A40F8
:1012400042F00802826093E7000300500001005062
:10125000C0FFFF7F704770472DE9F0479CB0044600
:101260000D464FF0000994F8580001280DD00120D8
:1012700084F8580000261896199620684FF0A04868
:101280002D4F404505D1019704E002201CB0BDE878
:10129000F0870196019840B1019802F07DFD8246E9
:1012A000206802F079FD40B10AE0E06D40F02000D6
:1012B000E06584F858600120E8E7BAF1000F09D032
:1012C000E06D40F02000E0654FF0010984F85860BF
:1012D0004846DBE71948296840F61F72D1B181689A
:1012E00094F8383021F4604141EA43316B68194386
:1012F0008160D8F80810C1F30001BB68C3F3000394
:101300001943E3D1AB6829681943836893431943B0
:101310008160DBE7816821F460418160D8F80810C2
:10132000C1F30001BB68C3F300031943CED1816848
:1013300091438160CAE700000001005000030050A3
:10134000704770472DE9F05F04464FF000082068B1
:10135000056846689A48806800F01F07A8070ED500
:10136000B0070CD5E06DC00603D4E06D40F400601A
:10137000E0652046FFF7FEFB216802200860DFF8E9
:1013800044B268074FF0A04901D5700703D428077D
:1013900037D5300735D5E06DC00603D4E06D40F495
:1013A0000070E065206802F0FBFC20B3206858451F
:1013B00001D1494600E00146814208D03FB1052FE6
:1013C00005D0092F03D0584503D1494602E0C16832
:1013D00001E00146C96889040DD4016809070AD5EE
:1013E00002F0D6FC58B3E06D40F01000E065206ECE
:1013F00040F0010020662046FFF7A2FF21680C2084
:101400000860A80601D5B00603D4680656D5700654
:1014100054D5E06DC00603D4E06D40F40050E065A3
:101420002068C16C11F4C07F1AD04FF0000A02F09E
:10143000B7FC02462068584515D1494614E020689B
:10144000416821F00C014160E06D20F48070E0659E
:10145000E06DC004CFD4E06D40F00100E065CAE764
:101460004FF0010AE3E70146814265D0F7B3062F4A
:1014700062D0072F60D0584500D08146D9F80C10B3
:10148000BAF1000F14D08B0102D58AB18A040FD4AF
:10149000026852060CD589020AD402F069FC30B306
:1014A000E06D40F01000E065206E40F00100206625
:1014B0002046FFF7FBFD21686020086028060BD559
:1014C000300609D5E06D40F48030E065204600F03C
:1014D0007BF9216880200860E8050FD5F0050DD55F
:1014E000E06D40F40030E065204601E024E025E0B6
:1014F000FFF7B0FE21684FF480700860A8050CD596
:10150000B0050AD5E06D40F48020E0652046FFF785
:10151000A2FE21684FF400700860E80639D5F00695
:1015200037D5E06BD8B1EFB12548806800F4604052
:10153000F0B14FF001081BE0C168A1E720684168E5
:1015400021F060014160E06D20F48050E065E06DC5
:10155000C005ADD4E06D40F00100E065A8E74FF0B4
:10156000010805E02068C068C00701D04FF00108FD
:10157000B8F1010F0AD1E06D40F48060E065206EA3
:1015800040F0020020662046FFF7DBFE21681020B5
:101590000860680512D5700510D5E06D40F48040F4
:1015A000E065206E40F00800206621684FF48060FE
:1015B00008602046BDE8F05FFFF7B3BDBDE8F09FCF
:1015C0000003005000010050F8B504460025002635
:1015D0000096002C02D0E06D10B107E00120F8BDAC
:1015E000204600F0F3F8266684F858602068816889
:1015F000C1F3407119B181686C4A11408160206863
:101600008168C1F30071A1B98168694A114041F054
:1016100080518160674868490068B0FBF1F0401C68
:101620004000009002E00098401E009000980028C2
:10163000F9D120688168C1F3007141B9E16D41F0D1
:101640001001E165216E41F001012166012502F0E2
:101650009FFBE16DC90600D430B1E06D40F0100091
:10166000E06501252846F8BDE06D20F4807040F06B
:101670000200E065206802F083FB88B94FF0A040CB
:101680008068C0F300004D498968C1F30001084338
:1016900006D160684A498A6822F47C1202438A6053
:1016A000E168E06B627F0843A16841EA4231084388
:1016B00094F8241040EA0140012903D1218D491EEC
:1016C00040EA4140E16A29B101F47871226B01439B
:1016D00042EA01002168CA683A4B1A400243CA60D4
:1016E00020680169626B21F040611143016120684B
:1016F00002F03EFB80BB207F94F83810800340EA64
:1017000041012068C26844F202039A430A43C2605E
:10171000206968B12068016941F480310161206865
:1017200050F8C01F22696FF30D01114301600AE0F8
:101730002068016921F480310161206850F8C01FE0
:101740006FF30D01016094F84000012813D0206868
:10175000016921F001010161606901281CD0206844
:10176000016B21F00F010163E06D20F0020040F0F9
:101770000100E06576E7D4E911100143D4E91302D2
:10178000104301432068026940F2FC739A431143FD
:1017900041F001010161DFE72068016B226A21F05D
:1017A0000F01521E11430163DEE70000C0FFFF5F1F
:1017B000C0FFFF7F10000020400D0300000100501B
:1017C000000300500740F0FF704700002DE9F04192
:1017D00098B00446142113A8FEF754FD442102A832
:1017E000FEF750FD4FF40040216800258203DFF82A
:1017F000DC800326364C4FF09047B1F1A04F12D059
:10180000344B99423ED10290119202A800F066FF3B
:1018100008B1FFF7E9F8D8F80010491CC8F8001023
:10182000012932D039E00290119202A800F056FF4F
:1018300008B1FFF7D9F8D8F80010491CC8F8001013
:10184000012907D1E06C40F40050E064E06C00F442
:1018500000500190E06C40F00100E064E06C00F0AA
:1018600001000190012013901496159513A9384694
:1018700000F0C8FC00221146122000F00FFE1220DA
:1018800000F0FEFD18B0BDE8F081E06C40F40050BF
:10189000E064E06C00F400500190E06C40F0010066
:1018A000E064E06C00F001000190022013901496B7
:1018B000159513A9384600F0A5FC00221146122008
:1018C00000F0ECFD122000F0DBFDDBE70000002063
:1018D000001002400001005010B50021002808D07F
:1018E00090F825200123022A05D00421C16301219B
:1018F00024E0012010BD0268146824F00104146083
:101900000268146824F00E041460826C146824F4D5
:101910008074146090F84420046C02F01F0203FAF3
:1019200002F26260D0E913426260426D32B1146823
:1019300024F480741460D0E916426260243043704D
:1019400000220270084610BD70B5002490F82510E2
:1019500000230122022906D0042124308161427033
:101960000370012429E001680D6825F001050D6070
:1019700001680D6825F00E050D60816C0D6825F479
:1019800080750D6090F84410154601F01F018A40E3
:10199000016C4A60D0E913215160416D31B10A6890
:1019A00022F480720A60D0E91621516080F8255037
:1019B00080F82430816B01B18847204670BDF0B4B7
:1019C000016C0A6801680B6890F84440042604F032
:1019D0001F0406FA04F5154215D05D0713D50A68F1
:1019E000920603D40A6822F004020A6090F84410B8
:1019F00001F01F0106FA01F5016C4D60016B002931
:101A000041D0F0BC08474FF0020C0CFA04F6164225
:101A10004FF000074FF0010519D09E0717D50A684F
:101A2000920605D40A6822F00A020A6080F825505E
:101A300090F8441001F01F010CFA01F6016C4E60A1
:101A400080F82470C16A00291DD0F0BC0847082620
:101A5000A640164217D01A0715D50A6822F00E02C2
:101A60000A6090F84410026C01F01F0105FA01F1C0
:101A70005160C56380F8255080F82470416B0029BF
:101A800001D0F0BC0847F0BC7047000070B50446B8
:101A9000002C0DD02B4A2068142190420AD22A4AE9
:101AA0000244B2FBF1F189006164284921640BE032
:101AB000012070BD234A52420244B2FBF1F1890079
:101AC0006164204908392164022184F825100268E4
:101AD00047F6F0718A43D4E902131943D4E9043577
:101AE0002B431943A3691943E3691943236A194333
:101AF000114301602046FEF71DFFA0680025B0F5E8
:101B0000804F00D165602079A16C00F07F000860F3
:101B1000D4E9131048606068401E032808D82046A6
:101B2000FEF72CFF606D0560D4E91610486002E0F6
:101B30006565A565E5652434A561012060702570A3
:101B4000002070BD08040240F8FFFDBF0000024005
:101B500070B50446002594F8240001280CD001201B
:101B600084F8240094F825600020012E06D084F823
:101B700024000225284670BD022070BD022684F88C
:101B80002560E0632068066826F0010606602046AE
:101B9000FEF708FF206B28B12068016841F00E01B4
:101BA000016009E02068016821F0040101602068FB
:101BB000016841F00A010160A06C0168C90303D506
:101BC000016841F480710160606D18B1016841F4F1
:101BD000807101602068016841F001010160C9E77E
:101BE00070B5044600F0F0FB0546601C02D00448C6
:101BF0004068044400F0E8FB401BA042FAD370BDEB
:101C00000400002070B5044694F85C00022805D05A
:101C1000206E40F008002066012070BD2068D0F8DA
:101C2000C4309B0205D5206E40F400702066012070
:101C300070BDD0F8C400C0F301452B462046FEF726
:101C400011FF21680120A840C1F8CC00A065002048
:101C500070BD704770470000F0B590F85C40022CF2
:101C600005D0016E41F0080101660120F0BD402958
:101C700043D00468D4F898502D0760D0D4F8985019
:101C8000C5F30125D4F89860F60106D5D4F8804054
:101C9000E40502D56D1C05F00305C46C05EBC50613
:101CA00004EBC606346804F080445460ECB3346836
:101CB00024F060441460346804F000549460346884
:101CC00004F000441461B488A4B2D4617468C4F30D
:101CD0000344D460746804F480145461746804F498
:101CE000001494617468C4F306641462746808365E
:101CF000E40F54620024224F31E00468D4F890507D
:101D00002D0716D0D4F89050C5F30125D4F8906073
:101D1000F60106D5D4F88040A40502D56D1C05F067
:101D2000030505EBC506846C00E00EE004EBC60677
:101D3000B8E7016E41F4807101660120F0BD016ECB
:101D400041F4807101660120F0BD3468C4F38A4417
:101D50001460B0E716F804C003F804C0641CD2F89D
:101D60000CC017F80CC0A445F4D8402904D0006872
:101D7000C0F89C500020F0BD0068C0F89450F9E70E
:101D8000205C00080068D0F8C40000F0070070472D
:101D900070472DE9F05F04462068016D01F4E051C1
:101DA000D0F8548008EA0108016D01F00701D0F86D
:101DB000549009EA0109016D01F03801D0F854A0EE
:101DC0000AEA010A016D01F47101476D0F40016DCE
:101DD00001F46021D0F854B00BEA010B456D016DA0
:101DE000CE43710607D4E943490604D44021016576
:101DF0002046FFF7CDFFF0050ED4E843C0050BD415
:101E00002068D0F8D820D0F8E01011404FF480724C
:101E10000265204600F0C6F9B8F1000F06D0206830
:101E2000C0F850804146204600F0EAF9B9F1000FB1
:101E300006D02068C0F850904946204600F0A2F92C
:101E4000BAF1000F06D02068C0F850A051462046D5
:101E500000F09FF9B00509D4E843800506D4216855
:101E60004FF400700865204600F0CBF930060DD421
:101E7000E84300060AD42068D0F8D420D0F8DC105B
:101E8000114080220265204600F08EF9B00409D48A
:101E9000E843800406D421684FF4005008652046CA
:101EA00000F07FF9300409D4E843000406D4216827
:101EB0004FF400400865204600F072F970040AD41F
:101EC000E843400407D421684FF480400865206E41
:101ED00040F080002066BBF1000F06D02068C0F8FB
:101EE00050B059462046FFF7B5FE27B12068076578
:101EF000206E38432066206E002802D02046FFF76F
:101F0000A8FEBDE8F09F00002DE9F0470446002C34
:101F100007D0724F4FF4407994F85C00002618B156
:101F200007E00120BDE8F08784F85D60204600F0FE
:101F3000D9F82068816921F01001816100F044FA2C
:101F400005464FF003080CE000F03EFA401B0A285B
:101F500007D9206E40F00100206684F85C800120E3
:101F6000E0E7206880690007EED42068816941F0CD
:101F70000101816100F028FA05460CE000F024FA26
:101F8000401B0A2807D9206E40F00100206684F823
:101F90005C800120C6E720688069C007EED0206819
:101FA000816941F0020181612068B84202D14C4947
:101FB00060680860207C012839D02068816941F080
:101FC00040018161607C012837D02068816921F45B
:101FD00080418161A07C012835D02068816941F46D
:101FE0008051816120688169A26821F440711143A8
:101FF00081612068816921F0A40181612068016903
:1020000021F010010161E068012822D030B30228DC
:102010002BD02068816941F08001816120680169CD
:1020200041F010010161E068032818D022E0206827
:10203000816921F040018161C4E72068816941F430
:1020400080418161C6E72068816921F48051816106
:10205000C8E72068816941F0040181610AE02068D5
:10206000816941F02001816104E02068816941F0CB
:1020700020018161207E401E4106E069401E41EA48
:102080000020216A491E0843A18A491E40EA0140F6
:102090002168C861A06848450FD1A06AE16A401E66
:1020A000491E40EA0121206B401E41EA0011A08C2C
:1020B000401E41EA00402168C860206850F8C01FF7
:1020C000E26B114301602046FEF79CFCA665266684
:1020D000012084F85C00002024E700000064004038
:1020E0000065004010B598B00446142113A8FEF70F
:1020F000C9F8442102A8FEF7C5F81F4920688842A4
:1021000038D18014029040030E9002A800F0E6FA45
:1021100008B1FEF769FC1948816D41F000718165D5
:10212000816D01F000710191C16C41F00201C16447
:10213000C06C00F0020001904FF440701390022038
:1021400014900020159016900920179013A90C48A0
:1021500000F058F800221146152000F09FF91520D4
:1021600000F08EF900221146162000F097F9162093
:1021700000F086F918B010BD006400400010024065
:1021800000040048CA0703D00A46402103F080BB80
:1021900070470A0703D50A46412103F079BB70470F
:1021A00070477047704700002DE9F041134E00273B
:1021B00030680762C761818C00291DD0C468EFF3C5
:1021C0001081C16272B6058A10E0206958B12146BB
:1021D000306803F0C9FB58B127613068818C491E13
:1021E00081846169C1616D1EADB21834002DECD1DE
:1021F0003068C06A80F31088BDE8F08128000020B4
:10220000704770472DE9F84F0022DFF890914FF0AA
:10221000010803274FF00F0C09F1040AA9F1040B80
:10222000B4E008FA02F52B40002B6ED00C7904F0D4
:102230000304012C01D0022C15D18668540007FA42
:1022400004FE26EA0E06D1F80CE00EFA04FE4EEA71
:10225000060EC0F808E04468AC430D79C5F30015DC
:102260009540254345600C79E443A40702D18C686E
:10227000012C08D0C568540007FA04F6B5438E68EF
:10228000A6402E43C6600C7904F00304022C11D141
:10229000D40800EB8406356A5407E40E0CFA04FEF9
:1022A00025EA0E05D1F810E00EFA04FE4EEA050EFE
:1022B000C6F820E00568540007FA04F6B5430E7925
:1022C00006F00306A6402E4306604C6814F4403F17
:1022D0005BD0334C256E45F001052566246E04F075
:1022E000010400942F4C22F003052E19B5689407C1
:1022F0004FEA147E0CFA0EF4A543B0F1904F05D0CE
:10230000294CA04204D1012417E03EE0002414E04F
:10231000264CA04201D102240FE0254CA04201D15D
:1023200003240AE0234CA04201D1042405E0224CFE
:10233000A04201D1052400E0062404FA0EF42C4347
:10234000B460D9F800409C434D68ED0200D51C43B1
:10235000C9F80040DAF800409C434D68AD0200D552
:102360001C43CAF80040DBF800409C434D68AD03B5
:1023700000D51C43CBF80040084D083D2C689C4319
:102380004E68F60300D51C432C60521C0B6833FAD0
:1023900002F47FF446AFBDE8F88F00000804014066
:1023A00000100240000001400004004800080048FE
:1023B000000C00480010004800140048002A01D01A
:1023C00081617047816270470148806870470000F2
:1023D000040000200248816842681144816070470F
:1023E0000400002010B50024032000F077F80F202F
:1023F00000F008F808B1012401E000F029F82046B7
:1024000010BD000070B5054600240F4E706800280E
:1024100017D04FF47A71B1FBF0F00C490968B1FBA9
:10242000F0F000F0BDFE08B101240BE0102D06D243
:1024300000222946501E00F031F8356002E00124E8
:1024400000E00124204670BD0400002010000020A0
:1024500082B00A48016E41F001010166016E01F08F
:1024600001010191816D41F080518165806D00F025
:102470008050019002B000F029B900000010024025
:10248000002809DB00F01F02012191404009800073
:1024900000F1E020C0F8001170470000F0B40D46D4
:1024A0000D4B1B68C3F30223C3F10704042C00D9AE
:1024B0000424191D072901D2002300E0DB1E012698
:1024C00006FA04F1491E294099409E40761E1640A6
:1024D0003143F0BC02F0BCBC0CED00E000F00701A1
:1024E000054A10684FF6FF03184040EA01200349EF
:1024F00008431060704700000CED00E00000FA0592
:1025000001680122C0F8D022002280F8C82231F8E8
:10251000540F40F001000880088840F00200088055
:102520000020704770B50446002C04D094F8910246
:10253000002510B106E0012070BD84F890522046BD
:1025400000F03AF8032084F89102206802F05DFC64
:10255000002101260BE001EB810004EBC000467472
:102560000174C574056245628562491CC9B220794F
:102570008842F0D800210DE001EB810004EBC0009F
:1025800000F5A87045700170C570056145618561F1
:10259000491CC9B220798842EED894E8070002F0BD
:1025A0002BFC257384F89162A07A012802D1204681
:1025B000FFF7A6FF002070BD10B592B0044644217D
:1025C00001A8FDF75FFE0C492068884212D1401433
:1025D000019000200E9001A800F080F808B1FEF7ED
:1025E00003FA0648816D41F400018165806D00F4B5
:1025F0000000009012B010BD005C004000100240CE
:102600002F49304B0A6832214A432F4900280AD00B
:10261000B0F5007F2DD0086820F4C06040F48060E1
:102620000860002070470868C0F34120022805D0E8
:1026300051F8800F20F480700860F2E7D1F8800034
:1026400020F48070C1F88000086820F4C06040F475
:1026500000700860B2FBF3F0401C00E0401E4A69C5
:10266000520501D50028F9D148694005D9D5032084
:1026700070470868C0F34120022805D051F8800F48
:1026800040F480700860CCE7D1F8800040F480709E
:10269000C1F88000086820F4C06040F40070086051
:1026A000B2FBF3F0401C00E0401E4A69520501D520
:1026B0000028F9D148694005B3D5032070470000D0
:1026C0001000002040420F00007000400248816866
:1026D00041F4804181607047007000402DE9F84F5F
:1026E0000446002600272068A04D000366D54FF061
:1026F0000008A86DC00009D4A86D40F08050A865FE
:10270000A86D00F0805000904FF00108DFF860A243
:10271000DAF8000040F48070CAF80000FFF754FEB9
:10272000814607E0FFF750FEA0EB0900022801D91F
:10273000032603E0DAF80000C005F3D526B13746DA
:10274000B8F1010F36D039E0D5F8900000F44070B0
:1027500080B1216C81420DD055F8900F20F440706B
:10276000296841F480312960296821F48031296089
:1027700045F89009C00711D0FFF726FE814641F2C7
:10278000883A07E0FFF720FEA0EB0900504501D989
:10279000032603E0D5F890008007F3D50EB1374645
:1027A000CEE7D5F89000216C20F440700843C5F8BE
:1027B0009000C5E7A86D20F08050A8652078C0077C
:1027C00007D0D5F88800616820F003000843C5F8F9
:1027D00088002078800707D5D5F88800A16820F008
:1027E0000C000843C5F888002078400707D5D5F8C5
:1027F0008800E16820F030000843C5F888002078A0
:10280000000707D5D5F88800216920F0C0000843EB
:10281000C5F888002078800607D5D5F8880061695A
:1028200020F440600843C5F888002078400607D5AA
:10283000D5F88800A16920F440500843C5F8880005
:102840002078000607D5D5F88800E16920F44040DB
:102850000843C5F888002088C00507D5D5F888004A
:10286000216A20F440300843C5F88800208880059C
:1028700007D5D5F88800616A20F440200843C5F8E0
:102880008800208840050FD5D5F88800A16A20F47B
:1028900040100843C5F88800A06AB0F5801F03D136
:1028A000E86840F48010E860208800050FD5D5F86E
:1028B0008800E16A20F440000843C5F88800E06A17
:1028C000B0F5800F03D1E86840F48010E8602088FC
:1028D000C0040FD5D5F88800216B20F04070084364
:1028E000C5F88800206BB0F1807F03D1E86840F420
:1028F0008010E86020884FF0006180040ED5D5F884
:102900008800626B20F040601043C5F88800606B5F
:10291000884203D1E86840F48010E86020884004D1
:102920000ED5D5F88800A26B20F040601043C5F8A2
:102930008800A06B884203D1E86840F48010E8600A
:10294000208800040FD5D5F88800E16B20F04050B6
:102950000843C5F88800E06BB0F1805F03D1E868F8
:1029600040F48030E8603846BDE8F88F001002403F
:10297000007000402DE9F04704460D460027002C6A
:1029800017D0DFF8A091D9F8000000F00F00A8429E
:1029900011D2D9F8000020F00F002843C9F8000038
:1029A000D9F8000000F00F00A84204D00120BDE8D3
:1029B000F0870120FBE720785B4EC00741F2883AA0
:1029C0004ED06068DFF86481032806D002281ED04C
:1029D0003068400520D40120E9E73068800101D447
:1029E0000120E4E701F05CFC404520D9B06810F01C
:1029F000F00F04D02078800719D5A068B8B9B06866
:102A000020F0F00040F08000B06080270FE03068D8
:102A1000800301D40120CAE700F0BAF8404506D986
:102A2000B06820F0F00040F08000B0608027B0680F
:102A3000616820F003000843B060FFF7C5FC8046E2
:102A400007E0FFF7C1FCA0EB0800504501D90320C7
:102A5000ADE7B068616800F00C00B0EB810FF0D119
:102A60002068810715D5400703D5B06840F4E060C1
:102A7000B0602078000705D5B06820F4605040F4BD
:102A8000E060B060B068A16820F0F0000843B0607A
:102A900005E0802F03D1B06820F0F000B060D9F8D5
:102AA000000000F00F00A84217D9D9F8000020F06C
:102AB0000F002843C9F80000FFF786FC074606E030
:102AC000FFF782FCC01B504501D903206FE7D9F8FE
:102AD000000000F00F00A842F2D12078400705D591
:102AE000B068E16820F4E0600843B0602078000737
:102AF00006D5B068216920F4605040EAC100B0609A
:102B000000F046F8B1680A4AC1F30311515C01F0C4
:102B10001F01C8400749086007480068BDE8F04742
:102B2000FFF770BC002002400010024000B4C40453
:102B3000585C0008100000200400002001480068D4
:102B4000704700001000002000B5FFF7F7FF0549AF
:102B50008968054AC1F30221515C01F01F01C84098
:102B600000BD000000100240685C000800B5FFF7DF
:102B7000E5FF05498968054AC1F3C221515C01F0AE
:102B80001F01C84000BD000000100240685C000842
:102B900010B51A4A9068C0F38101194801290BD079
:102BA00091684410C1F38101022906D09168C1F3F4
:102BB0008101032903D0002010BD204610BDD1683B
:102BC00001F00303D168C1F30311491C032B0DD09D
:102BD000B0FBF1F0D168C1F306214843D168C1F3DD
:102BE0004161491C4900B0FBF1F010BDB4FBF1F0AC
:102BF000D168C1F306214843F0E70000001002400D
:102C00000024F4002DE9F8430446002C0CD0207871
:102C1000FE4DC00752D0A86800F00C00E96801F032
:102C200003010C2803D004E00120BDE8F883032948
:102C300016D0082814D06068B0F5803F17D0B0F5E2
:102C4000A02F19D0286820F480302860286820F44C
:102C500080202860606818B3FFF7B6FB06461BE0CB
:102C6000286880032AD5606840BB0120DDE728681A
:102C700040F480302860EDE7286840F48020286028
:102C8000286840F480302860E4E7FFF79DFB801B54
:102C9000642801D90320C8E728688003F5D50DE032
:102CA000FFF792FB064606E0FFF78EFB801B6428C9
:102CB00001D90320B9E728688003F5D4207880077C
:102CC0004ED5A86800F00C00E96801F003010C285B
:102CD00001D102290BD0042809D0E06870B328681C
:102CE00040F480702860FFF76FFB06461BE0286801
:102CF000400501D5E06868B16868217C20F0FE409D
:102D000040EA01606860C2480068FFF77BFB38B3A7
:102D100001208AE7012088E7FFF756FB801B022885
:102D200001D9032081E728684005F5D56868217C32
:102D300020F0FE4040EA0160686011E0286820F45D
:102D400080702860FFF740FB064606E0FFF73CFB7B
:102D5000801B022801D9032067E728684005F5D4C5
:102D6000207800072CD56069A8B1D5F8940040F010
:102D70000100C5F89400FFF727FB064606E0FFF7C1
:102D800023FB801B022801D903204EE7D5F89400CD
:102D90008007F4D514E0D5F8940020F00100C5F8C0
:102DA0009400FFF711FB064606E0FFF70DFB801BC2
:102DB000022801D9032038E7D5F894008007F4D41D
:102DC000207840076FD54FF00008A86DC00009D4E7
:102DD000A86D40F08050A865A86D00F0805000906C
:102DE0004FF001088B4E3068C00511D4306840F4B4
:102DF00080703060FFF7E8FA074606E0FFF7E4FA74
:102E0000C01B022801D903200FE73068C005F5D5A3
:102E1000A068012813D0052818D055F8900F20F08D
:102E200001002860286820F0040045F89009A06897
:102E300041F2883608B3FFF7C7FA074618E0D5F81D
:102E4000900040F00100C5F89000F0E755F8900FB1
:102E500040F004002860286840F0010045F890091F
:102E6000E5E7FFF7B1FAC01BB04201D90320DCE669
:102E7000D5F890008007F4D50EE0FFF7A5FA0746D5
:102E800006E0FFF7A1FAC01BB04201D90320CCE64F
:102E9000D5F890008007F4D4B8F1010F03D1A86DE4
:102EA00020F08050A865207880062CD5A069A8B1B4
:102EB000D5F8980040F00100C5F89800FFF784FAB3
:102EC000064606E0FFF780FA801B022801D903209E
:102ED000ABE6D5F898008007F4D514E0D5F8980053
:102EE00020F00100C5F89800FFF76EFA064606E0EC
:102EF000FFF76AFA801B022801D9032095E6D5F86E
:102F000098008007F4D4E069F0B3A9684FF0FF3768
:102F1000C1F3810103295ED0022807D0286820F080
:102F200080702860FFF750FA04464CE0286820F0D3
:102F300080702860FFF748FA064606E0FFF744FA7B
:102F4000801B022801D903206FE628688001F5D490
:102F500054F8201F6068228A401E41EA0010A168D0
:102F600007EB5202090241EA42510843217D07EB77
:102F7000510140EA4160217B40EAC160E968264A8C
:102F800011400843E86000E062E0286840F080708B
:102F90002860E86840F08070E860FFF715FA0446A2
:102FA00006E0FFF711FA001B022801D903203CE6D6
:102FB00028688001F5D54BE0FFF706FA001B0228D0
:102FC00001D9032031E628688001F5D4E868134967
:102FD0000840E8603CE0012838D0E868226A00F048
:102FE0000301914230D1616A00F0F002491EB2EB58
:102FF000011F29D1A26A00F4FE41B1EB022F23D1B7
:1030000000F0784194F82C200AE000000010024003
:1030100004000020007000400C809F01FCFFEEFEC9
:10302000B1EBC26F10D1228E00F4C00107EB520247
:10303000B1EB425F08D194F8341000F0C06007EBA8
:103040005101B0EB416F03D00120EEE50120ECE52A
:103050000020EAE570B50446002C09D0606A00251E
:1030600040B125616561A56294F85D0040B10CE056
:10307000012070BD6068B0F5827FF4D0E561F2E7B1
:1030800084F85C50204600F05BF8022084F85D0074
:103090002068016821F040010160E1684FF4E062BE
:1030A000914201D9002001E04FF48050B1F5706FDA
:1030B00002D0914200D0A562A188228901F48271D8
:1030C00002F404421143227C02F002021143227DE9
:1030D00002F001021143228B02F400721143227F9D
:1030E00002F03802114394F8202002F080021143CC
:1030F000228D02F40052114322681160A16904225A
:1031000002EA114194F8242000F4805002F01002E9
:10311000114394F8342002F008021143A28902F40A
:10312000706211430143206841602068C16921F445
:103130000061C1612566012084F85D00002070BD3A
:1031400010B586B00446142101A8FDF79BF812497A
:10315000206888421ED11148016E41F480510166F9
:10316000016E01F480510091C16C41F00101C16414
:10317000C06C00F001000090F0200190022002904D
:103180000020039004900520059001A94FF0904085
:10319000FFF738F806B010BD0030014000100240C3
:1031A00010B5401EB0F1807F01D3012010BD4FF05B
:1031B000E02460610F21601701F04AFE0020A06149
:1031C00007202061002010BD704770477047000045
:1031D00030B590F83C20012A42D0012280F83C20F2
:1031E000CA6800248B6822F440721A434B6822F4A8
:1031F00080621A430B6822F400621A430B6922F4BE
:1032000080521A434B6922F400521A430B6B22F48A
:1032100080421A430B8B22F4702242EA0342CB69AC
:1032200022F080521A430F4D0368AB4202D00E4D7C
:10323000AB4210D10D8D22F4700242EA05520D6AA4
:1032400022F080722A434D6A22F000722A43C96A32
:1032500022F000520A435A6480F83C40002030BDFE
:10326000022030BD002C01400034014070477047FF
:1032700070470000F0B590F83C20012A34D00126B8
:1032800080F83C60022280F83D2003685A689C6800
:10329000164FDFF85CC0BB4201D0634503D122F476
:1032A00070054A682A43134D2A400D6815435D6036
:1032B0000268BA420DD0B2F1804F0AD00E4B9A424A
:1032C00007D00E4B9A4204D0624502D00C4B9A4272
:1032D00004D124F080038968194391603C30467022
:1032E000002101700020F0BD0220F0BD002C014043
:1032F000003401408FFFFFFD000400400008004043
:1033000000400140704710B50446002C03D094F8EB
:103310003D0010B107E0012010BD002084F83C0002
:10332000204600F017F8022084F83D00211D206897
:1033300001F026F801203D34E0726070A070E0706A
:1033400020716071A071E07120726072A0722070B3
:10335000002010BD08B500680B49884212D10B4807
:10336000816D41F010018165806D00F010000090CA
:10337000002211463620FFF791F8BDE808403620BC
:10338000FFF77EB808BD00000010004000100240AA
:1033900090F83D10012901D001207047022180F8EA
:1033A0003D100068124988420ED0B0F1804F0BD01A
:1033B0001049884208D01049884205D00F498842F8
:1033C00002D00F4988420CD181680E4A114006296B
:1033D0000BD0B1F5803F08D0016841F001010160D8
:1033E00003E0016841F00101016000207047000026
:1033F000002C01400004004000080040003401405F
:10340000004001400700010070472DE9F0410446EB
:103410002068C66805694FF00007A90714D5B107F1
:1034200012D5F91E0161012020772068806980078C
:1034300003D02046FFF7E8FF05E0204600F01BF927
:10344000204600F055F92777680717D5700715D57E
:1034500021686FF0040008610220207720688069ED
:1034600010F4407F03D02046FFF7CEFF05E0204652
:1034700000F001F9204600F03BF92777280716D520
:10348000300714D521686FF0080008610420207708
:103490002068C069800703D02046FFF7B5FF05E02C
:1034A000204600F0E8F8204600F022F92777E806E9
:1034B00017D5F00615D521686FF0100008610820B7
:1034C00020772068C06910F4407F03D02046FFF7C2
:1034D0009BFF05E0204600F0CEF8204600F008F9FA
:1034E0002777E80708D0F00706D021686FF00100C1
:1034F0000861204600F0FDF8280601D4A80408D58C
:10350000300606D521686FF4025008612046FFF7A7
:103510005CFEE80508D5300606D521686FF480709A
:1035200008612046FFF750FE680608D5700606D5EC
:1035300021686FF040000861204600F0DBF8A80623
:1035400008D5B00606D521686FF020000861204636
:10355000FFF73CFEE80208D5F00206D521686FF4BB
:10356000801008612046FFF782FEA80208D5B0024D
:1035700006D521686FF4001008612046FFF776FE3B
:10358000680208D5700206D521686FF480000861D2
:103590002046FFF76DFE28020AD5300208D52168C3
:1035A0006FF4000008612046BDE8F041FFF7AABEB5
:1035B000BDE8F08110B586B00446142101A8FCF7DF
:1035C00061FE0F492068884217D10E48C16C41F056
:1035D0000101C164C06C00F0010000904FF4E06094
:1035E0000190022002900020039004900620059094
:1035F00001A94FF09040FEF705FE06B010BD000097
:10360000002C01400010024070B50446002594F8DB
:103610003C0001280BD0012084F83C000C2A1ED06D
:1036200007DC82B1042A12D0082A06D113E0022056
:1036300070BD102A17D0142A19D00125002084F853
:103640003C00284670BD206800F0F6FEF6E72068D2
:1036500000F044FFF2E7206800F08CFFEEE72068FE
:1036600000F0D4FFEAE7206801F01CF8E6E72068E4
:1036700001F050F8E2E7704710B50446002C03D083
:1036800094F83D0010B107E0012010BD002084F83F
:103690003C00204600F018F8022084F83D00211D6F
:1036A000206800F06DFE01203D34E0726070A07073
:1036B000E07020716071A071E07120726072A07280
:1036C0002070002010BD000008B50068064988423F
:1036D00008D10648016E41F400610166006E00F4F5
:1036E0000060009008BD0000002C01400010024066
:1036F00070477047704790F88410012918D0012155
:1037000080F884102421C0F8881001680A680B68CA
:1037100023F001030B6022F000510022426603688F
:1037200019602021C0F8881080F88420002070479C
:10373000022070477047704770B5044694F88400C3
:1037400001281DD0012084F884002420C4F88800BA
:1037500020680568026822F0010202602068826821
:1037600022F060620A438260204601F00BF8206874
:1037700005602020C4F88800002084F8840070BD13
:10378000022070BD70B5044694F8840001281DD055
:10379000012084F884002420C4F88800206805688B
:1037A000026822F0010202602068826822F0604212
:1037B0000A438260204600F0E5FF20680560202073
:1037C000C4F88800002084F8840070BD022070BD19
:1037D00070477047704700002DE9F04104462368A8
:1037E000D86919689A6840F60F0500EA0507002FA6
:1037F0000ED185060CD501F0200502F08056354328
:1038000006D0616F00297DD02046BDE8F041084711
:1038100000260225002F76D0B54FDFF8D8C217401A
:1038200001EA0C0C57EA0C0C6DD05FEAC07C0CD09E
:103830005FEAC15C09D54FF0010CC3F820C0D4F891
:10384000903043F00103C4F89030830709D5D307C3
:1038500007D023681D62D4F8903043F00403C4F805
:10386000903043070AD5D30708D0256804232B627C
:10387000D4F8903043F00203C4F8903003070CD51D
:1038800001F020033B4308D0256808232B62D4F8BD
:10389000903043F00803C4F8903003050BD54B017A
:1038A00009D525684FF400632B62D4F8903043F0BB
:1038B0002003C4F89030D4F89030002B3CD0800620
:1038C00009D501F0200002F08051084303D0616F58
:1038D00009B120468847D4F89000216889684906D4
:1038E00002D410F0280F2DD0204601F075F8206882
:1038F0008068400622D52068083050E8001F21F07B
:10390000400101E018E023E040E80012002AF2D173
:10391000D4F8800068B178498163D4F88000FEF75C
:1039200013F8002808D0D4F88000816BBDE8F0417E
:1039300008472046FFF74EFFBDE8F0812046FFF71D
:1039400049FFF9E72046FFF745FFC4F89060F3E729
:10395000E76E012F7DD1C7067BD5CF0679D5102024
:103960001862206880684FF02003400655D5D4F8CF
:1039700080100A68506880B2F0B3B4F85C70874277
:103980003FD9A4F85E000868006880062CD420683F
:1039900050E8001F21F4807140E80012002AF6D19F
:1039A0002068083050E8001F21F0010140E80012B3
:1039B000002AF5D12068083050E8001F21F04001AE
:1039C00040E80012002AF5D1C4F88C30E666206881
:1039D00050E8001F21F0100140E80012002AF6D143
:1039E000D4F88000FDF778FF2567B4F85C00B4F8E0
:1039F0005E10401A81B200E003E02046FFF79AFE15
:103A00009AE7B4F85C10814296D11068800693D58D
:103A100025672046FFF78EFE8EE734F85C0F61883D
:103A2000401A81B260885C3C002885D0002983D090
:103A3000206850E8002F22F4907240E80027002F01
:103A4000F6D12B4FFF432068083050E8002F3A4052
:103A500000E016E040E8002CBCF1000FF3D1C4F800
:103A60008C30E6666667206850E8002F22F010026E
:103A700040E80023002BF6D125672046FFF75AFEC9
:103A80005AE7C50209D5550207D54FF480101862D0
:103A90002046BDE8F041FFF79CBE03060CD501F0BF
:103AA000800302F40002134306D0A16F0029A7D0BF
:103AB0002046BDE8F0410847420606D54A0604D52F
:103AC0002046BDE8F04100F0B1BF020206D54A0031
:103AD00004D52046BDE8F041FFF77ABEC0018FD57E
:103AE00000298DDA2046BDE8F041FFF724BE000032
:103AF00001000010200100043F49000810B50446F1
:103B0000002C03D0D4F8880010B107E0012010BDCC
:103B1000002084F88400204600F028F82420C4F80F
:103B200088002068016821F001010160A06A10B1DD
:103B3000204600F04BFE204600F0A2FF012813D0E3
:103B40002068416821F4904141602068816821F03B
:103B50002A0181602068016841F00101016020466E
:103B6000BDE8104000F096BE012010BD2DE9F047E1
:103B700098B00446142113A8FCF784FB442102A842
:103B8000FCF780FB48492068484DDFF8249118274E
:103B900000264FF007084FF0020A88425BD101204F
:103BA0000290039602A8FEF799FD08B1FCF71CFFEE
:103BB000286E40F480402866286E00F48040019012
:103BC000E86C40F00200E864E86C00F0020001904C
:103BD000C0201390CDF850A015961696CDF85C80B5
:103BE00013A94846FEF70EFB334D324828606F603C
:103BF000AE60EE6080272F616E61AE61EE612E6275
:103C00002846FDF743FF08B1FCF7EEFEC4F88050EC
:103C1000AC622848284D143060352860192068604F
:103C20001020A860EE602F616E61AE61EE612E62C1
:103C30002846FDF72BFF08B1FCF7D6FEE567AC621E
:103C4000002211462520FEF729FC2520FEF718FC4E
:103C500018B0BDE8F08719498842F9D1CDF808A01D
:103C6000049602A8FEF73AFD08B1FCF7BDFEA86D68
:103C700040F40030A865A86D00F400300190E86CB5
:103C800040F00200E864E86C00F002000190139735
:103C9000CDF850A015961696CDF85C8013A948462D
:103CA000FEF7B0FAD4E700000038014000100240EF
:103CB0000004004808000240B00300200044004017
:103CC00070B50446D4F88800202801D0022070BDC9
:103CD00031B32AB344F8501FA280E280002121644E
:103CE0002120A063E06A503CE0B1164BC362E36F51
:103CF00015481863E36F15485863E06F81632068C7
:103D000013462830E56F02462846216DFDF720FF57
:103D100040B110208834A06020202060012070BDB8
:103D2000012070BD2168402008622068083050E8FA
:103D3000001F41F0800140E80012002AF5D1002068
:103D400070BD00008D490008CF49000849490008AE
:103D50000249884201D101F0DFBE7047880200208D
:103D60007047FEE700EB8100006E00F0F8407047FE
:103D70008068C0F3C00070478068C0F3C00070471F
:103D80008068C0F3000070478068C0F3000070478F
:103D90008068C0F3800070478068C0F3800070477F
:103DA000C06810F4406F01D00020704701207047B8
:103DB00010B501F0007300EBD3504369C1F3045117
:103DC00007248C40A3438A401343436110BD00EB9A
:103DD0008100016E21F0004111430166704700002F
:103DE00070B592B000240F94109411943C21684651
:103DF000FCF748FA23484FF0A04101604FF44031EE
:103E000041608460C4600461446104268661047773
:103E100044770125056280F8244080F83840C46367
:103E200080F84040FDF7D0FB08B1FCF7DDFD052030
:103E30000F90109411940FA91248FDF70DFA08B1D4
:103E4000FCF7D2FD104800900920019002947F20D9
:103E500003900496059408958DF824408DF825402C
:103E60008DF8264080200A900B908DF830406946EE
:103E70000448FCF781FE002801D0FCF7B5FD12B024
:103E800070BD0000500000200200300470B590B0FA
:103E90003C2101A8FCF7F6F91D481C4901604FF4CC
:103EA0004031416000248460C460046144610426A0
:103EB0008661047744770125056280F8244080F804
:103EC0003840C46380F84040FDF77EFB08B1FCF742
:103ED0008BFD104801900920029003947F200490EC
:103EE0000596069409958DF828408DF829408DF89F
:103EF0002A408DF8344001A90548FCF73DFE002812
:103F000001D0FCF771FD10B070BD00000001005041
:103F1000BC0000200400600808B51148816C41F025
:103F200004018164816C01F004010091816C41F015
:103F300001018164806C00F00100009000221146B4
:103F40000B20FEF7ABFA0B20FEF79AFA002211467F
:103F50000C20FEF7A3FABDE808400C20FEF790BA4B
:103F60000010024010B51248104901600021416064
:103F70008160C16001220274417481741123436124
:103F800082611023C3610323036242628262C262C0
:103F9000026341638163C163FDF7B6FF002803D06C
:103FA000BDE81040FCF720BD10BD000000640040DB
:103FB0002801002030B587B0142102A8FCF762F96F
:103FC0001648C16C41F02001C164C16C01F02001B0
:103FD0000191C16C41F00101C164C16C01F00101AA
:103FE0000191C16C41F00201C164C06C00F002009B
:103FF00001900B4D4FF40064002221462846FEF745
:10400000DDF902940121039100210491032105911E
:1040100002A92846FEF7F6F807B030BD00100240AE
:104020000004004810B51248104901604FF4827135
:104030004160002181604FF4E062C2600161416132
:104040004FF4802282610822C26101624162816272
:104050000723C36201634263FEF7FCFF002803D01D
:10406000BDE81040FCF7C0BC10BD000000300140AE
:104070008C01002010B598B0002415941694179464
:104080001C210EA8FCF7FEF8342101A8FCF7FAF871
:104090002C482B49016010214160846040F2F311EB
:1040A000C1600461446180218161FFF7E5FA08B1D4
:1040B000FCF79AFC202015901694179415A9214816
:1040C000FFF7D8F808B1FCF78FFC0E940F9410940A
:1040D000119412941394149400220EA91948FFF716
:1040E00093FA08B1FCF780FC04220EA91548FFF7EB
:1040F0008BFA08B1FCF778FC08220EA91148FFF7EB
:1041000083FA08B1FCF770FC0194029403940494C0
:1041100005944FF400500690079408940994000306
:104120000A900B940C940D9401A90648FFF750F8DF
:1041300008B1FCF759FC0348FFF73CFA18B010BD72
:10414000002C0140F00100203EB5002400940194B1
:1041500002940E480C490160A9214160846040F23C
:10416000E731C16080218161FFF7CDF808B1FCF72C
:104170003BFC0094029469460448FFF77BF8002852
:1041800001D0FCF731FC3EBD001000403C02002095
:1041900010B51848164901604FF4E1314160002123
:1041A0008160C16001610C2242618161C161016273
:1041B00041628162FFF7A2FC08B1FCF715FC002107
:1041C0000C48FFF7DFFA08B1FCF70EFC00210948A4
:1041D000FFF7B2FA08B1FCF707FC0648FFF78BFAC5
:1041E000002803D0BDE81040FCF7FEBB10BD000066
:1041F000003801408802002010B5184816490160B7
:104200004FF4E131416000218160C16001610C2205
:1042100042618161C161016241628162FFF76EFCAE
:1042200008B1FCF7E1FB00210C48FFF7ABFA08B13D
:10423000FCF7DAFB00210948FFF77EFA08B1FCF72A
:10424000D3FB0648FFF757FA002803D0BDE810401B
:10425000FCF7CABB10BD0000004400401C03002056
:1042600010B50C480A490160082101710221417111
:10427000C1710021017241728172C172FEF752F95F
:10428000002803D0BDE81040FCF7AEBB10BD000015
:10429000005C004070040020FEE7FEE7704700006D
:1042A0001049C86800F00302C868C0F30310401C3E
:1042B000032A0ED00C4AB2FBF0F0CA68C2F3062201
:1042C0005043C968C1F34161491C4900B0FBF1F09A
:1042D0007047064AB2FBF0F0CA68C2F306225043A8
:1042E000EFE70000001002400024F40000127A0002
:1042F0007047FEF76FB810B594B0382106A8FBF7E9
:10430000C1FF142101A8FBF7BDFF0020FEF778F9DB
:10431000212006904FF48030079001200C9002205D
:104320000D9003240E940F905521109111900421AB
:104330001291139006A8FEF765FC08B1FCF754FB38
:104340000F20019002940020039004900590042116
:1043500001A8FEF70FFB002801D0FCF745FB14B0C5
:1043600010BD00000248016841F47001016070470F
:1043700088ED00E00148FFF748B800003C0200204B
:104380002DE9F0470268254DDFF89480DFF894901E
:10439000254B4FF0804AA84207D0504505D04045F4
:1043A00003D0484501D0984203D122F070044A68F6
:1043B00022431E4E1E4FDFF87CC0A8420DD0504550
:1043C0000BD0404509D0484507D0984205D0B042AF
:1043D00003D0B84201D0604503D122F44074CA68CA
:1043E00022434C6922F0800222438C68C4620C682C
:1043F0008462A84207D0984205D0B04203D0B842A8
:1044000001D0604501D109690163016841F00401EF
:104410000160012141610260BDE8F087002C01408C
:10442000000400400008004000340140004001400A
:1044300000440140004801402DE9F043056A026A4A
:1044400022F001020262436882691E4C224022F07F
:1044500003020C68144325F002058A682A431A4EA9
:104460001A4FDFF86CC0DFF86C80DFF86C90B04258
:1044700007D0B84205D0604503D0404501D048453B
:1044800007D1056A25F00405056222F00805CA680F
:104490002A43B04207D0B84205D0604503D040451A
:1044A00001D0484507D123F4807323F400734D698C
:1044B0001D438B692B4343608461496841630262F9
:1044C000BDE8F0838FFFFEFF002C01400034014067
:1044D000004001400044014000480140F0B5046A3A
:1044E000026A22F010020262426883691B4D2B406F
:1044F00023F440730D6843EA052524F020038C68FB
:1045000043EA0413164C174EA04201D0B04208D122
:10451000076A27F04007076223F08003CF6843EA69
:104520000713A0420AD0B04208D00F4CA04205D0D9
:104530000E4CA04202D00E4CA04209D122F480625F
:1045400022F400624C6942EA84028C6942EA8402E5
:1045500042608561496881630362F0BDFF8FFFFEA1
:10456000002C014000340140004001400044014063
:1045700000480140F0B5056A026A22F480720262C6
:104580004268C3691B4C234023F003030C681C439F
:1045900025F400738D6843EA0523174D174EA84292
:1045A00001D0B04208D1076A27F48067076223F47C
:1045B0000063CF6843EA0723A8420AD0B04208D07C
:1045C0000F4DA84205D00F4DA84202D00E4DA84273
:1045D00009D122F4805222F400524D6942EA0512B8
:1045E0008D6942EA05124260C4614968C163036291
:1045F000F0BD00008FFFFEFF002C014000340140A1
:10460000004001400044014000480140F0B5046A08
:10461000026A22F4805202624268C3691B4D2B4039
:1046200023F440730D6843EA052524F400538C6895
:1046300043EA0433164C174EA04201D0B04208D1D1
:10464000076A27F48047076223F40043CF6843EAF0
:104650000733A0420AD0B04208D00F4CA04205D088
:104660000E4CA04202D00E4CA04209D122F480424E
:1046700022F400424C6942EA84128C6942EA8412B4
:104680004260C561496801640362F0BDFF8FFFFEAF
:10469000002C014000340140004001400044014032
:1046A0000048014030B5056A026A22F48032026295
:1046B0004268036D114C23400C681C4325F4003301
:1046C0000D8943EA05430E4DA8420BD00D4DA8427B
:1046D00008D00D4DA84205D00C4DA84202D00C4D7B
:1046E000A84204D122F480324D6942EA0522426098
:1046F000046549688164036230BD00008FFFFEFFDE
:10470000002C0140003401400040014000440140C1
:104710000048014030B5056A026A22F48012026244
:104720004268036D114C23400C6843EA042425F4CD
:1047300000130D8943EA05530D4DA8420BD00D4DD2
:10474000A84208D00C4DA84205D00C4DA84202D07A
:104750000B4DA84204D122F480224D6942EA852201
:10476000426004654968C164036230BDFF8FFFFE8B
:10477000002C014000340140004001400044014051
:104780000048014030B5416E002917D00268916899
:10479000C1F342619268520F0B4B9C5CE50003F140
:1047A0000804A25CB5FBF2F2A0F86A205A5C615CD6
:1047B000D200B2FBF1F1A0F8681030BD01216830E1
:1047C0004180018030BD0000485C000890F828104E
:1047D000090706D501684A68836B22F400421A4330
:1047E0004A6090F82810C90706D001684A68C36A71
:1047F00022F400321A434A6090F82810890706D53F
:1048000001684A68036B22F480321A434A6090F8C8
:104810002810490706D501684A68436B22F48022B4
:104820001A434A6090F82810C90606D501688A68BC
:10483000C36B22F480521A438A6090F828108906CC
:1048400006D501688A68036C22F400521A438A6014
:1048500090F82810490611D501684A68436C22F483
:1048600080121A434A60416CB1F5801F06D101687D
:104870004A68836C22F4C0021A434A6090F82810F8
:10488000090606D501684A68C06C22F4002202437A
:104890004A6070472DE9F84304460025C4F890505B
:1048A000FDF792FD8046206800684FF02006000763
:1048B0006FF07E4716D5434600223104204600970C
:1048C00000F048FA70B1206850E8001F21F0800124
:1048D00040E80012002AF6D1843466602570032077
:1048E000BDE8F88320680068400720D543460022D1
:1048F0004FF480012046009700F02CFAB8B12068F0
:1049000050E8001F21F4907140E80012002AF6D10F
:104910002068083050E8001F21F0010140E8001233
:10492000002AF5D18434A66025700320D8E76C34C2
:10493000E66126622560656025760020D0E710B527
:10494000806AFEF747FF10BD70B5846AD4F888000E
:10495000D4F88C5021688968090604D5212802D131
:10496000204600F075F820688068400604D5222DA6
:1049700002D1204600F030F8D4F8900040F010004A
:10498000C4F890002046FEF725FF70BD10B5014623
:10499000886A09680968890616D40021A0F85610AB
:1049A0000168083151E8002F22F0800241E800231D
:1049B000002BF5D1016851E8002F42F0400241E898
:1049C0000023002BF6D110BDFFF7C2F910BD10B5C2
:1049D000806AFFF7C5F910BD10B5016851E8002FD6
:1049E00022F4907241E80023002BF6D10E4B0168AF
:1049F000083151E8002F1A4041E80024002CF6D17C
:104A0000C16E012908D1016851E8002F22F010027F
:104A100041E80023002BF6D12021C0F88C100021A2
:104A2000C166416710BD0000FEFFFFEF10B50168D1
:104A300051E8002F22F0400241E80023002BF6D17C
:104A40002021C0F8881000218167FFF781F910BD8F
:104A5000016851E8002F22F0C00241E80023002B3A
:104A6000F6D10168083151E8002F22F4000241E834
:104A70000023002BF5D12021C0F8881070470000DA
:104A80002DE9F04104460025A74B20682269A16862
:104A9000E66911436269324311430268A34E324012
:104AA0000A43026020684168E26821F440511143E2
:104AB0004160A0692168994201D0226A10438A6846
:104AC0009B4E324002438A602068C16A626A21F0CC
:104AD0000F011143C1629749226897488A4214D155
:104AE000D0F8880010F0030007D0012809D0022870
:104AF00005D0032807D010216AE0012168E00221D7
:104B000066E0042164E0082162E08C498A4214D105
:104B1000D0F8880010F00C0007D0042809D008282D
:104B200005D00C2807D0102152E0002150E00221CE
:104B30004EE004214CE008214AE081498A4214D128
:104B4000D0F8880010F0300007D0102809D02028B5
:104B500005D0302807D010213AE0002138E00221AA
:104B600036E0042134E0082132E076498A4214D14B
:104B7000D0F8880010F0C00007D0402809D0802865
:104B800005D0C02807D0102122E0002120E002211A
:104B90001EE004211CE008211AE09A4217D1D0F847
:104BA000880010F440600AD0B0F5806F0BD0B0F5EB
:104BB000006F06D0B0F5406F07D0102108E000214B
:104BC00006E0022104E0042102E0082100E01021B7
:104BD0005D485E4E00274FF4004C9A4239D1B9B17E
:104BE000022905D0042916D0082917D00020012554
:104BF00060B3616A36F81120B0FBF2F1666806EB2B
:104C000046038B4202D8B1EB063F09D9012582E069
:104C1000FDF79AFFECE7FDF7BBFFE9E76046E7E742
:104C200000231946FBF7F6FA090241EA1061020275
:104C300070081018794132460023FBF7EBFA444A1A
:104C4000A0F54071914202D82168C86063E0012557
:104C500061E0E2694FF6EF78624530D1092911D25F
:104C6000DFE801F0050812100B1010100E00FDF720
:104C70006BFF09E0FDF77AFF06E0FDF789FF03E02F
:104C8000604601E000200125F0B3616A36F811109A
:104C9000B0FBF1F04100606801EB5001B1FBF0F0B6
:104CA000A0F11001414508D84FF6F0710140C0F362
:104CB000420001432068C1602DE001252BE0092955
:104CC00011D2DFE801F0050812100B1010100E00D1
:104CD000FDF73AFF09E0FDF749FF06E0FDF758FF51
:104CE00003E0604601E00020012568B1616A36F802
:104CF0001110B0FBF1F1606801EB5001B1FBF0F075
:104D0000A0F11001414500E005E003D8216880B220
:104D1000C86000E001250120683460802080E760E1
:104D200027612846BDE8F08100800040F369FFCF8D
:104D3000FFF4FF1100380140001002400044004021
:104D400000480040004C00400024F400305C0008A3
:104D5000FFFC0F002DE9F0470446089E0D4617465C
:104D600098464FF0000935E0701C33D0FDF72CFB5E
:104D7000A0EB0800B04219D8C6B120680168490705
:104D800028D5802D26D0402D24D0C169C9430907DC
:104D90000ED42068082505622046FFF71DFEC4F8E2
:104DA000905084F884900120BDE8F0870320FBE751
:104DB000C069C04300050DD421684FF4006008624B
:104DC0002046FFF709FE2020C4F8900084F8849064
:104DD0000320E9E72068C06935EA000004D000201C
:104DE000B842C1D00020DFE70120F9E70148FEF713
:104DF000F3BC000088020020012120F8401F0021A0
:104E0000018081800182002070474BF6807230F86B
:104E1000401F9143018000207047FEE77CB50C00E5
:104E20001D461646014601D0601E00E00020CDE977
:104E30000010064B6A462946304600F0EBF8002C7D
:104E400002D0009A002111707CBD00001B570008A1
:104E50000907090E002804DB00F1E02080F80014A7
:104E6000704700F00F0000F1E02080F8141D70473B
:104E700002E008C8121F08C1002AFAD17047704723
:104E8000002001E001C1121F002AFBD17047000081
:104E90002DE9FF5F82B00021DDE90430020DDDF86D
:104EA00040B0034318D044F61050A2F2FF32424300
:104EB0001514119801281FD0A5EB0B00401C5FEAC8
:104EC000000A4FF000064E4FDFF83891B0465046CA
:104ED00015D5CAF1000413E0119801244AA3012852
:104EE00001D16FEA0B010298119AC0E90031C0E9C3
:104EF000024206B0BDE8F09FCBF10000DFE70446B8
:104F00000021404A491842EB0450CDE9001012E05C
:104F1000E00707D032463B4640464946FBF799FA40
:104F20008046894632463B4610461946FBF791FAC1
:104F300006460F466410002CEAD1DDE90401DDE9E4
:104F40000023BAF1000F06DAFBF783FA42464B461C
:104F5000FBF77FFA05E0FBF7EEFA42464B46FBF71C
:104F6000EAFA04460E460022284BFBF76BFB03D8F7
:104F70004FF0FF30014607E00022254B2046314626
:104F8000FBF7C0F9FBF746FB102409E0002C0ADB15
:104F90000A220023FBF73EF9039B30321A55641EA8
:104FA00050EA0102F2D1641C039AC4F111031444C3
:104FB000119A012A03D0012208430DD10AE00843C7
:104FC00004D000204FF0110B119072E7A3EB0B05FA
:104FD0006D1E0DE05B4504DD4FF0000205F101059B
:104FE00004E003DA4FF00002A5F10105002AECD03D
:104FF00002981199C0E90231C0E9004579E7000043
:10500000000014400000F03F300000000000F043BA
:105010000000E03F2DE9FF4F95B09A4688460646CE
:105020000025EEE1252877D100242746F94A012101
:10503000039400E0044316F8013F203B01FA03F01B
:105040001042F7D130782A2811D06FF02F03307832
:10505000A0F13002092A16D8039A44F0020402EBA8
:10506000820203EB42021044761C0390EFE758F8EB
:10507000042B0392002A03DA504244F400540390B4
:1050800044F00204761C30782E2816D116F8010F51
:1050900044F004042A280DD06FF02F023078A0F1DC
:1050A0003003092B09D807EB870302EB4303C7182A
:1050B000761CF3E758F8047B761C30786C280FD008
:1050C00006DC4C2817D068280DD06A2814D104E0DB
:1050D000742810D07A280FD10DE044F400140AE0AF
:1050E00044F4801401E044F440147278824202D106
:1050F00004F58014761C761C307866280BD013DCFF
:10510000582877D009DC002875D04528F6D04628E5
:10511000F4D047281AD193E118E0632835D06428E9
:1051200079D0652812D18BE1702873D008DC67280C
:10513000F1D069286FD06E280DD06F2806D1ACE071
:1051400073282CD0752874D0782853D052461799DC
:1051500090476D1C54E1C4F30250022809D0032883
:105160000DD0D8F8001004280DD00D6008F1040807
:1051700046E1D8F80010EA17C1E90052F6E7D8F87E
:1051800000100D80F2E70D70F0E718F8041B8DF8A1
:10519000001000208DF80100EB46012003E058F8D4
:1051A00004BB4FF0FF3061074FF0000102D40DE067
:1051B00009F101018946B9420FDA8145F8DB1BF894
:1051C00009100029F4D108E009F101018946814262
:1051D000FADB1BF809100029F6D103985346A0EB1F
:1051E000090721463846179A00F080FA284400EB58
:1051F000090507E044E008E10DE01BF8010B524609
:1052000017999047B9F10109F7D25346214638461C
:10521000179AF2E039E00A21C4F302524FF0000B72
:105220000091022A06D058F8040BC117032A09D0AE
:105230000AE023E008F1070020F00702F2E802018B
:10524000904605E000B2C117042A01D140B2C1174F
:10525000002906DA0A460021404261EB02012D22B4
:1052600002E0220504D52B228DF80420012203E060
:10527000E20701D02022F7E7914657E00A2100E03B
:1052800010214FF0000B00910BE010214FF0000BAC
:1052900044F004040827009103E008204FF0000BBD
:1052A0000090C4F30252022A05D058F8040B0021E2
:1052B000032A08D008E008F1070020F00702F2E80E
:1052C0000201904603E080B2042A00D1C0B24FF040
:1052D000000922072AD53278702A07D0DDF800C0ED
:1052E0008CF0100C5CEA0B0C05D00EE040228DF81F
:1052F0000420012208E050EA010306D030238DF893
:1053000004308DF8052002229146009B83F00803AB
:1053100053EA0B030AD150EA010201D1620705D515
:1053200030228DF804204FF001097F1E3278582A70
:1053300004D039A20C920CAA02920BE03BA2F9E72E
:105340005B46009AFAF766FF0C9B9B5C029A521E22
:105350000292137050EA0102F2D1029804A9081ACD
:1053600000F1200B600702D524F4803400E001270F
:105370005F4502DDA7EB0B0000E0002000EB0B0116
:10538000009003984944401A0390E00306D4534622
:105390002146179A039800F0A9F90544002706E072
:1053A00001A85246C05D179990476D1C7F1C4F4560
:1053B000F6DBE0030CD553462146179A039800F01C
:1053C00095F9054404E030205246179990476D1C2A
:1053D0000099481E00900029F5DC08E00298029927
:1053E00052460078491C0291179990476D1CBBF1F9
:1053F0000001ABF1010BF1DC5BE100F065F9054464
:10540000761C307800287FF40DAE19B02846BDE830
:10541000F08F00000928010030313233343536373F
:1054200038396162636465660000000030313233F0
:105430003435363738394142434445460000000090
:10544000600700D4062708F1070020F00700F0E805
:105450000223804603F0004C5FEA0C0001D097A0C5
:1054600009E0200501D596A005E0E00701D095A050
:1054700001E0AFF24C001390307823F00043652830
:105480000CD006DC452809D046281DD047287FD1FE
:105490003BE0662818D067287AD136E00021112F2A
:1054A00001DB112000E0781CCDE9000104A90CA863
:1054B000FFF7EEFCDDE90D010C9A4FF0000B07F150
:1054C0000109109200914EE04FF000400097CDE9A5
:1054D000011004A90CA8FFF7DBFCDDE90D020C9B11
:1054E0000F994FF0000B91461093009211B9791C5F
:1054F00000EB0109B7EB090003D4C0F1FF3B07F152
:105500000109A9EB0700019042E0012F00DA012711
:105510000021112F01DD112000E03846CDE9000106
:1055200004A90CA8FFF7B4FCDDE90D010C9A009169
:105530004FF0000BB946109221070FD4009A4A454C
:1055400003DA914601E0A9F10109B9F1010F05DD86
:10555000109AA9F10101515C3029F4D0B84202DA65
:1055600010F1040F03DA0121CDE9011010E0002849
:1055700003DC8344A9EB000102E0411C494500DD46
:105580008946A0EB0B00401C01904FF000400290B8
:10559000200705D40198484502DB4FF0FF30019009
:1055A00000208DF84B0002980DF14B07B0F1004F31
:1055B00025D002200C902B200D90029800280CDAA8
:1055C000404202902D200D9007E00A210298FAF740
:1055D00064FE3031029007F8011D0C99481E0C90B2
:1055E0000029F2DC02980028EFD1791E0D9808708E
:1055F000307800F0200040F0450007F8020D11A8B7
:10560000C01BC01D02901398007800B1012000EB70
:105610000901019801EBE071029801440398401AD6
:10562000401E0390E00306D453462146179A039880
:1056300000F05CF805441398007818B152461799A9
:1056400090476D1CE00323D553462146179A0398D3
:1056500000F04CF805441BE0BBF1000F07DB00989D
:10566000584504DD1098179910F80B0001E01799C0
:1056700030205246904701980BF1010B401E05F176
:105680000105019004D12E205246179990476D1CB8
:10569000B9F10001A9F10109DEDC05E017F8010B01
:1056A0005246179990476D1C0299481E0290002996
:1056B000F4DC53462146179A03989EE62D0000001D
:1056C0002B000000200000002DE9F04104460025D9
:1056D0001E461746880404D405E039462020B0470A
:1056E0006D1C641EF9D52846BDE8F0812DE9F04116
:1056F000044600251E469046C80301D5302700E029
:105700002027880404D505E041463846B0476D1C83
:10571000641EF9D52846BDE8F0814A68002A06D003
:105720000A68531C0B6010704868401E4860704740
:1057300012494FF000600860BFF34F8FBFF36F8FC7
:1057400062B6FCF74FFEFEF7D6FDFEF733FCFEF720
:10575000E3FBFEF745FBFEF799FBFEF703FCFEF7C4
:1057600061FCFEF787FCFEF713FDFEF745FDFEF733
:1057700077FDFEF7E9FC00F003F8FEE708ED00E036
:1057800008B521481F4900684160204981602049CF
:10579000C160012101704FF4FA7141807F211D48E1
:1057A000FBF79AF91CA000F0CBF91F4D1FA06A88E7
:1057B000298800F0C5F9244800F018FA0120FCF708
:1057C0000FFA7F211348FBF787F97F211F48FBF76A
:1057D00083F91E48FBF7A6FC0E48FBF7A3FC1C4808
:1057E000FDF7D6FD1B4CA06800906A8829881AA096
:1057F000636800F0A5F9144800F0F8F96420FCF79C
:10580000EFF9F0E73C0200201C00002028010020F6
:10581000653F000850000020757361727431206983
:1058200073204F4B210D0A00980700206F666673A6
:1058300065745F613D25642C6F66667365745F6295
:105840003D25640D0A00000088020020BC000020F5
:10585000F00100202C0000206F66667365745F61A4
:105860003D25642C6F66667365745F623D25642C0C
:10587000616463315F76616C75653D25642C61649C
:1058800063325F76616C75653D25640D0A0000002A
:105890007FB5002400250DF10503314AFCF7DCF942
:1058A00000285BD12E4988680A68B0F1005F0DD0EE
:1058B000002002430092C968002009292CD2DFE8A9
:1058C00001F0080B0F13171B1F2327004FF4004094
:1058D000EFE78DF8040021E001208DF804001DE0C1
:1058E00002208DF8040019E003208DF8040015E073
:1058F00004208DF8040011E005208DF804000DE06F
:1059000006208DF8040009E007208DF8040005E06A
:1059100008208DF8040001E08DF80400009911487A
:10592000006882690AB100BE0EE04468008909E09F
:10593000228863884A401A4201D1012504E0401EB2
:1059400080B20C340028F3D1002D07D0002C05D0F4
:10595000A268002A02D06946606890477FBD0000B7
:10596000700700202800002070B506460C46002570
:1059700030688068FCF706FA78B32088C0F30A0123
:105980001F48016021684FF0005202EA81318160B6
:10599000002141608161416101620161C16122793F
:1059A000092A20D2DFE802F005070A0D1013161AA3
:1059B0001D00C16017E00121C16014E00221C16037
:1059C00011E00321C1600EE00421C1600BE005215C
:1059D000C16008E00621C16005E00CE00721C1605C
:1059E00001E00821C1603068621D05498068FCF74C
:1059F00009F910B10025284670BD0125FBE700001C
:105A00004C07002007B5BDF80000BDF8041088421F
:105A100006D3BDF80000BDF80410401A80B20EBDD8
:105A2000BDF80400BDF80010101A084480B20EBD85
:105A30002DE9F04105460F461646002406E0288869
:105A4000394600F077F82880641CA4B2B442F6D33B
:105A5000BDE8F0812DE9FF4105460A9F90461E46AC
:105A6000BDF80400002406E0295C3155414600F0F1
:105A700061F8641CA4B2BC42F6D3BDE8FF812DE9F5
:105A8000F0470646DDE908890D4617469A46002488
:105A90000DE02888514600F04DF83988814208D041
:105AA00018F804102A88B1542880641CA4B24C450C
:105AB000EFD3BDE8F0870000F8B5144D2878002832
:105AC00022D14FF40066A98832466888FFF79AFF12
:105AD000002819D00446B010844200D9044600942E
