:020000040800F2
:10000000180D0020790200080F360008A9310008F9
:100010000D3600085D05000897400008000000004C
:10002000000000000000000000000000653600082D
:100030000D0C0008000000001136000867360008AB
:10004000930200089302000893020008930200083C
:10005000930200089302000893020008930200082C
:10006000930200089302000893020008930200081C
:10007000930200089302000893020008930200080C
:100080009302000800000000930200089302000899
:1000900093020008150C0008210C000893020008C8
:1000A00093020008930200089302000893020008DC
:1000B00093020008930200089302000893020008CC
:1000C00093020008930200089302000893020008BC
:1000D00093020008930200089302000893020008AC
:1000E000930200089302000893020008930200089C
:1000F0009302000893020008930200080000000029
:1001000000000000930200080000000093020008B5
:100110009302000800000000E9360008930200087E
:10012000930200089302000893020008930200085B
:100130009302000800000000000000009302000885
:100140009302000893020008000000000000000075
:10015000000000000000000000000000000000009F
:1001600000000000000000000000000093020008F2
:1001700093020008000000000000000000000000E2
:1001800000000000930200080000000000000000D2
:10019000000000000000000000000000000000005F
:1001A0000000000000000000930200089302000815
:1001B0009302000893020008930200080000000068
:1001C0000000000093020008000000000000000092
:1001D000930200089302000800F002F800F03CF8D7
:1001E0000AA090E8000C82448344AAF10107DA4592
:1001F00001D100F031F8AFF2090EBAE80F0013F0A8
:10020000010F18BFFB1A43F0010318470441000017
:1002100024410000103A24BF78C878C1FAD85207A8
:1002200024BF30C830C144BF04680C607047000070
:100230000023002400250026103A28BF78C1FBD8EF
:10024000520728BF30C148BF0B6070471FB504F08C
:1002500031F81FBD10B510BD00F04BF91146FFF786
:10026000F5FF03F053FF00F069F903B4FFF7F2FF65
:1002700003BC00F06DF900000948804709480047B9
:10028000FEE7FEE7FEE7FEE7FEE7FEE7FEE7FEE746
:10029000FEE7FEE704480549054A064B70470000A3
:1002A000D9360008D901000818070020180D0020D1
:1002B000180900201809002053EA020C00F0698098
:1002C0002DE9F04B4FF00006002B1FBFB3FA83F56A
:1002D00003FA05F424FA05F65E4012BF1643B2FA9B
:1002E00082F502FA05F4C5F120051EBF22FA05FCCD
:1002F00044EA0C04203556EA044C4FEA144418BF73
:10030000641C4FF000084FF00009904271EB030CA1
:1003100039D3002919BFB1FA81F701FA07F6B0FA0B
:1003200080F700FA07F6C7F120071EBF20FA07FC86
:1003300046EA0C062037B6FBF4FCA7EB0507103F96
:1003400007F01F0BCBF120060CFA0BFB2CFA06F67C
:1003500044BFB3460026202FA4BF5E464FF0000BDB
:100360005BEA060C08BF4FF0010B19EB0B09ABFB66
:10037000027C48EB0608C01B06FB02CC0BFB03CC3F
:1003800071EB0C01C1E70B46024641464846BDE809
:10039000F08B13B54FF000004FF00001AFF3008079
:1003A000BDE81C407047032A40F2308010F0030C77
:1003B00000F0158011F8013BBCF1020F624498BFB8
:1003C00011F801CB00F8013B38BF11F8013BA2F155
:1003D000040298BF00F801CB38BF00F8013B11F0D0
:1003E000030300F02580083AC0F0088051F8043B70
:1003F000083A51F804CBA0E80810F5E7121D5CBFDD
:1004000051F8043B40F8043BAFF30080D20724BF0F
:1004100011F8013B11F801CB48BF11F8012B24BFA3
:1004200000F8013B00F801CB48BF00F8012B7047F2
:1004300010B5203AC0F00B80B1E81850203AA0E87F
:100440001850B1E81850A0E81850BFF4F5AF5FEAB3
:10045000027C24BFB1E81850A0E8185044BF18C966
:1004600018C0BDE810405FEA827C24BF51F8043B0D
:1004700040F8043B08BF7047D20728BF31F8023B61
:1004800048BF11F8012B28BF20F8023B48BF00F8F5
:10049000012B70474FF0000200B513469446964674
:1004A000203922BFA0E80C50A0E80C50B1F1200187
:1004B000BFF4F7AF090728BFA0E80C5048BF0CC035
:1004C0005DF804EB890028BF40F8042B08BF704793
:1004D00048BF20F8022B11F0804F18BF00F8012B05
:1004E000704770477047704700487047B406002057
:1004F00070477546FFF7F8FFAE460500694653465C
:1005000020F00700854618B020B5FFF7C3FEBDE810
:1005100020404FF000064FF000074FF000084FF06A
:10052000000B21F00701AC46ACE8C009ACE8C009FB
:10053000ACE8C009ACE8C0098D46704710B5044668
:10054000AFF300802046BDE81040FFF78EBE0000EC
:1005500001491820ABBEFEE726000200FEE730B5D9
:100560000023EFF31081C16272B6C1690024002933
:1005700001D0C4610123818C81B1C168028A0BE082
:100580000D6935B14D6925B10C61838C5B1E838487
:1005900002231831521E92B2002AF1D1C16A81F3AE
:1005A0001088002B03D0418A41F08001418230BD88
:1005B00070B504460D4600262869002807D0206A39
:1005C00018B9608A40F0080060826FF00806EFF307
:1005D0001080E06272B62946204603F01DFE10B17D
:1005E0006869E06106E0286920B901202861A08CD3
:1005F000401CA084E06A80F31088304670BD00285B
:1006000002D090F900007047002070472DE9FF4F9D
:1006100087B004461499A068002804D01BB171B9B2
:10062000D4F8881159B108B1002B05D104F5B47480
:10063000002020606060A0620BB0BDE8F08F94F8ED
:1006400080010A2818D90B2801D0012500E00025D7
:100650000C280BD048F22023207B0090042229464E
:10066000206800F013FA25B1012003E048F21023BE
:10067000F2E7002084F8800100200590D4F888017A
:1006800030B1D4F8840118B1C06808B901200590D0
:1006900000200490059804EB800006904CE00120B7
:1006A0000490059804EBC00B0BF5B87B0025069968
:1006B0000020C1F8680100272CE004EB471808F17E
:1006C000100808F10C0999F800603544082D24D869
:1006D000D8F808A0BAF1080F01D94FF0080AB245BE
:1006E00009D90020029003903246594602A8FFF72C
:1006F0005AFE02A900E059460020C9F80000D8F8C7
:100700001CC001AB52464046E047C9F80060B34404
:100710007F1CFFB2607BB842CFD8082D02D8207B67
:10072000A84209D045F4801000904FF4C2432C2217
:100730000121206800F0AAF90698D0F86801002885
:10074000ADD1D4F88C0100283FF476AF049971B193
:10075000D4F89011814206D900910023172219463E
:10076000206800F093F90120C4F8900164E7D4F800
:1007700090110029FAD08142F8D2089A1144C4F8A5
:1007800090118142F2D9009148F2502317220121A1
:10079000206800F07BF94FE7F8B5044600250127F3
:1007A000002600295BD0A1698818814200D2A0618F
:1007B000606810B1A66101256660E06908B1006853
:1007C00000E0002090B3616AD1B1A16981422DD3CC
:1007D0000125A07C401CC0B2A074617C884200D975
:1007E000A774A661E06848B10020E060E06AA17CDF
:1007F0004171D4E90A01FFF7DBFE17E00120F4E7BD
:10080000217C012912D100EB5001814201D24FF02D
:10081000FF31A069884209D900904FF401431822A2
:100820000121206800F032F902202074206A48B1CA
:10083000006838B1A169814204D9606900B9022514
:10084000676100E06661207A68B1009048F2402359
:1008500019220121206800F019F9267203E0666070
:100860002672A674A661012D0AD1207C022806D129
:100870000096002318221946206800F007F9277413
:100880002846F8BDF0B4049E82680125002A7BD07A
:10089000002B79D090F86C310BB1FE2B27D3D0F818
:1008A00080215AB1D0F888218A4201D9521A00E039
:1008B0000022C0F888210AB9C0F87051D0F8702120
:1008C000AAB9002290F80DC00FE000EB8204D4F822
:1008D000104144B18718247897F830713C4202D116
:1008E000C0F8705103E0521CD2B29445EDD8FE2BF3
:1008F00011D3D0F884218A4201D9511A00E0002195
:10090000C0F88411D0F87021002A45D0002943D1C5
:10091000F0BC00F043B8D0F8741100293CD0002E90
:100920003AD023B190F87921FF2A07D013E0D0F80C
:100930007011002930D0F0BC00F030B84A7C32B1E0
:1009400090F878211AB1FE2280F8792103E005EBB6
:10095000530280F8792190F87921FE2A0AD0521E9C
:1009600012F0FF0180F8791116D180F87931F0BCCE
:1009700000F014B8897C90F8782191420CD180F86D
:100980007931F0BC00F00AB800F5B87005600021BC
:1009900041618161FF214172F0BC70472DE9FF5F29
:1009A0000546D5F868A10AF1050A4FF0000895F848
:1009B0006C01002801D0FE2801D3012000E00020B6
:1009C00003900024A34637E005EB441710373E7B25
:1009D000B044B8F1080F32D8D7F80890B9F1080F31
:1009E00001D94FF00809B14505D9CDF804B0CDF8CB
:1009F00008B001A900E05146C7F80CB0D7F818C0FC
:100A00006B464A463846E047FE60B14504D9324657
:100A100001A95046FFF7C7FC05EB8400D0F8100190
:100A200038B1039929B12A19017892F8302111437C
:100A30000170B244641CE4B2687BA042C4D8B8F12F
:100A4000080F02D8287B40450ED048F400100090D3
:100A50004FF4C2432C220121286800F017F804B09B
:100A60006FF00C00BDE8F09FC5F870B1D5F88011AB
:100A7000C5F88811D5F87C11C5F88411D5F868112E
:100A8000686804B0BDE8F05FFFF792BDF0B5059F60
:100A900000284CD0D40802F007054FF0010C0CFAE6
:100AA00005F5EDB20A2C04D3052401254FF4C24309
:100AB0001746044426782E4011B1002E37D102E0AB
:100AC000002E34D0002343EA0262EFF3108346691C
:100AD000336372B619B121782943217002E021787D
:100AE000A9432170047F022C1DD3437F591CC9B236
:100AF0008C4200D80021847F8C4202D180F81FC034
:100B000011E0846944F833200424826904EBC303B0
:100B1000D7504177027F90F82010521E914202D2A6
:100B2000491C80F820104069006B80F31088F0BDEC
:100B30002DE9F84305460E46904699462868002858
:100B400015D12869FFF75BFD052812D00027002486
:100B500000966520296B604301EB80003B464A46C6
:100B60004146FFF753FD641CA4B2042CF0D3BDE84A
:100B7000F8830127EBE72DE9F04104460E461746BE
:100B800000252068002819D12069FFF738FD7F284B
:100B90000DD005280BD000213B463246E06AFFF716
:100BA000FBFD58B1012804D0022807D103E0012140
:100BB000F2E7012502E06068FFF7D1FC2846BDE8B6
:100BC000F0812DE9F84305460E469046994628687F
:100BD000002817D12869FFF712FD052814D0002737
:100BE0000024009604EB4411686B01EB410100EB1B
:100BF00081003B464A464146FFF744FE641CA4B2CE
:100C0000042CEED3BDE8F8830127E9E7704772B6FC
:100C1000FEE70000014800F03EBD00000401002096
:100C2000014800F038BD00000401002010B515494E
:100C30000164036853F8802F848E22F4F81242EA8C
:100C400004421A600F4A70324264036853F8802FDE
:100C500090F8384022F0706242EA04621A60094A51
:100C6000B0328264084AC264074AD8320265064A32
:100C7000F0324265002001F5547200E001C191425A
:100C8000FCD310BD00A4004088A50040F0B5D1E918
:100C900001650C692C430D68002E19D045F0804584
:100CA0002C43D1E90665354391F820704E6946EA38
:100CB000076635438E8945EA0645406D03EBC3035D
:100CC00000EBC3031C605D60083300200B4E0FE097
:100CD00044EA8544E5E71418155CE77845EA0765BA
:100CE000A77864783F0447EA0424254320C3001D05
:100CF000CC68345D8442EED8F0BD0000BE420008EE
:100D00002DE9F0479CB004460D464FF0000994F8D9
:100D1000580001280DD0012084F8580000261896AC
:100D2000199620684FF0A0482D4F404505D10197F6
:100D300004E002201CB0BDE8F0870196019840B1A4
:100D4000019802F044FA8246206802F040FA40B16D
:100D50000AE0E06D40F02000E06584F85860012072
:100D6000E8E7BAF1000F09D0E06D40F02000E0653F
:100D70004FF0010984F858604846DBE719482968B4
:100D800040F61F72D1B1816894F8383021F4604187
:100D900041EA43316B6819438160D8F80810C1F308
:100DA0000001BB68C3F300031943E3D1AB682968B2
:100DB00019438368934319438160DBE7816821F419
:100DC00060418160D8F80810C1F30001BB68C3F32B
:100DD00000031943CED1816891438160CAE70000C6
:100DE00000010050000300502DE9F84F04460D4665
:100DF000002600270097DFF8F49394F858000128A4
:100E000011D04FF0010884F85880206802F0DBF917
:100E100058B1E06D40F02000E065012684F858707C
:100E20003046BDE8F88F0220FBE7A98820682A68D1
:100E300001F4407300EB9310036B01F01F014FF0BE
:100E40001F0C0CFA01FCC2F3846223EA0C038A40F3
:100E500013430363206802F0B6F98246206802F06B
:100E6000AAF95AEA000A3CD1AA68B2F1004F39D077
:100E70002968206802F0AFF92068416921F000413B
:100E8000416120686A69C168C1F3C10149008A40B3
:100E90002969042934D02B6800EB8100016EDFF84A
:100EA00050C303F0F84301EA0C011343194341F026
:100EB0000041016620682A69A96900EB8200026E80
:100EC00022F080720A430266297F20682A6901297C
:100ED00013D0002100EB8200026E22F000720A4360
:100EE00002667CE029680022206802F074F920681C
:100EF000416941F000414161C3E74FF00071E9E70A
:100F0000002102F052F940036ED00021206802F067
:100F10004CF990FAA0F0B0FA80F1286842036AD048
:100F200090FAA0F0B0FA80F0814204D1002211467C
:100F3000206802F05FF90121206802F036F94003D1
:100F40005CD00121206802F030F990FAA0F0B0FAEC
:100F500080F12868420358D090FAA0F0B0FA80F0EF
:100F6000814204D100220121206802F043F90221CC
:100F7000206802F01AF940034AD00221206802F0EA
:100F800014F990FAA0F0B0FA80F12868420346D034
:100F900090FAA0F0B0FA80F0814204D10022022140
:100FA000206802F027F90321206802F0FEF84003D0
:100FB00038D00321206802F0F8F890FAA0F0B0FAD7
:100FC00080F12868420334D090FAA0F0B0FA80F0A3
:100FD000814204D100220321206802F00BF920682D
:100FE00002F0EDF840B3B0E00021206802F0DDF837
:100FF000C0F3846191E7C0F3846095E70121206824
:1010000002F0D3F8C0F38461A3E7C0F38460A7E7DC
:101010000221206802F0C9F8C0F38461B5E7C0F38B
:101020008460B9E70321206802F0BFF8C0F384614F
:10103000C7E7C0F38460CBE720682A7B296850F8B3
:10104000B03FC1F3120C23EA0C0302F0180C694AFA
:1010500022FA0CF20A4013430360E868484574D151
:101060002868410319D090FAA0F1B1FA81F1491C26
:1010700001F01F01092931D84103002910D090FA4D
:10108000A0F1B1FA81F101F1010101F01F0108FAAB
:1010900001F808D1C0F3846109E0C0F38461E6E798
:1010A000C0F38461EFE790FAA0F1B1FA81F101F1A8
:1010B000010101F01F0148EA816102D1C0F384609F
:1010C00003E090FAA0F0B0FA80F000F1010000F027
:1010D0001F0000EB400041EA005132E04FEA40318E
:1010E00000290DD090FAA0F1B1FA81F101F10101CE
:1010F00001F01F0108FA01F805D1C0F3846106E090
:10110000C0F38461F2E790FAA0F1B1FA81F101F144
:10111000010101F01F0148EA816102D1C0F384603E
:1011200003E090FAA0F0B0FA80F000F1010000F0C6
:101130001F00A0F10A0000EB400041EA005040F01F
:101140000071AA68206802F046F82B48296801421D
:101150003FF464AE294A906800F0E070284B994251
:1011600002D0284B99421FD103021DD42168B1F14E
:10117000A04F7FF453AE40F40000916821F0E0717D
:1011800001439160204821490068B0FBF1F0401C08
:1011900000EB40008000009002E00098401E0090AC
:1011A00000980028F9D139E6194D1A4BA9420CD103
:1011B000C5010AD421689942F5D040F08070916849
:1011C00021F0E0710143916028E6134DA942EAD174
:1011D0004102E8D421689942E5D040F4800091684A
:1011E00021F0E0710143916018E6000000007F40AB
:1011F00000F0FF03FFFF070000000880000300501D
:10120000000021C31000C09010000020400D03001A
:10121000000052C700010050000084CBF8B504461E
:10122000002500260096002C02D0E06D10B107E0EA
:101230000120F8BD204600F0F1F8266684F85860D9
:1012400020688168C1F3407119B181686C4A11400E
:10125000816020688168C1F30071A1B98168694A21
:10126000114041F080518160674868490068B0FBD7
:10127000F1F0401C4000009002E00098401E0090F9
:1012800000980028F9D120688168C1F3007141B944
:10129000E16D41F01001E165216E41F0010121662F
:1012A000012501F090FFE16DC90600D430B1E06D79
:1012B00040F01000E06501252846F8BDE06D20F4FF
:1012C000807040F00200E065206801F078FF88B986
:1012D0004FF0A0408068C0F300004D498968C1F319
:1012E0000001084306D160684A498A6822F47C12EA
:1012F00002438A60E168E06B627F0843A16841EACB
:101300004231084394F8241040EA0140012903D1F6
:10131000218D491E40EA4140E16A29B101F478710A
:10132000226B014342EA01002168CA683A4B1A4025
:101330000243CA6020680169626B21F04061114379
:101340000161206801F037FF80BB207F94F83810DE
:10135000800340EA41012068C26844F202039A43D4
:101360000A43C260206968B12068016941F4803194
:101370000161206850F8C01F22696FF30D0111430D
:1013800001600AE02068016921F480310161206870
:1013900050F8C01F6FF30D01016094F84000012860
:1013A00013D02068016921F0010101616069012801
:1013B0001CD02068016B21F00F010163E06D20F06B
:1013C000020040F00100E06576E7D4E91110014326
:1013D000D4E91302104301432068026940F2FC7310
:1013E0009A43114341F001010161DFE72068016B7D
:1013F000226A21F00F01521E11430163DEE7000053
:10140000C0FFFF5FC0FFFF7F10000020400D030002
:1014100000010050000300500740F0FF2DE9F041AB
:1014200098B00446142113A8FFF734F8442102A809
:10143000FFF730F84FF40040216800258203DFF801
:10144000BC8003262E4C4FF09047B1F1A04F12D034
:101450002C4B994236D10290119202A800F0BAFDAD
:1014600008B1FFF7D4FBD8F80010491CC8F80010E9
:1014700001292AD031E00290119202A800F0AAFDC1
:1014800008B1FFF7C4FBD8F80010491CC8F80010D9
:10149000012907D1E06C40F40050E064E06C00F4F6
:1014A00000500190E06C40F00100E064E06C00F05E
:1014B00001000190012013901496159513A9384648
:1014C00000F022FB18B0BDE8F081E06C40F4005061
:1014D000E064E06C00F400500190E06C40F001002A
:1014E000E064E06C00F0010001900220139014967B
:1014F000159513A9384600F007FBE3E7000000202C
:10150000001002400001005070B5044694F85C00E1
:10151000022805D0206E40F008002066012070BD32
:101520002068D0F8C4309B0205D5206E40F40070CE
:101530002066012070BDD0F8C400C0F301452B46E1
:101540002046FFF7A3FB21680120A840C1F8CC008A
:10155000A065002070BD704770470000F0B590F89E
:101560005C40022C05D0016E41F0080101660120AB
:10157000F0BD402943D00468D4F898502D0760D0BE
:10158000D4F89850C5F30125D4F89860F60106D533
:10159000D4F88040E40502D56D1C05F00305C46C49
:1015A00005EBC50604EBC606346804F080445460BD
:1015B000ECB3346824F060441460346804F00054E0
:1015C0009460346804F000441461B488A4B2D46117
:1015D0007468C4F30344D460746804F480145461E0
:1015E000746804F4001494617468C4F306641462AB
:1015F00074680836E40F54620024224F31E0046816
:10160000D4F890502D0716D0D4F89050C5F301258A
:10161000D4F89060F60106D5D4F88040A40502D530
:101620006D1C05F0030505EBC506846C00E00EE0BB
:1016300004EBC606B8E7016E41F480710166012033
:10164000F0BD016E41F4807101660120F0BD346887
:10165000C4F38A441460B0E716F804C003F804C069
:10166000641CD2F80CC017F80CC0A445F4D840296B
:1016700004D00068C0F89C500020F0BD0068C0F89D
:101680009450F9E7BE4200080068D0F8C40000F0AA
:101690000700704770472DE9F05F04462068016D30
:1016A00001F4E051D0F8548008EA0108016D01F01E
:1016B0000701D0F8549009EA0109016D01F03801E1
:1016C000D0F854A00AEA010A016D01F47101476DD6
:1016D0000F40016D01F46021D0F854B00BEA010B0A
:1016E000456D016DCE43710607D4E943490604D424
:1016F000402101652046FFF7CDFFF0050ED4E843F9
:10170000C0050BD42068D0F8D820D0F8E0101140E4
:101710004FF480720265204600F0C6F9B8F1000F60
:1017200006D02068C0F850804146204600F0EAF913
:10173000B9F1000F06D02068C0F850904946204605
:1017400000F0A2F9BAF1000F06D02068C0F850A04E
:101750005146204600F09FF9B00509D4E8438005C2
:1017600006D421684FF400700865204600F0CBF9DC
:1017700030060DD4E84300060AD42068D0F8D420FF
:10178000D0F8DC10114080220265204600F08EF96E
:10179000B00409D4E843800406D421684FF4005013
:1017A0000865204600F07FF9300409D4E8430004BE
:1017B00006D421684FF400400865204600F072F915
:1017C00070040AD4E843400407D421684FF48040F1
:1017D0000865206E40F080002066BBF1000F06D047
:1017E0002068C0F850B059462046FFF7B5FE27B133
:1017F00020680765206E38432066206E002802D0DE
:101800002046FFF7A8FEBDE8F09F00002DE9F04755
:101810000446002C07D0724F4FF4407994F85C00D6
:10182000002618B107E00120BDE8F08784F85D606C
:10183000204600F0D9F82068816921F0100181610B
:1018400000F03EFA05464FF003080CE000F038FACD
:10185000401B0A2807D9206E40F00100206684F85A
:101860005C800120E0E7206880690007EED42068F2
:10187000816941F00101816100F022FA05460CE026
:1018800000F01EFA401B0A2807D9206E40F0010024
:10189000206684F85C800120C6E720688069C00764
:1018A000EED02068816941F0020181612068B84270
:1018B00002D14C4960680860207C012839D020683A
:1018C000816941F040018161607C012837D0206846
:1018D000816921F480418161A07C012835D0206894
:1018E000816941F48051816120688169A26821F495
:1018F0004071114381612068816921F0A4018161F7
:101900002068016921F010010161E068012822D0FE
:1019100030B302282BD02068816941F080018161B9
:101920002068016941F010010161E068032818D0C6
:1019300022E02068816921F040018161C4E72068CC
:10194000816941F480418161C6E72068816921F4A1
:1019500080518161C8E72068816941F0040181619B
:101960000AE02068816941F02001816104E020687B
:10197000816941F020018161207E401E4106E069BD
:10198000401E41EA0020216A491E0843A18A491EDF
:1019900040EA01402168C861A06848450FD1A06AAB
:1019A000E16A401E491E40EA0121206B401E41EAC7
:1019B0000011A08C401E41EA00402168C8602068E8
:1019C00050F8C01FE26B114301602046FFF72EF96B
:1019D000A6652666012084F85C00002024E700004C
:1019E000006400400065004010B598B00446142122
:1019F00013A8FEF74FFD442102A8FEF74BFD1F4937
:101A00002068884238D18014029040030E9002A8CA
:101A100000F0E0FA08B1FFF7FAF81948816D41F0DB
:101A200000718165816D01F000710191C16C41F01F
:101A30000201C164C06C00F0020001904FF44070DC
:101A400013900220149000201590169009201790F2
:101A500013A90C4800F058F800221146152000F098
:101A600099F9152000F088F900221146162000F09F
:101A700091F9162000F080F918B010BD0064004004
:101A80000010024000040048CA0703D00A46402163
:101A900002F056BB70470A0703D50A46412102F0FF
:101AA0004FBB704770477047704700002DE9F04109
:101AB000134E002730680762C761818C00291DD052
:101AC000C468EFF31081C16272B6058A10E0206924
:101AD00058B12146306802F09FFB58B12761306849
:101AE000818C491E81846169C1616D1EADB218345B
:101AF000002DECD13068C06A80F31088BDE8F08119
:101B000028000020704770472DE9F84F0022DFF8C9
:101B100090914FF0010803274FF00F0C09F1040AD0
:101B2000A9F1040BB4E008FA02F52B40002B6ED0AB
:101B30000C7904F00304012C01D0022C15D1866825
:101B4000540007FA04FE26EA0E06D1F80CE00EFA5D
:101B500004FE4EEA060EC0F808E04468AC430D7976
:101B6000C5F300159540254345600C79E443A4076F
:101B700002D18C68012C08D0C568540007FA04F61D
:101B8000B5438E68A6402E43C6600C7904F003046A
:101B9000022C11D1D40800EB8406356A5407E40EF8
:101BA0000CFA04FE25EA0E05D1F810E00EFA04FE48
:101BB0004EEA050EC6F820E00568540007FA04F660
:101BC000B5430E7906F00306A6402E4306604C6826
:101BD00014F4403F5BD0334C256E45F0010525667B
:101BE000246E04F0010400942F4C22F003052E19FA
:101BF000B56894074FEA147E0CFA0EF4A543B0F1D1
:101C0000904F05D0294CA04204D1012417E03EE0BA
:101C1000002414E0264CA04201D102240FE0254C00
:101C2000A04201D103240AE0234CA04201D10424A4
:101C300005E0224CA04201D1052400E0062404FA6C
:101C40000EF42C43B460D9F800409C434D68ED027B
:101C500000D51C43C9F80040DAF800409C434D68A9
:101C6000AD0200D51C43CAF80040DBF800409C439D
:101C70004D68AD0300D51C43CBF80040084D083D2E
:101C80002C689C434E68F60300D51C432C60521C04
:101C90000B6833FA02F47FF446AFBDE8F88F00001A
:101CA0000804014000100240000001400004004808
:101CB00000080048000C00480010004800140048CC
:101CC00001488068704700000400002002488168D5
:101CD00042681144816070470400002010B5002460
:101CE000032000F077F80F2000F008F808B1012475
:101CF00001E000F029F8204610BD000070B505464F
:101D000000240F4E7068002817D04FF47A71B1FB91
:101D1000F0F00C490968B1FBF0F000F0BDFE08B12D
:101D200001240BE0102D06D200222946501E00F09F
:101D300031F8356002E0012400E00124204670BD46
:101D4000040000201000002082B00A48016E41F01B
:101D500001010166016E01F001010191816D41F007
:101D600080518165806D00F08050019002B000F0DC
:101D700029B9000000100240002809DB00F01F0212
:101D8000012191404009800000F1E020C0F80011DD
:101D900070470000F0B40D460D4B1B68C3F30223DF
:101DA000C3F10704042C00D90424191D072901D20A
:101DB000002300E0DB1E012606FA04F1491E29403B
:101DC00099409E40761E16403143F0BC02F064B943
:101DD0000CED00E000F00701054A10684FF6FF0324
:101DE000184040EA01200349084310607047000092
:101DF0000CED00E00000FA0501680122C0F8D022D5
:101E0000002280F8C82231F8540F40F00100088009
:101E1000088840F0020008800020704770B5044632
:101E2000002C04D094F89102002510B106E00120A6
:101E300070BD84F89052204600F03AF8032084F8F0
:101E40009102206802F01FF9002101260BE001EB4E
:101E5000810004EBC00046740174C57405624562DC
:101E60008562491CC9B220798842F0D800210DE072
:101E700001EB810004EBC00000F5A8704570017013
:101E8000C570056145618561491CC9B220798842E8
:101E9000EED894E8070002F0EDF8257384F891621B
:101EA000A07A012802D12046FFF7A6FF002070BDCE
:101EB00010B592B00446442101A8FEF7EBFA0C4994
:101EC0002068884212D14014019000200E9001A891
:101ED00000F080F808B1FEF79AFE0648816D41F4E3
:101EE00000018165806D00F40000009012B010BD0B
:101EF000005C0040001002402F49304B0A6832213C
:101F00004A432F4900280AD0B0F5007F2DD0086839
:101F100020F4C06040F480600860002070470868CA
:101F2000C0F34120022805D051F8800F20F48070C2
:101F30000860F2E7D1F8800020F48070C1F88000DA
:101F4000086820F4C06040F400700860B2FBF3F051
:101F5000401C00E0401E4A69520501D50028F9D115
:101F600048694005D9D5032070470868C0F341206F
:101F7000022805D051F8800F40F480700860CCE74B
:101F8000D1F8800040F48070C1F88000086820F427
:101F9000C06040F400700860B2FBF3F0401C00E049
:101FA000401E4A69520501D50028F9D1486940050B
:101FB000B3D50320704700001000002040420F00FE
:101FC000007000400248816841F4804181607047A0
:101FD000007000402DE9F84F0446002600272068D5
:101FE000A04D000366D54FF00008A86DC00009D4CD
:101FF000A86D40F08050A865A86D00F0805000905A
:102000004FF00108DFF860A2DAF8000040F48070B9
:10201000CAF80000FFF754FE814607E0FFF750FEC4
:10202000A0EB0900022801D9032603E0DAF800003A
:10203000C005F3D526B13746B8F1010F36D039E0E7
:10204000D5F8900000F4407080B1216C81420DD031
:1020500055F8900F20F44070296841F480312960D0
:10206000296821F48031296045F89009C00711D012
:10207000FFF726FE814641F2883A07E0FFF720FE8F
:10208000A0EB0900504501D9032603E0D5F89000E4
:102090008007F3D50EB13746CEE7D5F89000216C16
:1020A00020F440700843C5F89000C5E7A86D20F003
:1020B0008050A8652078C00707D0D5F888006168EF
:1020C00020F003000843C5F888002078800707D572
:1020D000D5F88800A16820F00C000843C5F88800F6
:1020E0002078400707D5D5F88800E16820F0300057
:1020F0000843C5F888002078000707D5D5F8880080
:10210000216920F0C0000843C5F8880020788006C7
:1021100007D5D5F88800616920F440600843C5F808
:1021200088002078400607D5D5F88800A16920F4FA
:1021300040500843C5F888002078000607D5D5F838
:102140008800E16920F440400843C5F888002088F1
:10215000C00507D5D5F88800216A20F4403008432F
:10216000C5F888002088800507D5D5F88800616A01
:1021700020F440200843C5F88800208840050FD58A
:10218000D5F88800A16A20F440100843C5F88800FB
:10219000A06AB0F5801F03D1E86840F48010E860C1
:1021A000208800050FD5D5F88800E16A20F44000AA
:1021B0000843C5F88800E06AB0F5800F03D1E868ED
:1021C00040F48010E8602088C0040FD5D5F888005E
:1021D000216B20F040700843C5F88800206BB0F1F7
:1021E000807F03D1E86840F48010E86020884FF0D9
:1021F000006180040ED5D5F88800626B20F0406045
:102200001043C5F88800606B884203D1E86840F449
:102210008010E860208840040ED5D5F88800A26BB5
:1022200020F040601043C5F88800A06B884203D1BD
:10223000E86840F48010E860208800040FD5D5F8E5
:102240008800E16B20F040500843C5F88800E06B3F
:10225000B0F1805F03D1E86840F48030E860384630
:10226000BDE8F88F00100240007000402DE9F047F3
:1022700004460D460027002C17D0DFF8A091D9F8AE
:10228000000000F00F00A84211D2D9F8000020F0A1
:102290000F002843C9F80000D9F8000000F00F0033
:1022A000A84204D00120BDE8F0870120FBE7207898
:1022B0005B4EC00741F2883A4ED06068DFF8648117
:1022C000032806D002281ED03068400520D4012003
:1022D000E9E73068800101D40120E4E701F09AF9D0
:1022E000404520D9B06810F0F00F04D02078800766
:1022F00019D5A068B8B9B06820F0F00040F08000AF
:10230000B06080270FE03068800301D40120CAE765
:1023100000F0BAF8404506D9B06820F0F00040F06F
:102320008000B0608027B068616820F00300084337
:10233000B060FFF7C5FC804607E0FFF7C1FCA0EBEB
:102340000800504501D90320ADE7B068616800F08E
:102350000C00B0EB810FF0D12068810715D5400744
:1023600003D5B06840F4E060B0602078000705D580
:10237000B06820F4605040F4E060B060B068A168DC
:1023800020F0F0000843B06005E0802F03D1B06872
:1023900020F0F000B060D9F8000000F00F00A84273
:1023A00017D9D9F8000020F00F002843C9F8000021
:1023B000FFF786FC074606E0FFF782FCC01B50458E
:1023C00001D903206FE7D9F8000000F00F00A84200
:1023D000F2D12078400705D5B068E16820F4E060CC
:1023E0000843B0602078000706D5B068216920F462
:1023F000605040EAC100B06000F046F8B1680A4A97
:10240000C1F30311515C01F01F01C8400749086086
:1024100007480068BDE8F047FFF770BC00200240A5
:102420000010024000B4C404F6420008100000206E
:1024300004000020014800687047000010000020E0
:1024400000B5FFF7F7FF05498968054AC1F3022186
:10245000515C01F01F01C84000BD000000100240A7
:102460000643000800B5FFF7E5FF05498968054AFE
:10247000C1F3C221515C01F01F01C84000BD000042
:10248000001002400643000810B51A4A9068C0F3D5
:102490008101194801290BD091684410C1F38101D1
:1024A000022906D09168C1F38101032903D00020DD
:1024B00010BD204610BDD16801F00303D168C1F3FF
:1024C0000311491C032B0DD0B0FBF1F0D168C1F30F
:1024D00006214843D168C1F34161491C4900B0FB62
:1024E000F1F010BDB4FBF1F0D168C1F3062148430F
:1024F000F0E70000001002400024F4002DE9F8434A
:102500000446002C0CD02078FE4DC00752D0A8689D
:1025100000F00C00E96801F003010C2803D004E08E
:102520000120BDE8F883032916D0082814D060687C
:10253000B0F5803F17D0B0F5A02F19D0286820F44F
:1025400080302860286820F480202860606818B3F4
:10255000FFF7B6FB06461BE0286880032AD56068B3
:1025600040BB0120DDE7286840F480302860EDE7BB
:10257000286840F480202860286840F48030286073
:10258000E4E7FFF79DFB801B642801D90320C8E71F
:1025900028688003F5D50DE0FFF792FB064606E0BC
:1025A000FFF78EFB801B642801D90320B9E7286858
:1025B0008003F5D4207880074ED5A86800F00C0081
:1025C000E96801F003010C2801D102290BD004288D
:1025D00009D0E06870B3286840F480702860FFF785
:1025E0006FFB06461BE02868400501D5E06868B12E
:1025F0006868217C20F0FE4040EA01606860C248C3
:102600000068FFF77BFB38B301208AE7012088E7E9
:10261000FFF756FB801B022801D9032081E72868B9
:102620004005F5D56868217C20F0FE4040EA016055
:10263000686011E0286820F480702860FFF740FB94
:10264000064606E0FFF73CFB801B022801D9032069
:1026500067E728684005F5D4207800072CD5606925
:10266000A8B1D5F8940040F00100C5F89400FFF738
:1026700027FB064606E0FFF723FB801B022801D953
:1026800003204EE7D5F894008007F4D514E0D5F880
:10269000940020F00100C5F89400FFF711FB0646F6
:1026A00006E0FFF70DFB801B022801D9032038E765
:1026B000D5F894008007F4D4207840076FD54FF008
:1026C0000008A86DC00009D4A86D40F08050A8652E
:1026D000A86D00F0805000904FF001088B4E3068DC
:1026E000C00511D4306840F480703060FFF7E8FA1C
:1026F000074606E0FFF7E4FAC01B022801D90320D1
:102700000FE73068C005F5D5A068012813D005286B
:1027100018D055F8900F20F001002860286820F0AC
:10272000040045F89009A06841F2883608B3FFF725
:10273000C7FA074618E0D5F8900040F00100C5F848
:102740009000F0E755F8900F40F0040028602868EA
:1027500040F0010045F89009E5E7FFF7B1FAC01B2A
:10276000B04201D90320DCE6D5F890008007F4D50B
:102770000EE0FFF7A5FA074606E0FFF7A1FAC01B37
:10278000B04201D90320CCE6D5F890008007F4D4FC
:10279000B8F1010F03D1A86D20F08050A865207812
:1027A00080062CD5A069A8B1D5F8980040F00100AA
:1027B000C5F89800FFF784FA064606E0FFF780FAAE
:1027C000801B022801D90320ABE6D5F898008007CA
:1027D000F4D514E0D5F8980020F00100C5F8980071
:1027E000FFF76EFA064606E0FFF76AFA801B02283A
:1027F00001D9032095E6D5F898008007F4D4E06964
:10280000F0B3A9684FF0FF37C1F3810103295ED00F
:10281000022807D0286820F080702860FFF750FA5F
:1028200004464CE0286820F080702860FFF748FAE2
:10283000064606E0FFF744FA801B022801D9032070
:102840006FE628688001F5D454F8201F6068228A5A
:10285000401E41EA0010A16807EB5202090241EA5A
:1028600042510843217D07EB510140EA4160217B41
:1028700040EAC160E968264A11400843E86000E088
:1028800062E0286840F080702860E86840F080705E
:10289000E860FFF715FA044606E0FFF711FA001B9F
:1028A000022801D903203CE628688001F5D54BE0D9
:1028B000FFF706FA001B022801D9032031E6286839
:1028C0008001F5D4E86813490840E8603CE001283D
:1028D00038D0E868226A00F00301914230D1616A81
:1028E00000F0F002491EB2EB011F29D1A26A00F4E8
:1028F000FE41B1EB022F23D100F0784194F82C2057
:102900000AE00000001002400400002000700040B7
:102910000C809F01FCFFEEFEB1EBC26F10D1228E46
:1029200000F4C00107EB5202B1EB425F08D194F80A
:10293000341000F0C06007EB5101B0EB416F03D0E1
:102940000120EEE50120ECE50020EAE570B5044643
:10295000002C09D0606A002540B125616561A5623F
:1029600094F85D0040B10CE0012070BD6068B0F5E6
:10297000827FF4D0E561F2E784F85C50204600F0F5
:102980005BF8022084F85D002068016821F04001B6
:102990000160E1684FF4E062914201D9002001E05A
:1029A0004FF48050B1F5706F02D0914200D0A56213
:1029B000A188228901F4827102F404421143227C2D
:1029C00002F002021143227D02F001021143228B28
:1029D00002F400721143227F02F03802114394F88E
:1029E000202002F080021143228D02F40052114394
:1029F00022681160A169042202EA114194F824209E
:102A000000F4805002F01002114394F8342002F0D8
:102A100008021143A28902F4706211430143206845
:102A200041602068C16921F40061C161256601200F
:102A300084F85D00002070BD10B586B004461421F6
:102A400001A8FDF727FD1249206888421ED11148D0
:102A5000016E41F480510166016E01F480510091D4
:102A6000C16C41F00101C164C06C00F00100009034
:102A7000F020019002200290002003900490052095
:102A8000059001A94FF09040FFF73EF806B010BD49
:102A9000003001400010024010B5401EB0F1807FB0
:102AA00001D3012010BD4FF0E02460610F216017B9
:102AB00001F0F2FA0020A06107202061002010BD83
:102AC000704770477047000030B590F83C20012AED
:102AD00042D0012280F83C20CA6800248B6822F48E
:102AE00040721A434B6822F480621A430B6822F446
:102AF00000621A430B6922F480521A434B6922F494
:102B000000521A430B6B22F480421A430B8B22F4BF
:102B1000702242EA0342CB6922F080521A430F4DE1
:102B20000368AB4202D00E4DAB4210D10D8D22F4A2
:102B3000700242EA05520D6A22F080722A434D6A01
:102B400022F000722A43C96A22F000520A435A64F2
:102B500080F83C40002030BD022030BD002C0140F8
:102B6000003401407047704770470000F0B590F89E
:102B70003C20012A34D0012680F83C60022280F8F3
:102B80003D2003685A689C68164FDFF85CC0BB4262
:102B900001D0634503D122F470054A682A43134DDE
:102BA0002A400D6815435D600268BA420DD0B2F14B
:102BB000804F0AD00E4B9A4207D00E4B9A4204D057
:102BC000624502D00C4B9A4204D124F080038968FC
:102BD000194391603C304670002101700020F0BD27
:102BE0000220F0BD002C0140003401408FFFFFFDAA
:102BF000000400400008004000400140704710B54C
:102C00000446002C03D094F83D0010B107E00120E9
:102C100010BD002084F83C00204600F017F8022088
:102C200084F83D00211D206800F064FD01203D3442
:102C3000E0726070A070E07020716071A071E0714E
:102C400020726072A0722070002010BD08B500686C
:102C50000B49884212D10B48816D41F0100181650A
:102C6000806D00F010000090002211463620FFF722
:102C700091F8BDE808403620FFF77EB808BD000097
:102C8000001000400010024070472DE9F04104465A
:102C90002068C66805694FF00007A90714D5B10779
:102CA00012D5F91E01610120207720688069800714
:102CB00003D02046FFF7E8FF05E0204600F01BF9AF
:102CC000204600F055F92777680717D5700715D506
:102CD00021686FF004000861022020772068806975
:102CE00010F4407F03D02046FFF7CEFF05E02046DA
:102CF00000F001F9204600F03BF92777280716D5A8
:102D0000300714D521686FF008000861042020778F
:102D10002068C069800703D02046FFF7B5FF05E0B3
:102D2000204600F0E8F8204600F022F92777E80670
:102D300017D5F00615D521686FF01000086108203E
:102D400020772068C06910F4407F03D02046FFF749
:102D50009BFF05E0204600F0CEF8204600F008F981
:102D60002777E80708D0F00706D021686FF0010048
:102D70000861204600F0FEF8280601D4A80408D512
:102D8000300606D521686FF4025008612046FFF72F
:102D900098FEE80508D5300606D521686FF48070E6
:102DA00008612046FFF78CFE680608D5700606D538
:102DB00021686FF040000861204600F0E7F8A8069F
:102DC00008D5B00606D521686FF0200008612046BE
:102DD000FFF778FEE80208D5F00206D521686FF407
:102DE000801008612046FFF7BEFEA80208D5B00299
:102DF00006D521686FF4001008612046FFF7B2FE87
:102E0000680208D5700206D521686FF48000086159
:102E10002046FFF7A9FE28020AD5300208D521680E
:102E20006FF4000008612046BDE8F041FFF7E6BE00
:102E3000BDE8F08110B586B00446142101A8FDF765
:102E400029FB0F492068884217D10E48C16C41F018
:102E50000101C164C06C00F0010000904FF4E0601B
:102E6000019002200290002003900490062005901B
:102E700001A94FF09040FEF747FE06B010BD0000DC
:102E8000002C01400010024070B50446002594F863
:102E90003C0001280BD0012084F83C000C2A1ED0F5
:102EA00007DC82B1042A12D0082A06D113E00220DE
:102EB00070BD102A17D0142A19D00125002084F8DB
:102EC0003C00284670BD206800F070FCF6E72068E2
:102ED00000F0BEFCF2E7206800F006FDEEE7206897
:102EE00000F04EFDEAE7206800F096FDE6E7206876
:102EF00000F0CAFDE2E7704710B50446002C03D08D
:102F000094F83D0010B107E0012010BD002084F8C6
:102F10003C00204600F018F8022084F83D00211DF6
:102F2000206800F0E7FB01203D34E0726070A07083
:102F3000E07020716071A071E07120726072A07207
:102F40002070002010BD000008B5006806498842C6
:102F500008D10648016E41F400610166006E00F47C
:102F60000060009008BD0000002C014000100240ED
:102F70007047000004490068096849680968884288
:102F800001D101F099B870471C000020704790F8FB
:102F90008410012918D0012180F884102421C0F860
:102FA000881001680A680B6823F001030B6022F0A7
:102FB000005100224266036819602021C0F8881081
:102FC00080F88420002070470220704770B50446C6
:102FD00094F8840001281DD0012084F88400242066
:102FE000C4F8880020680568026822F001020260C7
:102FF0002068826822F060620A438260204600F006
:103000007BFD206805602020C4F88800002084F83B
:10301000840070BD022070BD70B5044694F8840031
:1030200001281DD0012084F884002420C4F88800E1
:1030300020680568026822F0010202602068826848
:1030400022F060420A438260204600F055FD20686D
:1030500005602020C4F88800002084F8840070BD3A
:10306000022070BD10B50446002C03D0D4F88800AF
:1030700010B107E0012010BD002084F88400204634
:1030800000F028F82420C4F888002068016821F0A6
:1030900001010160A06A10B1204600F051FD2046F8
:1030A00000F032FE012813D02068416821F49041DD
:1030B00041602068816821F02A01816020680168F0
:1030C00041F0010101602046BDE8104000F09CBDC8
:1030D000012010BD2DE9F04198B00446142113A839
:1030E000FDF7D8F9442102A8FDF7D4F92A48216850
:1030F0002A4C0727DFF8A88000250226814225D127
:1031000001200290039502A8FEF764FF08B1FDF7C5
:103110007EFD206E40F480402066206E00F48040EA
:103120000190E06C40F00200E064E06C00F002000E
:103130000190C0201390149615951695179713A912
:103140004046FEF7E1FC18B0BDE8F0811548814229
:10315000F9D10296049502A8FEF73CFF08B1FDF7ED
:1031600056FDA06D40F40030A065A06D00F4003065
:103170000190E06C40F00200E064E06C00F00200BE
:10318000019018201390149615951695179713A96A
:103190004046FEF7B9FCD6E7003801400010024077
:1031A0000004004800440040FEE700EB8100006E90
:1031B00000F0F84070478068C0F3C0007047806836
:1031C000C0F3000070478068C0F3800070478068DB
:1031D000C0F38000704710B501F0007300EBD350CE
:1031E0004369C1F3045107248C40A3438A4013432D
:1031F000436110BD00EB8100016E21F000411143DD
:103200000166704730B58BB00024089409940A9485
:1032100020216846FDF73EF91C484FF0A0410160AF
:103220004FF4403141608460C4600461446104250E
:103230008561047744770121016280F82440C462EB
:10324000046380F83840C46380F84040FDF7E6FF2F
:1032500008B1FDF7DCFC089408A90C48FDF750FD07
:1032600008B1FDF7D4FC0A480090062001900294B2
:103270007F2003900495059469460448FDF7B4FD4A
:10328000002801D0FDF7C3FC0BB030BD2C0000209E
:103290000200300430B589B0202101A8FDF7FAF80A
:1032A0001948184901604FF440314160002484609E
:1032B000C460046144610425856104774477012179
:1032C000016280F82440C462046380F83840C4631B
:1032D00080F84040FDF7A2FF08B1FDF798FC0B48CD
:1032E00001900620029003947F2004900595069497
:1032F00001A90548FDF778FD002801D0FDF787FCFE
:1033000009B030BD000100509800002004006008A2
:1033100010B5124810490160002141608160C16010
:10332000012202744174817411234361826110236C
:10333000C3610323036242628262C2620263416329
:103340008163C163FEF762FA002803D0BDE8104034
:10335000FDF75DBC10BD00000064004004010020CA
:1033600008B50D48C16C41F02001C164C16C01F089
:1033700020010091C16C41F00101C164C16C01F0F8
:1033800001010091C16C41F00201C164C06C00F008
:103390000200009008BD00000010024010B5124865
:1033A000104901604FF482714160002181604FF447
:1033B000E062C260016141614FF4802282610822B3
:1033C000C2610162416281620723C3620163426399
:1033D000FFF7BCFA002803D0BDE81040FDF717BC8A
:1033E00010BD0000003001406801002010B598B009
:1033F00000241594169417941C210EA8FDF74AF882
:10340000342101A8FDF746F82B482A4901604460A1
:1034100084604FF6FF71C160046144618461FFF70D
:103420006BFD08B1FDF7F3FB15941694179415A9DD
:103430002148FFF79BFB08B1FDF7E9FB0E940F94C1
:103440001094119412941394149400220EA91A4803
:10345000FFF71AFD08B1FDF7DAFB04220EA91648A2
:10346000FFF712FD08B1FDF7D2FB08220EA91248A2
:10347000FFF70AFD08B1FDF7CAFB0194029403941B
:10348000049405944FF4005006900794089409940E
:1034900000030A900B940C940D9401A90648FFF7C1
:1034A00013FB08B1FDF7B3FB0348FFF7C3FC18B0EB
:1034B00010BD0000002C0140CC0100203EB50024CE
:1034C0000094019402940E480C490160A9214160C6
:1034D000846040F2E731C16080218161FFF78FFB9A
:1034E00008B1FDF794FB0094029469460448FFF785
:1034F0003DFB002801D0FDF78AFB3EBD00100040D7
:103500001802002010B51848164901604FF4E13147
:10351000416000218160C16001610C2242618161D2
:10352000C161016241628162FFF79CFD08B1FDF754
:103530006EFB00210C48FFF76FFD08B1FDF767FB3C
:1035400000210948FFF742FD08B1FDF760FB06487E
:10355000FFF71DFD002803D0BDE81040FDF757BB65
:1035600010BD0000003801406402002010B518486A
:10357000164901604FF4E131416000218160C16072
:1035800001610C2242618161C1610162416281621B
:10359000FFF768FD08B1FDF73AFB00210C48FFF783
:1035A0003BFD08B1FDF733FB00210948FFF70EFD95
:1035B00008B1FDF72CFB0648FFF7E9FC002803D013
:1035C000BDE81040FDF723BB10BD000000440040E3
:1035D000F802002010B50C480A4901600821017169
:1035E00002214171C1710021017241728172C17267
:1035F000FEF714FC002803D0BDE81040FDF707BB20
:1036000010BD0000005C00408C030020FEE7FEE7D8
:10361000704700001049C86800F00302C868C0F392
:103620000310401C032A0ED00C4AB2FBF0F0CA680B
:10363000C2F306225043C968C1F34161491C4900E5
:10364000B0FBF1F07047064AB2FBF0F0CA68C2F373
:1036500006225043EFE70000001002400024F4006F
:1036600000127A007047FEF731BB10B594B03821D4
:1036700006A8FCF70FFF142101A8FCF70BFF0020A0
:10368000FEF73AFC212006904FF48030079001208D
:103690000C9002200D9003240E940F905521109150
:1036A000119004211291139006A8FEF727FF08B18C
:1036B000FDF7ADFA0F2001900294002003900490D2
:1036C0000590042101A8FEF7D1FD002801D0FDF7E7
:1036D0009EFA14B010BD00000248016841F4700168
:1036E0000160704788ED00E00148FFF7CEBA0000A6
:1036F000180200202DE9F0470268254DDFF894807C
:10370000DFF89490254B4FF0804AA84207D05045EF
:1037100005D0404503D0484501D0984203D122F05E
:1037200070044A6822431E4E1E4FDFF87CC0A84238
:103730000DD050450BD0404509D0484507D09842A0
:1037400005D0B04203D0B84201D0604503D122F485
:103750004074CA6822434C6922F0800222438C687C
:10376000C4620C688462A84207D0984205D0B04277
:1037700003D0B84201D0604501D1096901630168F5
:1037800041F004010160012141610260BDE8F08760
:10379000002C0140000400400008004000340140BB
:1037A0000040014000440140004801402DE9F04341
:1037B000056A026A22F001020262436882691E4CB5
:1037C000224022F003020C68144325F002058A68A7
:1037D0002A431A4E1A4FDFF86CC0DFF86C80DFF80E
:1037E0006C90B04207D0B84205D0604503D0404548
:1037F00001D0484507D1056A25F00405056222F08D
:103800000805CA682A43B04207D0B84205D06045CF
:1038100003D0404501D0484507D123F4807323F4F9
:1038200000734D691D438B692B4343608461496874
:1038300041630262BDE8F0838FFFFEFF002C014070
:103840000034014000400140004401400048014074
:10385000F0B5046A026A22F01002026242688369CB
:103860001B4D2B4023F440730D6843EA052524F0DB
:1038700020038C6843EA0413164C174EA04201D073
:10388000B04208D1076A27F04007076223F080039F
:10389000CF6843EA0713A0420AD0B04208D00F4CC9
:1038A000A04205D00E4CA04202D00E4CA04209D13D
:1038B00022F4806222F400624C6942EA84028C693C
:1038C00042EA840242608561496881630362F0BD17
:1038D000FF8FFFFE002C01400034014000400140FA
:1038E0000044014000480140F0B5056A026A22F434
:1038F000807202624268C3691B4C234023F00303B9
:103900000C681C4325F400738D6843EA0523174DAA
:10391000174EA84201D0B04208D1076A27F4806749
:10392000076223F40063CF6843EA0723A8420AD062
:10393000B04208D00F4DA84205D00F4DA84202D08A
:103940000E4DA84209D122F4805222F400524D6952
:1039500042EA05128D6942EA05124260C461496873
:10396000C1630362F0BD00008FFFFEFF002C014029
:103970000034014000400140004401400048014043
:10398000F0B5046A026A22F4805202624268C36996
:103990001B4D2B4023F440730D6843EA052524F4A6
:1039A00000538C6843EA0433164C174EA04201D0F2
:1039B000B04208D1076A27F48047076223F4004326
:1039C000CF6843EA0733A0420AD0B04208D00F4C78
:1039D000A04205D00E4CA04202D00E4CA04209D10C
:1039E00022F4804222F400424C6942EA84128C693B
:1039F00042EA84124260C561496801640362F0BD15
:103A0000FF8FFFFE002C01400034014000400140C8
:103A1000004401400048014030B5056A026A22F4C2
:103A2000803202624268036D114C23400C681C43D3
:103A300025F400330D8943EA05430E4DA8420BD00F
:103A40000D4DA84208D00D4DA84205D00C4DA842FE
:103A500002D00C4DA84204D122F480324D6942EAD2
:103A600005224260046549688164036230BD00003C
:103A70008FFFFEFF002C0140003401400040014058
:103A8000004401400048014030B5056A026A22F452
:103A9000801202624268036D114C23400C6843EAB5
:103AA000042425F400130D8943EA05530D4DA84263
:103AB0000BD00D4DA84208D00C4DA84205D00C4D9E
:103AC000A84202D00B4DA84204D122F480224D69B5
:103AD00042EA8522426004654968C164036230BDE0
:103AE000FF8FFFFE002C01400034014000400140E8
:103AF000004401400048014030B5416E002917D014
:103B000002689168C1F342619268520F0B4B9C5C52
:103B1000E50003F10804A25CB5FBF2F2A0F86A200C
:103B20005A5C615CD200B2FBF1F1A0F8681030BDC4
:103B3000012168304180018030BD0000E64200086C
:103B400090F82810090706D501684A68836B22F4AB
:103B500000421A434A6090F82810C90706D001684D
:103B60004A68C36A22F400321A434A6090F8281067
:103B7000890706D501684A68036B22F480321A432C
:103B80004A6090F82810490706D501684A68436BD7
:103B900022F480221A434A6090F82810C90606D5FC
:103BA00001688A68C36B22F480521A438A6090F8D5
:103BB0002810890606D501688A68036C22F4005231
:103BC0001A438A6090F82810490611D501684A689E
:103BD000436C22F480121A434A60416CB1F5801F95
:103BE00006D101684A68836C22F4C0021A434A6015
:103BF00090F82810090606D501684A68C06C22F4BE
:103C0000002202434A6070472DE9F843044600252C
:103C1000C4F89050FEF754F88046206800684FF0D2
:103C2000200600076FF07E4716D543460022310478
:103C30002046009700F0D2F970B1206850E8001FCC
:103C400021F0800140E80012002AF6D18434666039
:103C500025700320BDE8F88320680068400720D560
:103C6000434600224FF480012046009700F0B6F949
:103C7000B8B1206850E8001F21F4907140E80012AC
:103C8000002AF6D12068083050E8001F21F0010119
:103C900040E80012002AF5D18434A6602570032084
:103CA000D8E76C34E66126622560656025760020E1
:103CB000D0E7000010B5016851E8002F22F490729F
:103CC00041E80023002BF6D10E4B0168083151E882
:103CD000002F1A4041E80024002CF6D1C16E0129C2
:103CE00008D1016851E8002F22F0100241E80023BA
:103CF000002BF6D12021C0F88C100021C16641674D
:103D000010BD0000FEFFFFEF2DE9F0410446002545
:103D1000A74B20682269A168E669114362693243B2
:103D200011430268A34E32400A4302602068416892
:103D3000E26821F4405111434160A0692168994231
:103D400001D0226A10438A689B4E324002438A6047
:103D50002068C16A626A21F00F011143C16297496C
:103D6000226897488A4214D1D0F8880010F00300E6
:103D700007D0012809D0022805D0032807D0102138
:103D80006AE0012168E0022166E0042164E0082184
:103D900062E08C498A4214D1D0F8880010F00C00FF
:103DA00007D0042809D0082805D00C2807D01021F6
:103DB00052E0002150E002214EE004214CE00821B5
:103DC0004AE081498A4214D1D0F8880010F03000CE
:103DD00007D0102809D0202805D0302807D010217E
:103DE0003AE0002138E0022136E0042134E00821E5
:103DF00032E076498A4214D1D0F8880010F0C00031
:103E000007D0402809D0802805D0C02807D010212D
:103E100022E0002120E002211EE004211CE0082114
:103E20001AE09A4217D1D0F8880010F440600AD006
:103E3000B0F5806F0BD0B0F5006F06D0B0F5406FD5
:103E400007D0102108E0002106E0022104E004214F
:103E500002E0082100E010215D485E4E00274FF48B
:103E6000004C9A4239D1B9B1022905D0042916D0A3
:103E7000082917D00020012560B3616A36F81120A7
:103E8000B0FBF2F1666806EB46038B4202D8B1EB59
:103E9000063F09D9012582E0FEF7D2FAECE7FEF7EA
:103EA000F3FAE9E76046E7E700231946FCF704FA6E
:103EB000090241EA10610202700810187941324685
:103EC0000023FCF7F9F9444AA0F54071914202D869
:103ED0002168C86063E0012561E0E2694FF6EF7890
:103EE000624530D1092911D2DFE801F0050812102E
:103EF0000B1010100E00FEF7A3FA09E0FEF7B2FA5D
:103F000006E0FEF7C1FA03E0604601E0002001256B
:103F1000F0B3616A36F81110B0FBF1F0410060684F
:103F200001EB5001B1FBF0F0A0F11001414508D8C0
:103F30004FF6F0710140C0F3420001432068C160B8
:103F40002DE001252BE0092911D2DFE801F0050859
:103F500012100B1010100E00FEF772FA09E0FEF7B7
:103F600081FA06E0FEF790FA03E0604601E00020E7
:103F7000012568B1616A36F81110B0FBF1F1606893
:103F800001EB5001B1FBF0F0A0F11001414500E060
:103F900005E003D8216880B2C86000E00125012057
:103FA000683460802080E76027612846BDE8F081A2
:103FB00000800040F369FFCFFFF4FF11003801409B
:103FC000001002400044004000480040004C004007
:103FD0000024F400CE420008FFFC0F002DE9F0475A
:103FE0000446089E0D46174698464FF0000935E0F6
:103FF000701C33D0FDF764FEA0EB0800B04219D866
:10400000C6B120680168490728D5802D26D0402DEB
:1040100024D0C169C94309070ED420680825056268
:104020002046FFF747FEC4F8905084F884900120A2
:10403000BDE8F0870320FBE7C069C04300050DD44D
:1040400021684FF4006008622046FFF733FE20200D
:10405000C4F8900084F884900320E9E72068C069E0
:1040600035EA000004D00020B842C1D00020DFE7CC
:104070000120F9E7012120F8401F00210180818003
:104080000182002070474BF6807230F8401F914348
:10409000018000207047FEE70907090E002804DBB5
:1040A00000F1E02080F80014704700F00F0000F1EC
:1040B000E02080F8141D704770B5EFF31081124CAA
:1040C00060684268516372B60168002915D1416881
:1040D000496991B14FF47A7500222946FCF74BFDEE
:1040E000064600232A4631466068FCF721FD00237E
:1040F0002A4631466068FCF764FD60684068406BA2
:1041000080F3108870BD000014000020FDF7E6FD6C
:10411000FFF7ABFAFFF724F9FFF774F8FFF7BAF8E7
:10412000FFF7F6F8FFF73AF9FFF760F9FFF7EAF95A
:10413000FFF71CFAFFF74EFAFFF7C0F9FEE70000A1
:104140007FB5002400250DF10503314AFDF706FA7D
:1041500000285BD12E4988680A68B0F1005F0DD055
:10416000002002430092C968002009292CD2DFE810
:1041700001F0080B0F13171B1F2327004FF40040FB
:10418000EFE78DF8040021E001208DF804001DE028
:1041900002208DF8040019E003208DF8040015E0DA
:1041A00004208DF8040011E005208DF804000DE0D6
:1041B00006208DF8040009E007208DF8040005E0D2
:1041C00008208DF8040001E08DF8040000991148E2
:1041D000006882690AB100BE0EE04468008909E007
:1041E000228863884A401A4201D1012504E0401E1A
:1041F00080B20C340028F3D1002D07D0002C05D05C
:10420000A268002A02D06946606890477FBD00001E
:104210008C0600202800002070B506460C460025BC
:1042200030688068FDF730FA78B32088C0F30A015F
:104230001F48016021684FF0005202EA813181601D
:10424000002141608161416101620161C1612279A6
:10425000092A20D2DFE802F005070A0D1013161A0A
:104260001D00C16017E00121C16014E00221C1609E
:1042700011E00321C1600EE00421C1600BE00521C3
:10428000C16008E00621C16005E00CE00721C160C3
:1042900001E00821C1603068621D05498068FDF7B2
:1042A00033F910B10025284670BD0125FBE7000059
:1042B000680600204FF04070E1EE100A70470001E0
:1042C000020304050607080C1014182030400100F2
:1042D00002000400060008000A000C001000200084
:1042E00040008000000101010103070100000804F3
:1042F00002040801010100000000000000000102AA
:10430000030406070809000000000102030400007E
:1043100030430008000000202C00000014020008B8
:104320005C4300082C000020EC0C00003002000868
:10433000000000001000000001000000000000006C
:104340000024F40000000000000000000000000055
:0C43500000000000000000000000000061
:04000005080001D915
:00000001FF
