:020000040800F2
:10000000B0730020F10100080B5C000817550008D0
:10001000095C0008310A0008938400080000000011
:1000200000000000000000000000000073620008F3
:10003000D30B000800000000536200087F62000834
:100040000B0200080B0200080B0200080B0200085C
:100050000B0200080B0200080B0200080B0200084C
:100060000B0200080B0200080B0200080D0B000831
:10007000190B00080B0200080B0200080B02000815
:100080000B020008000000008D0800080B020008A9
:1000900029840008D90B0008E50B00080B020008B2
:1000A0000B0200080B0200080B0200080B020008FC
:1000B0000B0200080B0200080B0200080B020008EC
:1000C0000B0200080B0200080B0200085562000832
:1000D0000B020008F96D00080B0200080B02000873
:1000E0000B0200080B0200080B0200080B020008BC
:1000F0000B0200080B0200080B02000800000000C1
:10010000000000000B020008000000000B020008C5
:100110000B020008000000003D6300080B0200080D
:100120000B0200080B0200080B0200080B0200087B
:100130000B02000800000000000000000B02000895
:100140000B0200080B020008000000000000000085
:10015000000000000000000000000000000000009F
:100160000000000000000000000000000B0200087A
:100170000B0200080000000000000000000000006A
:10018000000000000B02000800000000000000005A
:10019000000000000000000000000000000000005F
:1001A00000000000000000000B0200080B02000825
:1001B0000B0200080B0200080B0200080000000000
:1001C000000000000B02000800000000000000001A
:1001D0000B0200080B020008DFF810D000F0AAFAAA
:1001E0000048004739920008AFF30080B073002048
:1001F0000648804706480047FEE7FEE7FEE7FEE7C1
:10020000FEE7FEE7FEE7FEE7FEE7FEE72D630008F8
:10021000D90100082DE9F05F0546002092469B4673
:1002200088460646814640241BE02846414647460C
:10023000224600F080F853465A46C01A914110D326
:1002400011461846224600F067F82D1A67EB0108A0
:100250004F4622460120002100F05EF817EB00090E
:100260004E41201EA4F10104DFDC484631462A46F7
:100270004346BDE8F09FD2B201E000F8012B491ED1
:10028000FBD270470022F6E710B513460A46044633
:100290001946FFF7F0FF204610BDF0B4CA17CB0F88
:1002A00050405140C61841F100054FEAC372314633
:1002B00028004FF0960303D0B623F0BC00F054B8EA
:1002C00030460021F9E700F0004230F000400AD04B
:1002D000C10D01F56071C0F3160042EA0151C20878
:1002E00040071143704700200146704730B50B4668
:1002F000014600202022012409E021FA02F59D4256
:1003000005D303FA02F5491B04FA02F52844151E29
:10031000A2F10102F1DC30BD202A04DB203A00FA10
:1003200002F1002070479140C2F1200320FA03F34C
:10033000194390407047202A04DB203A21FA02F04A
:100340000021704721FA02F3D040C2F1200291400F
:100350000843194670470029A8BF7047401C490050
:1003600008BF20F00100704710B4B0FA80FC00FA1A
:100370000CF050EA010404BF10BC704749B1CCF145
:10038000200421FA04F411FA0CF118BF01212143D1
:100390000843A3EB0C01CB1D4FEA00614FEA10208C
:1003A00042BF002010BC704700EBC350104400292E
:1003B000A4BF10BC7047401C490008BF20F00100DA
:1003C00010BC70472DE9FE4F804681EA0300C00F44
:1003D0000C46009021F0004123F00045B8EB0200EC
:1003E000A94105D24046214690461C460B4602468E
:1003F00023F00040104347D0270DC7F30A00C3F392
:100400000A510290401A019040286BDAC3F313009E
:1004100040F4801B0098924620B10023D2EB030ADF
:1004200063EB0B0B01985946C0F140025046FFF7B1
:1004300073FF06460D4650465946019A00F08CF966
:1004400010EB08006141002487EA115284EAE77347
:100450001A4340D0009A62B3019A012A4FEA075228
:1004600015DC001B61EB02014FF0004202EA07526B
:10047000CDE90042001C41F5801132462B4600F0C8
:100480008CF903B0BDE8F08F40462146F9E7001B28
:1004900061EB0201001C41F5801300185B4120183C
:1004A000A2F5001747EB030140EAD570B6196D417C
:1004B00011E06D084FEA360645EAC0754FEA07526B
:1004C000001B61EB0201001C41F5801149084FEA55
:1004D00030000019514132462B4603B0BDE8F04FC1
:1004E00000F04CB90098012240000023D0EB02023A
:1004F00063EBE073009821464FEAE074B8EB00002C
:1005000061EB0401E9E783F000435BE781F0004120
:1005100058E72DE9FE4F81EA030404F0004421F07E
:10052000004100944FF0000B23F0004350EA010417
:100530005ED052EA03045BD0C3F30A54C1F30A55F8
:100540002C44A4F2F3340194A0FB0254C1F3130130
:1005500041F48011C3F3130343F4801301FB0244FD
:1005600000FB034E840A970A44EA815447EA835702
:10057000A4FB076802958D0A05FB07854FEA932CBB
:1005800004FB0C542705029D4FEA065847EA16372C
:10059000B5EB08056EEB070C870E920E47EA811744
:1005A00042EA8312A7FB0201B6EB0B0164EB0004E5
:1005B0002B0D43EA0C335E1844EB1C50DA465146CF
:1005C000E7FB0201C5F313044FEA0B3343EA14536C
:1005D0004FEA0432019C43EA0603A4F10C0402949E
:1005E000009CCDE900B400F0D8F803B0BDE8F08F6E
:1005F00000200146F9E72DE9F04D81EA030404F0FB
:10060000004B21F0004514464FF0000A23F0004152
:1006100050EA050220D054EA01021DD0C5F30A5762
:100620000246C5F31303C1F31300C1F30A5640F4A5
:10063000801543F48013A7EB0608101BD64608F27A
:10064000FD3873EB050002D308F1010801E09218B0
:100650005B41B8F1000F03DA00200146BDE8F08DE0
:1006600000204FF48011064684460EE0171B73EB02
:10067000050705D3121B63EB050306434CEA010C87
:1006800049084FEA300092185B4150EA0107EDD16A
:1006900052EA030012D082EA040083EA050108430B
:1006A00005D0101BAB4106D20122002306E0002238
:1006B0004FF0004302E06FF0010253101AEB060006
:1006C0004CEB085110EB0A0041EB0B01BDE8F04D7B
:1006D00000F054B8C1F30A52C1F3130140F2FF33E2
:1006E00041F480119A4202DA00200146704740F23C
:1006F00033439A42A2F2334202DC5242FFF71BBE5E
:10070000FFF70ABE30B5041E71F1000404DB4FF0A0
:100710000044404264EB0101141E73F1000405DB48
:100720001C464FF00043524263EB0403994208BF5A
:10073000904230BD064C074D06E0E06840F00103F2
:1007400094E8070098471034AC42F6D3FFF748FD11
:100750000098000820980008202A06DBCB17203AD2
:1007600041FA02F043EAE07306E041FA02F3D040B6
:10077000C2F12002914008431946704710B5141E7B
:1007800073F1000408DA401C41F1000192185B414A
:100790001A4301D120F0010010BD2DE9F04D924621
:1007A0009B4611B1B1FA81F202E0B0FA80F2203238
:1007B0009046FFF7B1FD04460F4640EA0A0041EAC1
:1007C0000B0153465A46084313D0114653EA010021
:1007D00019D0C8F140025046FFF7ADFD05460E4660
:1007E000504659464246FFF797FD084305D0012081
:1007F00004E020463946BDE8F08D0020054346EA76
:10080000E0762C4337430A986305E40AA0EB08001E
:100810000022FD0A44EA47540A3002D5002001466E
:10082000E9E7010510196941DDE908450019694149
:10083000BDE8F04DA2E770B58C1810F8015B15F01B
:10084000070301D110F8013B2A1106D110F8012B42
:1008500003E010F8016B01F8016B5B1EF9D12B0767
:1008600005D40023521E0DD401F8013BFAE710F81D
:10087000013BCB1A921C03E013F8015B01F8015B0A
:10088000521EF9D5A142D8D3002070BD10B504483E
:1008900001F060FABDE81040024801F05BBA0000C8
:1008A000080300207403002070B5044600688168C6
:1008B000C1F3400504F059FE48B345BB2068816888
:1008C00001F00D01012914D18168124A1140891CDF
:1008D000816021680320086002F04AFA054612E0B0
:1008E00002F046FA401B02280DD920688068C00734
:1008F00009D0E06D40F01000E065206E40F001008E
:100900002066012070BD20688068C007E8D1002003
:1009100070BD0000C0FFFF7FF8B5044600200090C6
:10092000206804F022FEE8BB20688168214A114259
:100930002ED18168D6433140491C81601E488068B1
:1009400000F0E07000020DD51C481D490068B0FBA6
:10095000F1F0401C00EB4000800000E0401E0090E1
:100960000028FBD102F004FA05461CE004F0FDFD6E
:1009700020B9206881683140491C816002F0F8F993
:10098000401B02280FD920680068C043C0070AD066
:10099000E06D40F01000E065206E40F00100206640
:1009A0000120F8BD04E020680168C943C907DDD112
:1009B0000020F6E73F0000800003005010000020F8
:1009C000400D03002DE9F041184A04460120A082A1
:1009D00013461088D3F808C00C334FF4FA6793E835
:1009E0006200B84213D2401C1080B4F90400C3174F
:1009F00010EB0C004B41C2E90203B4F90600C11729
:100A000040197141C2E904010020BDE8F0813A4675
:100A100000236046FFF7FEFB20803A46002328466D
:100A20003146FFF7F7FB60800120EEE7A8010020C8
:100A3000FEE70020704700207047000010B500223C
:100A40000449054806F061FB0449034806F054FBDD
:100A5000002010BD40150020700C00204011002027
:100A600010B50146034806F047FB024806F00CFBB0
:100A7000002010BD700C0020002070470A46094974
:100A800010B5D1F8BC12D1F8141209B1012010BD73
:100A90000146044806F039FBBDE81040014806F065
:100AA0009EBB0000700C00200648016841F0807178
:100AB0000160054800214160016841F001010160C9
:100AC00070470000FCED00E0001000E0B0F90410F9
:100AD00000EE101AF8EEC00A9FED0B0A60EE800AD5
:100AE000C0ED020AB0F9061001EE101AB8EEC11AF4
:100AF00021EE000A80ED030A30EE800AB1EE400AD2
:100B000080ED040A70470000D74C4E3F014801F0C9
:100B100037BC000068060020014801F031BC00002D
:100B2000C806002010B502680E4CD1B21423083953
:100B3000A24203D2B1FBF3F10B4A04E0B1FBF3F1A3
:100B4000094A2032891D436C23F003031A4482644E
:100B5000054A8032C26401F01F0201219140016503
:100B600010BD000008040240000802400179084A54
:100B700001F07F0102EB81024265054A4432491EC1
:100B8000826501F01F0201219140C165704700009C
:100B9000FC08024030B5D0E913456560446D14B1DE
:100BA000D0E91645656090F8444004F01F05012423
:100BB000AC40056C6C60046863608368102B03684C
:100BC00003D099600068C26030BD9A600068C1605F
:100BD00030BD704772B6FEE7014801F0A2BD0000CB
:100BE000E0030020014801F09CBD0000E00300206C
:100BF000F0B5D1E901650C692C430D68C6B145F02B
:100C000080452C43D1E90665354391F820704E6943
:100C1000406D46EA076635438E8903EBC30300EB5C
:100C2000C30345EA0645E3E8024500200B4D0FE00B
:100C300044EA8544E6E71418165CE77846EA076656
:100C4000A77864783F0447EA0424264340C3001D84
:100C5000CC682C5D8442EED8F0BD0000909700086F
:100C60000648B0EE001A80ED030A00EE810ADFEDBF
:100C7000040A20EE200A80ED040A7047F0010020EB
:100C800039CD133F10B51B4C2DED028B82B09FED7B
:100C9000188AD4ED050A94ED090AB0EE481A04F159
:100CA000B00000F069F884ED130AB0EE481AD4EDF4
:100CB000060A94ED0A0A04F1C40000F09DF884EDE0
:100CC000140AF0EE400A694601A894ED081A94ED62
:100CD000130A00F011F8DDED000A9DED010A00F0A5
:100CE0003DF994ED140A02B0BDEC028B10BD00007A
:100CF00017B75138F001002070B50D462DED048B6B
:100D0000B0EE419AF0EE408A0646B0EE608AB0EE50
:100D1000490A07F0A5FC0F4C84ED010AB0EE490A20
:100D200007F0F6FB84ED020A28EE800AD4ED010AF2
:100D300008EE600A86ED000A94ED010AD4ED020A7D
:100D400028EE800A08EE200A85ED000ABDEC048B2F
:100D500070BD0000F0010020B4EEC10AF1EE10FAFF
:100D600002DDB0EE410A7047B4EEE00AF1EE10FA8F
:100D7000F9D2B0EE600A704710B504461A48DFEDAC
:100D80001B1A2DED028B90ED0C2AC4ED001AB5EE66
:100D9000C02AF1EE10FA02DDDFED151A01E0DFEDF9
:100DA000151A30EE608AC4ED011A94ED020A61EE64
:100DB000880A00EE810A84ED020A94ED041AD4ED4B
:100DC000030AFFF7C9FF84ED020AD4ED000A94ED8F
:100DD000041A00EE880AD4ED030ABDEC028BBDE8CC
:100DE0001040FFF7B9BF0000F00100205EA02439D9
:100DF0009A99D93F7D3F753F70B51C4DDFED1C1AA8
:100E0000044695ED0C2AC0ED001AB5EEC02AF1EEAD
:100E100010FA02DDDFED171A01E0DFED171A70EEB0
:100E2000600AC4ED011AC5ED120AD4ED011A94ED61
:100E3000020A61EEA00A00EE810A84ED020A94ED36
:100E4000041AD4ED030AFFF787FF84ED020AD4EDFC
:100E5000000A95ED121A00EE810A94ED041AD4ED01
:100E6000030ABDE87040FFF777BF0000F0010020E3
:100E70005EA024399A99D93F7D3F753F70B50F4BDD
:100E8000597819B158800020587070BD5988411A9E
:100E900011F5005F02DA01F5804104E0B1F5005F71
:100EA00001DDA1F58041054ACE17F032D2E90654A2
:100EB00069187441C2E90614588070BDF001002021
:100EC00010B50021064803F0F1FE0421044803F0A8
:100ED000EDFEBDE810400821014803F0E7BE000028
:100EE000A804002010B50021064803F063FF042188
:100EF000044803F05FFFBDE810400821014803F0FB
:100F000059BF0000A804002010B52DED048BB0EEF1
:100F1000419AF0EE408AB0EE608AB0EE490A07F0DE
:100F20009FFB0D4C84ED010AB0EE490A07F0F0FA80
:100F300084ED020A68EE800A94ED011A28EE000A98
:100F400048EE010A08EEC10AC4ED050A84ED060A5E
:100F5000BDEC048B10BD0000F001002010B5BEEE0A
:100F6000001A2DED068B20EE011AB0EE402A9FEDFF
:100F7000410AF0EE411A00EEC01A40EE801AB0EEBF
:100F8000420AF4EEC01AF1EE10FA01DDB0EE610A89
:100F9000B4EEC01AF1EE10FA01DDB0EE410AF0EE47
:100FA000420AF4EEE01AF1EE10FA01D2F0EE610A14
:100FB000B4EEE01AF1EE10FA01D2F0EE410ADFEDE4
:100FC0002E9A30EE200AF6EE000A9FED2CAA20EEB3
:100FD000200A31EE401A32EE402A71EEC01A31EE8C
:100FE000209A32EE200A31EEA08AB0EE691AF0EEB5
:100FF0004A0AFFF7B1FEF0EE408AB0EE691AF0EE51
:101000004A0AB0EE480AFFF7A7FEB0EE408AB0EEFB
:10101000691AF0EE4A0AB0EE490AFFF79DFE184A37
:101020001168C86A401C00EE900AF8EE600A68EE8B
:10103000A00AFCEEE00A10EE903A4B6300EE900A34
:101040001368F8EE600A68EE200AFCEEE00A10EE83
:10105000901A996300EE900A1168F8EE600A20EE8B
:10106000200ABCEEC00A10EE100AC863BDEC068B65
:1010700010BD0000D7B35D3F48E17A3F0AD7A33CDB
:10108000A804002010B5F0EE601A2DED048BB0EE30
:10109000409AB6EE001ADFED0E0AB0EE610AFFF7D5
:1010A0005BFEB0EE408AB0EE490A07F031FA60EE1E
:1010B000088AB0EE490A07F0D3FA60EE080AB0EEEB
:1010C000680ABDEC048BBDE81040FFF747BF000085
:1010D0000000000070B5214C03460A46207820B17C
:1010E000C4E916310020207070BDD4E91605C4E9AA
:1010F0001632181A62EB05014FF4005300221B1A36
:101100008A4103DA164A801841F1FF31154A821AE2
:1011100071F1FF3204DA4FF48042801841F100018E
:10112000FFF7BBF800EE100ADFED0F0A20EE200AF1
:10113000DFED0E0A80EE201A84ED0B1A94ED0B0AF7
:10114000D4ED0C0A9FED0A1A70EE600A94ED0C0AB9
:1011500000EE810A84ED0C0A70BD0000F001002051
:1011600000C0FFFF00E0FFFF000070420AD7A3426B
:10117000CDCCCC3D10EE102A384B39494FF47A7063
:101180009A4204DC10EE102A364B9A420DD94FF4E5
:101190009670DFED350AC1ED000ADFED340AC1EDCE
:1011A000010AF2EE0E0AC1ED020A2D4ADFED301AF5
:1011B000D83AD2ED0C0A30EEC00A82ED0D0A91ED5C
:1011C000011AD1ED030A21EE001A41EE210A01EEC7
:1011D000100AB8EEC11AC1ED030AF4EEC10AF1EE2D
:1011E00010FA09DC404201EE100AB8EEC11AF4EE22
:1011F000C10AF1EE10FA05D200EE900AF8EEE00A0C
:10120000C1ED030AB0EE601AD1ED000AD2ED0E1A5C
:1012100000EE801A30EE612AD1ED020A00EE821A49
:1012200082ED0A1AD1ED040AF4EEC10AF1EE10FAC9
:1012300001D2C2ED0A0A92ED0A1AF1EE600AF4EE4A
:10124000C10AF1EE10FA01DDC2ED0A0AC2ED0F1A71
:1012500082ED0E0A92ED0A0A7047000000007A44FF
:10126000C802002000007AC448E11A406666CA41FC
:101270000AD7A33B10B504F0A7F900EE100ADFED82
:10128000130A1149B8EE400AA1F16002A1F84C001E
:1012900020EE200ADFED0E0A60EE200AC2ED070AFA
:1012A00048780B7810FB03F000EE100AB8EE401AF5
:1012B00091ED010A01EE200A82ED080A00F00AF819
:1012C00082ED080A10BD000050020020DB0FC9406B
:1012D00000008038DFED090A094901E030EE600ABC
:1012E00010EE100A8842F9DA01E030EE200AB5EE7D
:1012F000C00AF1EE10FAF8D370470000DB0FC940C6
:10130000DB0FC940F8B500250446009590F8580059
:101310000E4601280BD0012084F858002046FFF724
:10132000C3FA0200E06D04D040F010002AE0022071
:10133000F8BD20F4885040F00200E0652068816824
:10134000134B194006F08043194341F0004181607E
:10135000104B20680EE00099491C0091994209D376
:10136000E06D20F0020040F01000E06584F8585075
:101370000120F8BD8168C90FEDD1E06D20F00200B9
:1013800040F00100E06584F858501046F8BD0000B8
:10139000C0FFFF3F02DE0400704700002DE9F84F58
:1013A0004FF000080446CDF800800D4694F8582010
:1013B000DFF80094616947464046012A0AD00126B9
:1013C000FD4A84F8586041B1296A012905D0A36E0D
:1013D000EBB129E00220BDE8F88F6868092838D110
:1013E000A96A4FF4785041B12B6801F07C0100EA02
:1013F00053400843E96A084302E0296800EA514083
:101400002168CB6C13400343CB64606621E0C4E9E0
:101410001971A96A286A31B101F07C01401E0843A4
:10142000E96A084300E0401E2968C1F38463297912
:1014300001F01F018B400343A06E401EA066616E49
:1014400041EA0301616604D12068C36C13400B4379
:10145000C364206804F085F858B995F8250098B160
:101460002068C16895F8262021F4401141EA4251D4
:10147000C160206804F085F88246206804F071F8A5
:101480005AEA00010DD0FAE095F8260095F82410EC
:10149000400540EA01512068C26822F4401211431D
:1014A000E6E7A86A30B1E86A20B195F8250001287E
:1014B0005DD003E095F82500012804D02068C168BC
:1014C00021F0007103E02068C16841F00071C16043
:1014D00095F83000012851D02068016921F00201FF
:1014E0000161AA6829682068B2F1004F37D004F082
:1014F00054F82068416921F00041416120686A691F
:10150000C168C1F3C10149008A402969042943D057
:1015100000EB81002B68016EDFF8A0C203F0F843F6
:1015200001EA0C011343194341F0004101662268AE
:101530002869A96902EB8000026E22F080720A43DA
:101540000266297F22682869012922D0002102EB46
:101550008000026E22F000720A4302668FE00022D1
:1015600004F01BF82068416941F00041C5E7E06DD7
:1015700040F02000E0654FF00108A9E7D5E90D1023
:1015800001432068026922F4FF7242F00202114313
:10159000A6E74FF00071DAE7002103F0D8FF40031F
:1015A00020684FF0000171D003F0D1FF90FAA0F055
:1015B000B0FA80F1286842036DD090FAA0F0B0FA3A
:1015C00080F0814204D100221146206803F0F4FF2C
:1015D0000121206803F0BBFF400320684FF00101A8
:1015E0005CD003F0B4FF90FAA0F0B0FA80F1286864
:1015F000420358D090FAA0F0B0FA80F0814204D1B2
:1016000000220121206803F0D7FF0221206803F0A7
:101610009EFF400320684FF0020147D003F097FF80
:1016200090FAA0F0B0FA80F12868420343D090FA13
:10163000A0F0B0FA80F0814204D10022022120689B
:1016400003F0BAFF0321206803F081FF4003206804
:101650004FF0030132D003F07AFF90FAA0F0B0FA15
:1016600080F1286842032ED090FAA0F0B0FA80F002
:10167000814204D100220321206803F09DFF2068ED
:1016800003F077FF10B3B3E000E004E003F05FFF86
:10169000C0F384618EE7C0F3846092E703F057FFE4
:1016A000C0F38461A3E7C0F38460A7E703F04FFFB2
:1016B000C0F38461B8E7C0F38460BCE703F047FF80
:1016C000C0F38461CDE7C0F38460D1E721682A7B51
:1016D000286851F8B03FC0F3120C23EA0C0302F063
:1016E000180C374A22FA0CF2024013430B60E968E7
:1016F00049457DD1286841031AD090FAA0F1B1FA8A
:1017000081F1491C01F01F0109294FEA403130D80D
:10171000002910D090FAA0F1B1FA81F101F1010194
:1017200001F01F0106FA01F608D1C0F3846109E057
:10173000C0F38461E5E7C0F38461EFE790FAA0F1BC
:10174000B1FA81F101F1010101F01F0146EA816165
:1017500002D1C0F3846003E090FAA0F0B0FA80F008
:1017600000F1010000F01F0000EB400041EA0051D1
:101770003AE000290DD090FAA0F1B1FA81F101F11F
:10178000010101F01F0106FA01F605D1C0F38461E1
:1017900006E0C0F38461F2E790FAA0F1B1FA81F1BA
:1017A00001F1010101F01F0146EA81610BD1C0F393
:1017B00084600CE000007F400040100400F0FF0354
:1017C000FFFF070014E090FAA0F0B0FA80F000F1FB
:1017D000010000F01F002B4A00EB400002EB00501C
:1017E00041EA000141F00071AA68206803F0D5FECB
:1017F00025482968014240D0244A9068244B00F0D3
:10180000E070994202D0234B99421BD1030219D4B4
:101810002168B1F1A04F30D1916840F4000021F06F
:10182000E071014391601C481C490068B0FBF1F075
:10183000801C00EB4000800000E0401E009000286B
:10184000FBD11AE0164D174BA94207D1C50105D4AB
:101850002168994211D040F0807009E0124DA942F0
:101860000BD1410209D42168994206D040F480008E
:10187000916821F0E0710143916084F8587040460E
:10188000A9E50000000020FE0000088000030050D1
:10189000000021C31000C09010000020400D030084
:1018A000000052C700010050000084CB2DE9F05F1A
:1018B0002DED028B0068B0F1A04F5FD1FFF7F4F877
:1018C0007E4F7E6809217E4800F028F97D4C092171
:1018D000E0607D4800F022F92061FFF7CBFC7B4DF2
:1018E000B5F84C00FFF7CAFA7868801B784E306074
:1018F00061797848D1B3804607460088A189081AE3
:10190000B8807888218A081AF8807248FFF7DEF8D4
:1019100097ED020A704910EE100A00274FF00109F6
:10192000884215DC10EE103A6C4A404693420FD8BC
:10193000D0ED030A10EE903A8B4209DC10EE903A9B
:10194000934205D8D8F81000884201DC904219D99A
:10195000677084F800906248016821F400610160BA
:10196000BDEC028BBDE8F05FFFF7BCBAA1898180B6
:10197000218AC1805748FFF725F86071BDEC028BC2
:10198000BDE8F09FFFF76CF9564890ED001A5648F5
:10199000D0ED000A554890ED000AFFF7B5FA6078DF
:1019A00018B1207808B9FFF76DF9E079E8B34FF086
:1019B000000C84F807C094F803804D484D494E4A06
:1019C0004E4BDFF83CB1DFF83CE1B8F1000A9FED87
:1019D0004E8A60D0BCF1000F45D0B5F84C5000EEF7
:1019E000105AA57905EB450CB8EE400AA8460CEB59
:1019F000C50C464D05EB8C0585ED000A90ED000AFF
:101A000085ED010A91ED000A85ED020A92ED000ACA
:101A100085ED030A93ED000A85ED040A9BED000AAB
:101A200085ED050A9EED000A00E031E0384885EDBD
:101A3000060A384990ED000A85ED070AD1E906014A
:101A40000C35FEF72AFC686196ED000A8020B8EE9E
:101A5000400AC0EE080AC5ED060AA8777F20E8779D
:101A600008F10105A571A079C82887D36069401CD9
:101A70006061B0F5AF7F02DB84F80490676184F8A1
:101A80000290BAF1000F17D00020E070A77175E73F
:101A90004FF0010C8DE7BCF1000FE4D0B5F84C50CD
:101AA00000EE105AA57905EB450CA8460CEBC50CC9
:101AB000B8EE400A184D9DE70120E6E7001000E06F
:101AC00008030020D00100207403002050020020F1
:101AD00000030020401900200000FA440000FAC46E
:101AE000140400481002002000020020FC01002025
:101AF00018020020240200202002002004020020FE
:101B0000080200203C02002000D004464C4D00207A
:101B100040020020E0020020EC2A00200068A1F52D
:101B200080710F390ED0B1F5837F08D0B1F5037FF6
:101B300002D0D0F880007047D0F88C007047D0F801
:101B400088007047D0F88400704770472DE9F04155
:101B500004464548806800F01F05206803F001FD39
:101B600008BB2068C168C06C01F0004110F4C07F60
:101B700000D191B194F85800012814D0012084F8C4
:101B800058002046FEF7C8FE01004FF000070CD0B9
:101B900084F858700846BDE8F081E06D40F0200000
:101BA000E0650120F7E70220F5E7E06DC00504D508
:101BB000206E20F00800206600E02766E06D42F20B
:101BC0000102904340F48050E065284B20684FF0BC
:101BD000A046984201D1324600E00246824200D03F
:101BE0001DB9E26D22F48012E2656022026084F881
:101BF00058702068C268920203D5426842F480623D
:101C00004260A06908282068426807D022F040029C
:101C100042602068426842F0200206E022F0200282
:101C200042602068426842F0400242602068984268
:101C300001D1324600E00246824209D045B1062D6C
:101C400006D0072D04D0E06D40F48010E065A1E7D8
:101C5000C26812F0007F9DD18268054B1A4042F0A5
:101C60000802826096E70000000300500001005067
:101C7000C0FFFF7F704770472DE9F047044690F89A
:101C800058009CB00D464FF00009012815D00120E6
:101C900084F8580000261796189620684FF0A04840
:101CA00040450ED1284F0097384603F06AFC824623
:101CB000206803F066FC60B10EE002201CB0BDE8B5
:101CC000F087E06D40F02000E06584F85860012066
:101CD000F4E7BAF1000F09D0E06D40F02000E065B4
:101CE0004FF0010984F858604846E7E7174829682B
:101CF00040F61F720029816821F4604116D094F8E3
:101D0000383041EA43316B6819438160D8F80810D4
:101D1000BB68C1F30001C3F300031943E2D1AB6810
:101D2000296819438368934319430BE08160D8F80D
:101D30000810BB68C1F30001C3F300031943D1D1FC
:101D4000816891438160CDE700010050000300509D
:101D5000704770472DE9F05F0446006806684568E3
:101D6000DFF854B2DBF8080000F01F07B0070ED50B
:101D7000A8070CD5E06DC00603D4E06D40F4006008
:101D8000E0652046FFF708FB216802200860DFF8C5
:101D90002CA270074FF0A04801D5680703D4300784
:101DA00037D5280735D5E06DC00603D4E06D40F483
:101DB0000070E065206803F0E8FB20B32068504520
:101DC00001D1414600E00146814208D03FB1052FD4
:101DD00005D0092F03D0504503D1414602E0C16828
:101DE00001E00146C96889040DD4016809070AD5D4
:101DF00003F0C3FB58B3E06D40F01000E065206EC7
:101E000040F0010020662046FFF7A2FF21680C2069
:101E10000860B00601D5A80603D4700658D5680638
:101E200056D5E06DC00603D4E06D40F40050E06587
:101E30002068C16C11F4C07F1AD00021894603F0DC
:101E4000A4FB02462068504514D1414613E02068A7
:101E5000416821F00C014160E06D20F48070E06584
:101E6000E06DC004CFD4E06D40F00100E065CAE74A
:101E70000121E3E70146814208D03FB1062F05D09A
:101E8000072F03D0504503D1414602E0C16801E06D
:101E90000146C968B9F1000F14D08B0102D58AB18F
:101EA0008A040FD4026852060CD589020AD403F0C2
:101EB00054FBE8B3E06D40F01000E065206E40F0A8
:101EC000010020662046FFF7F1FC216860200860D1
:101ED00030060BD5280609D5E06D40F48030E0656A
:101EE000204600F065F9216880200860F0050CD5D7
:101EF000E8050AD5E06D40F40030E0652046FFF7C4
:101F0000B9FE21684FF480700860B0050CD5A805B3
:101F10000AD5E06D40F48020E0652046FFF7ABFE77
:101F200021684FF400700860F0062ED5E80600E046
:101F300008E02AD5E06BD0B1AFB1DBF8080000F4BF
:101F4000604013E02068416821F060014160E06D6D
:101F500020F48050E065E06DC005B3D4E06D40F042
:101F60000100E065AEE72068C068C00750B1E06DD1
:101F700040F48060E065206E40F00200206620465C
:101F8000FFF7E7FE216810200860700512D568058C
:101F900010D5E06D40F48040E065206E40F0080010
:101FA000206621684FF4806008602046BDE8F05F3D
:101FB000FFF7CBBDBDE8F09F0003005000010050CB
:101FC000F8B54FF0000504002E46009502D0E06DF4
:101FD00010B107E00120F8BD204600F0EBF82666BE
:101FE00084F8586020688168C1F3407119B1816834
:101FF000674A1140816020688168C1F3007189B926
:102000008168644A114041F08051816062486349AF
:102010000068B0FBF1F04000801C00E0401E009022
:102020000028FBD120688168C1F3007141B9E16DDE
:1020300041F01001E165216E41F0010121660125A9
:1020400003F09BFAE16DC90600D430B1E06D40F0B9
:102050001000E06501252846F8BDE06D20F4807091
:1020600040F00200E065206803F07FFA88B94FF085
:10207000A04080684A49C0F300008968C1F30001AC
:10208000084306D1474960688A6822F47C120243FB
:102090008A60E168E06B627F0843A16841EA4231EF
:1020A000084394F8241040EA0140012904D1218D0D
:1020B0003D4A02EB41410843E16A29B101F47871DC
:1020C000226B014342EA01002168CA68374B1A407B
:1020D0000243CA6020680169626B21F040611143CC
:1020E0000161206803F039FA70BB207F94F8381042
:1020F000800340EA41012068C26844F202039A4327
:102100000A43C26020690028206801690AD041F4AE
:1021100080310161206850F8C01F22696FF30D0102
:10212000114307E021F480310161206850F8C01F9D
:102130006FF30D01016094F8400001280CD0206875
:10214000016921F001010161606901282068016BCA
:1021500021F00F0110D012E0D4E911100143D4E9AD
:102160001302104301432068026940F2FC739A4352
:10217000114341F00101E6E7226A521E1143016357
:10218000E06D20F0020040F00100E06563E7000030
:10219000C0FFFF5FC0FFFF7F10000020400D030065
:1021A00000010050000300500000FEFF0740F0FF58
:1021B000704700002DE9F04198B00446142111A8A1
:1021C000FEF760F844216846FEF75CF84FF40041E2
:1021D000206800268A032D4D03272D4C4FF0904890
:1021E000B0F1A04F10D02B4B98424CD10F926846C3
:1021F000009101F009FC08B1FEF7ECFC2868401CD6
:10220000286001281FD026E00F926846009101F057
:10221000FBFB08B1FEF7DEFC2868401C28600128A3
:1022200007D1E06C40F40050E064E06C00F4005032
:102230001690E06C40F00100E064E06C00F00100FA
:102240001690012010E0E06C40F40050E064E06C77
:1022500000F400501690E06C40F00100E064E06C87
:1022600000F00100169002201396CDE9110711A984
:10227000404600F09BFC00221146122000F0DEFDDB
:10228000122000F0CDFD18B0BDE8F0810000002064
:10229000001002400001005010B5002140B190F83C
:1022A00025200123022A05D00421C163012124E055
:1022B000012010BD0268146824F001041460026853
:1022C000146824F00E041460826C146824F4807482
:1022D000146090F84420046C02F01F0203FA02F22A
:1022E0006260D0E913245460426D32B1146824F462
:1022F00080741460D0E91624546080F825300022E0
:1023000080F82420084610BD70B590F825100024F0
:1023100001222346022907D00421C16380F8252029
:1023200080F82430012429E001680D6825F00105BA
:102330000D6001680D6825F00E050D60816C0D685B
:1023400025F480750D6090F84410154601F01F01CA
:102350008A40016C4A60D0E913124A60416D31B184
:102360000A6822F480720A60D0E916124A6080F886
:10237000255080F82430816B01B18847204670BD1C
:10238000F0B4016C0B6801680A6890F844400425B9
:1023900004F01F0405FA04F61E4211D056070FD5AB
:1023A0000A68920603D40A6822F004020A6090F8D0
:1023B000441001F01F018D40016C4D60016B1DE068
:1023C000022606FA04F71F424FF0000C4FF00105F9
:1023D00018D0970716D50A68920605D40A6822F025
:1023E0000A020A6080F8255090F8441001F01F019D
:1023F0008E40016C4E6080F824C0C16A00291AD05A
:10240000F0BC08470826A6401E4214D0120712D579
:102410000A6822F00E020A6090F84410026C01F083
:102420001F0105FA01F15160C56380F8255080F85D
:1024300024C0416BE2E7F0BC7047000070B50400B7
:102440000CD02C4A20681421904209D22A4A024416
:10245000B2FBF1F18900616428490AE0012070BDF6
:10246000244A52420244B2FBF1F1890061642149DD
:1024700008392164022184F82510016847F6F072BA
:102480009143D4E902231A43D4E904352B431A4378
:10249000A3691A43E3691A43236A1A430A43026091
:1024A0002046FEF73FFBA0680025B0F5804F00D125
:1024B00065602079A16C00F07F000860D4E9130109
:1024C00041606068401E032808D82046FEF74EFB96
:1024D000606D0560D4E91601416002E06565A5659F
:1024E000E565E563012084F8250084F82450002088
:1024F00070BD000008040240F8FFFDBF000002406C
:1025000070B5044690F82400002501280CD0012065
:1025100084F8240094F825600020012E06D084F869
:1025200024000225284670BD022070BD022684F8D2
:102530002560E0632068066826F0010606602046F4
:10254000FEF728FB206B00282068016802D041F0CC
:102550000E0106E021F0040101602068016841F0ED
:102560000A010160A06C0168C90303D5016841F448
:1025700080710160606D18B1016841F48071016083
:102580002068016841F001010160CBE770B50446A5
:1025900000F0EEFB0546601C02D00448406804448D
:1025A00000F0E6FB401BA042FAD370BD04000020FF
:1025B00070B5044690F85C00022803D0206E40F00D
:1025C000080007E02068D0F8C4309B0205D5206ED3
:1025D00040F400702066012070BDD0F8C400C0F344
:1025E00001452B462046FEF703FB21680120A84049
:1025F000C1F8CC00A065002070BD70477047000096
:10260000F0B590F85C40022C03D0016E41F0080157
:1026100062E00468402947D0D4F898502D0758D07C
:10262000D4F89850D4F89860C5F30125F60106D582
:10263000D4F88040E40502D56D1C05F00305C46C98
:1026400005EBC50604EBC606346814F080445460FC
:10265000346844D024F06044146034682C4F04F093
:102660000054946010CE04F00044146136F8044B1A
:10267000A4B2D46156F8044CC4F30344D46056F8B1
:10268000044C04F48014546156F8044C04F400140F
:10269000946156F8044CC4F30664146256F8044C72
:1026A000E40F5462002422E0D4F890502D0710D09B
:1026B000D4F89050D4F89060C5F30125F60106D502
:1026C000D4F88040A40502D56D1C05F00305846C88
:1026D000B6E7016E41F4807101660120F0BDC4F3DC
:1026E0008A44B9E716F804C003F804C0641CD2F8A1
:1026F0000CC017F80CC0A445F4D80068402903D0DA
:10270000C0F89C500020F0BDC0F89450FAE70000DB
:10271000909700080068D0F8C40000F007007047E8
:1027200070472DE9F05F04460068016D426D01F4C9
:10273000E05102EA0108016D426D01F0070102EA71
:102740000109016D426D01F0380102EA010A016DD3
:10275000476D01F471010F40016D426D01F460217C
:10276000456D02EA010B016DCE43710607D4E943C2
:10277000490604D4402101652046FFF7D1FFF0054A
:102780000ED4E843C0050BD42068D0F8D820D0F888
:10279000E01011404FF480720265204600F0D6F937
:1027A000B8F1000005D0216808654146204600F0D8
:1027B000FBF9B9F1000005D02168086549462046BB
:1027C00000F0B4F9BAF1000005D02168086551465F
:1027D000204600F0B2F9B00509D4E843800506D4DC
:1027E00021684FF400700865204600F0DEF93006DD
:1027F0000DD4E84300060AD42068D0F8D420D0F8DD
:10280000DC10114080220265204600F0A1F9B004DE
:1028100009D4E843800406D421684FF400500865C9
:10282000204600F092F9300409D4E843000406D4AD
:1028300021684FF400400865204600F085F97004D7
:102840000AD4E843400407D421684FF48040086567
:10285000206E40F080002066BBF1000005D02168AA
:10286000086559462046FFF7C9FE27B1206807656D
:10287000206E38432066206E002802D02046FFF7E5
:10288000BCFEBDE8F09F00002DE9F041040006D039
:10289000DFF8E88194F85C00002518B107E001201A
:1028A000BDE8F08184F85D50204600F0EFF8206824
:1028B000816921F01001816100F05AFA0646032770
:1028C00004E000F055FA801B0A2811D820688069BE
:1028D0000007F6D42068816941F00101816100F0B0
:1028E00047FA06460BE000F043FA801B0A2806D997
:1028F000206E40F00100206684F85C70CFE720680D
:102900008069C007EFD02068816941F002018161D0
:102910002168414502D15A4960680860207C01283D
:102920002068816937D041F040018161607C0128D5
:102930002068816932D021F480418161A07C012826
:10294000206881692DD041F48051816120688169BE
:10295000A26821F44071114381612068816921F0EE
:10296000A40181612068016921F010010161E06822
:10297000012819D010B302281BD02068816941F0CA
:10298000800181612068016941F010010161E06806
:1029900003280ED012E021F04001C6E741F4804147
:1029A000CBE721F48051D0E72068816941F0040130
:1029B00003E02068816941F020018161207EE169A6
:1029C00040066FF0FF0202EB0121A0F10070084306
:1029D000216AA38A491E0843110201EB03431843ED
:1029E0002368D861A068B0F5407F10D1D4E90A030C
:1029F00002EB0322401E1043226B0B1303EB021267
:102A00001043A28C01EB024108432168C860206892
:102A100050F8C01FE26B114301601A48206422681D
:102A200052F8801FA38E21F4F81141EA034111608E
:102A3000144970316164226852F8801F94F838306C
:102A400021F0706141EA036111600E49B031A16467
:102A50000D49E1640C49D83121650B49F0316165BC
:102A600000F5547100E020C08842FCD3A5652566BE
:102A7000012084F85C00002012E7000000640040A0
:102A80000065004000A4004088A5004010B598B043
:102A90000446142111A8FDF7F5FB44216846FDF713
:102AA000F1FB1F492068884238D180140090400310
:102AB0000C90684600F0A8FF08B1FEF78BF81948A3
:102AC000816D41F000718165816D01F00071169199
:102AD000C16C41F00201C164C06C11A900F0020098
:102AE00016904FF440701190022012900020139025
:102AF0001490092015900C4800F058F8002201218C
:102B0000152000F09BF9152000F08AF90022012120
:102B1000162000F093F9162000F082F918B010BDCD
:102B2000006400400010024000040048CA0703D0BF
:102B30000A46402106F056BC70470A0703D50A46EC
:102B4000412106F04FBC7047704770477047000046
:102B50002DE9F041134E002730680762C761818C70
:102B600000291DD0EFF31081C468C16272B6058AD6
:102B700010E0206958B12146306806F089FC58B150
:102B800027613068818C491E81846169C1616D1E35
:102B9000ADB21834002DECD13068C06A80F31088D3
:102BA000BDE8F08128000020704770472DE9F84FFC
:102BB000DFF890910022A9F1040B03274FF00F0CCE
:102BC00009F1040AABF1040EB4E0012595402B4055
:102BD0006FD00C7904F00304012C01D0022C15D124
:102BE0008668540007FA04F826EA0806D1F80C8033
:102BF00008FA04F848EA0608C0F808804468AC43BC
:102C00000D79C5F300159540254345600C79E443E3
:102C1000A40702D18C68012C08D0C568540007FABB
:102C200004F6B5438E68A6402E43C6600C7904F0C6
:102C30000304022C11D1D40800EB8406356A540732
:102C4000E40E0CFA04F825EA0805D1F8108008FA19
:102C500004F848EA0508C6F820800568540007FA19
:102C600004F6B5430E7906F00306A6402E4306602F
:102C70004C6814F4403F5CD0334C256E45F00105A0
:102C80002566246E22F0030504F0010400942F4C05
:102C900005EB0408D8F808509407260F0CFA06F440
:102CA000A543B0F1904F05D0294CA04204D1012496
:102CB00017E03EE0002414E0264CA04201D102249B
:102CC0000FE0254CA04201D103240AE0234CA0428E
:102CD00001D1042405E0224CA04201D1052400E0EA
:102CE0000624B4402C43C8F80840D9F800404D46AB
:102CF0004E689C43F60200D51C432C60DAF8004075
:102D000055464E689C43B60200D51C432C60DBF848
:102D100000405D464E689C43B60300D51C432C60C2
:102D2000DEF8004075464E689C43F60300D51C4310
:102D30002C60521C0B6833FA02F47FF446AFBDE8F6
:102D4000F88F00000804014000100240000001401C
:102D50000004004800080048000C0048001000482B
:102D6000001400480AB18161704781627047000019
:102D70000148806870470000040000200248816814
:102D800042681144816070470400002010B500249F
:102D9000032000F073F80F2000F008F808B10124B8
:102DA00001E000F025F8204610BD000070B50E4E81
:102DB00005460024706898B14FF47A71B1FBF0F0C9
:102DC0000A490968B1FBF0F001F0DEFB40B9102DB3
:102DD00006D200222946501E00F030F8356000E08F
:102DE0000124204670BD00000400002010000020D7
:102DF0000A4882B0016E41F001010166016E01F0E6
:102E000001010091816D41F080518165806D00F07C
:102E10008050009002B000F0C9BD000000100240D8
:102E2000002809DB00F01F020121914040098000C9
:102E300000F1E020C0F8001170470000F0B40E4B24
:102E40001B68C3F30223C3F10704042C00D9042434
:102E50001D1D072D01D2002300E0DB1E012606FA0E
:102E600004F56D1E0D409D409E40761E164045EABD
:102E70000601F0BC05F03BBB0CED00E0064A00F09B
:102E8000070110684FF6FF03184040EA012003498C
:102E900008431060704700000CED00E00000FA05E8
:102EA00001220168C0F8D022002280F8C82231F83F
:102EB000540F40F001000880088840F002000880AC
:102EC0001046704770B50F4D044669B101290AD10B
:102ED000D4F8D80204F04FFC607A002803D02868A8
:102EE00040F00600286070BD607A28B103F0CAF98E
:102EF000286820F006002860D4F8D802BDE87040A9
:102F000004F0D1BB10ED00E010B50C0607D501F0C0
:102F1000070101EB810100EBC100103005E001EB7E
:102F2000810100EBC10000F5A87099B232B1012215
:102F300002730181190C4181002010BD002202732F
:102F4000C180F9E701EB810200EBC202D0F8D802A0
:102F5000526A04F086BA01EB810200EBC202D0F89B
:102F6000D802D2F8642104F0D0BA70B504460B063A
:102F700001F0070000EB800104EBC1014FF00102FA
:102F80004FF0000502D54A74103103E081F8515129
:102F900001F5A871087094F89002012808D084F80F
:102FA0009022206804F090FF84F89052002070BDB9
:102FB000022070BD70B5044601F00F0022799042E6
:102FC00001D9012070BD0B0601F0070000EB800164
:102FD00004EBC1014FF001024FF0000502D54A7425
:102FE000103103E081F8515101F5A8718D7008701E
:102FF00094F89002012808D084F89022206805F007
:1030000003F884F89052002070BD022070BD2DE9B5
:10301000F04704685FEA42480B788D69B4F8508045
:103020004FF0000C4BF68F7648F2800748F68F7908
:1030300048F2C00A444428D540F2024808EBC308CD
:1030400034F80840C4F30904A54203D32D1B8D6155
:1030500002D00BE0C1F818C0056835F823C00CEAAF
:10306000060C8CF400563E4325F82360520609D521
:103070000B78026832F8235005EA090545EA0A058B
:1030800022F8235074B30A8927E040F2064808EB7F
:10309000C30834F80840C4F30904A54203D32D1B28
:1030A0008D6102D00BE0C1F818C0056835F823C067
:1030B0000CEA060C8CF400563E4325F823605206B9
:1030C00009D40B78026832F8235005EA090545EA6D
:1030D0000A0522F823502CB14A8949690068234621
:1030E00005F0ABF92046BDE8F0872DE9F05F054615
:1030F00000680C465FEA4268D1F818C016460978A5
:10310000B0F8508048F6BF7A48F2800B48F68F77C7
:103110004CF280094FF6FF724FF4004E4FF000035F
:1031200040447DD540F2024808EBC10830F8080061
:10313000C0F30900844514D9BCEB000CC4F818C0D6
:1031400010D0760408D52E6836F821C00CEA070C9A
:103150004CEA090C26F821C094F82410012963D008
:103160007CE1A361607810B1012813D01AE02868CF
:10317000B0F85020104400EBC100B0F80214C1F3C5
:103180000901A0F80214B0F8021441F40041A0F8BB
:10319000021407E02868B0F85020104400EBC1008A
:1031A000A0F802346178286811B1012913D01AE01F
:1031B000B0F850100844217800EBC100B0F80614B4
:1031C000C1F30901A0F80614B0F8061441F4004157
:1031D000A0F8061407E0B0F850100844217800EB7E
:1031E000C100A0F80634E07802280BD120782968C5
:1031F00031F8202002EA0A0282F0200242EA0B02A1
:1032000021F8202021782846FFF79CFE70040AD57B
:103210002178286830F821203A4042EA090200E08B
:1032200051E020F82120C5E0616901446161E16954
:103230000144E1612669216AB14203D33046091A8B
:10324000216204E084F8243009B1084623626178E1
:1032500011B101292BD033E02968B1F8503019445D
:10326000237801EBC301B1F80234C3F30903A1F8D9
:10327000023401F2024158B13E280ED84308C60775
:1032800000D05B1C0E8802EA832216430E8017E0F2
:103290000A8842F400420A8012E04209C30600D1C3
:1032A000521E0B884EEA822213430B8008E02968E5
:1032B000B1F850201144227801EBC201A1F80204B8
:1032C00083B22289C6E040F2064808EBC10830F814
:1032D0000800C0F30900844514D3BCEB000CC4F80B
:1032E00018C010D0760408D42E6836F821C00CEA35
:1032F000070C4CEA090C26F821C094F82410012987
:103300005BD0ABE0A361607810B1012813D01AE064
:103310002868B0F85020104400EBC100B0F8021447
:10332000C1F30901A0F80214B0F8021441F40041FD
:10333000A0F8021407E02868B0F85020104400EB11
:10334000C100A0F802346178286811B1012913D0B6
:103350001AE0B0F850100844217800EBC100B0F832
:103360000614C1F30901A0F80614B0F8061441F4DC
:103370000041A0F8061407E0B0F850100844217886
:1033800000EBC100A0F80634E07802280BD12178C8
:10339000286830F8212002EA0A0282F0200242EA7C
:1033A0000B0220F8212021782846FFF7CBFD70047E
:1033B0007FF52EAF0020BDE8F09F61690144616197
:1033C000E1690144E1612669216AB14203D33046D3
:1033D000091A216204E009B10846236284F8243006
:1033E0006378296813B1012B2AD031E0B1F850304D
:1033F0001944237801EBC301B1F80634C3F3090380
:10340000A1F8063401F2064158B13E280ED843080F
:10341000C60700D05B1C0E8802EA832216430E808A
:1034200016E00A8842F400420A8011E04209C3060D
:1034300000D1521E0B884EEA822213430B8007E014
:10344000B1F850201144227801EBC201A1F8060422
:10345000628983B26169286805F009F820782968D3
:1034600031F8202002EA0A0282F0300242EA0B021E
:1034700021F820209EE701F0070101EB810100EB1C
:10348000C100D0F86C0170472DE9F04104460E06EA
:1034900001F0070000EB800104EBC1014FF00107D0
:1034A0004FF0000502D54F74103103E081F85151FF
:1034B00001F5A871022B0870C2F30A000861CB70F5
:1034C00000D10D7194F89002012809D084F890720F
:1034D000206804F04FFB284684F89052BDE8F08144
:1034E0000220FBE710B501F0070404EB840100EBB8
:1034F000C101C1E959230022C1F86C2181F8512191
:1035000081F85041006801F5A87104F0CEFD00205B
:1035100010BD70B5044601F007002279904201D930
:10352000012070BD0B064FF000054FF0010206D5DB
:1035300000EB800104EBC1014A74103107E001EB9C
:10354000810104EBC10181F8515101F5A8718A7024
:10355000087094F89002012808D084F8902220681E
:1035600004F08AFD84F89052002070BD022070BDE6
:1035700010B501F0070404EB840100EBC101C1E9BF
:103580000923012281F834200B630023CB624A74A3
:1035900001F8104F006804F088FD002010BD10B540
:1035A0000446006804F046FF010404D52046BDE847
:1035B000104002F093BC41050ED5206830F8441F3E
:1035C00021F480610180204600F024F92046BDE806
:1035D0001040002100F04AB9410405D5206830F8B8
:1035E000441F21F480417DE0810405D5206830F836
:1035F000441F21F4005175E0C1041FD5206830F844
:10360000401F21F004010180206830F8401F21F0A4
:103610000801018094F8C802012806D1002084F82E
:10362000C80201462046FFF74DFC204600F006F98F
:10363000206830F8441F21F4805153E0010512D571
:10364000206830F8401F41F008010180206830F800
:10365000441F21F400610180206830F8401F41F0D0
:10366000040101800AE0010629D5206830F8441FD2
:1036700021F08001018094F8C80218B1204600F0C2
:1036800025F910BD206830F8401F41F00401018089
:10369000206830F8401F41F008010180012084F8C3
:1036A000C8022068B0F854003C2101EA9000C4F838
:1036B000CC022046BDE810400121FFF703BC810584
:1036C00009D5206830F8441F21F40071018020469C
:1036D00000F0C8F810BDC005FCD5206830F8441FC4
:1036E00021F48071018010BD70B5040004D094F8FD
:1036F0009102002510B106E0012070BD84F89052BF
:10370000204600F03FF8032084F89102206804F07E
:1037100073FC002101260BE001EB810004EBC000EB
:1037200046740174C57405624562491CC9B285625C
:1037300020798842F0D8002111E001EB810004EBF0
:10374000C00080F8515180F8501180F85351C0F8F2
:103750006051C0F86451491CC9B2C0F86851207961
:103760008842EAD894E8070004F03DFC257384F809
:103770009162A07A012802D12046FFF791FB002038
:1037800070BD000030B597B0044644216846FCF790
:1037900079FD1E492068884236D11D4CE06C40F00E
:1037A0000100E064E06C142100F00100169011A803
:1037B000FCF768FD4FF4C050119002200025CDE9C0
:1037C0001205032014900A20159011A94FF0904083
:1037D000FFF7ECF94FF4005000900D95684600F0AB
:1037E00013F908B1FDF7F6F9A06D40F40000A065EB
:1037F000A06D002200F40000169001211420FFF7B4
:103800001DFB1420FFF70CFB17B030BD005C00401F
:103810000010024070B5044640790125022801D00D
:10382000FDF7D8F92946D4F8D80203F056FFD4F8AA
:10383000D802BDE8704003F009BF000010B504468F
:10384000407A30B10648016821F00601016002F0BB
:1038500019FDD4F8D802BDE8104003F024BF0000E1
:1038600010ED00E0D0F8D80203F027BF10B50446F1
:1038700090F8900201280AD0012084F89002217368
:10388000206804F0EEFD002084F8900210BD0220B4
:1038900010BDD0F8D82200F52671104603F029BFDC
:1038A00010B5044690F8900201280CD0012084F84D
:1038B0009002206804F0AEFD206804F08DFB00202B
:1038C00084F8900210BD022010BD000010B504461F
:1038D000D0F8D80203F04FFF607A002804D00348E4
:1038E000016841F00601016010BD000010ED00E02C
:1038F0002B492C4B0A6832214A432B4940B1B0F581
:10390000007F086829D020F4C06040F480602CE07B
:103910000868C0F34120022804D051F8800F20F439
:10392000807022E0D1F8800020F48070C1F880001F
:10393000086820F4C06040F400700860B2FBF3F047
:10394000401C00E0401E4A69520501D50028F9D10B
:10395000486940050AD503207047C0F3412002287A
:1039600006D051F8800F40F4807008600020704746
:10397000D1F8800040F48070C1F88000086820F41D
:10398000C06040F400700860B2FBF3F0401C00E03F
:10399000401E4A695205DBD50028F9D1D8E700005E
:1039A0001000002040420F00007000400248816873
:1039B00041F48041816070470070004010498A6B7B
:1039C00042F480728A638A6B22F480728A63D0E93F
:1039D0000012114382681143C2680A43018A42EA15
:1039E000014208494A600A68406922F4FE4242EAFC
:1039F00000200860086840F0600008607047000020
:103A000000100240002000402DE9F84F0446002637
:103A10000068A24D374600035CD5A86D4FF0000941
:103A2000C00009D4A86D40F08050A865A86D4FF083
:103A3000010900F080500090DFF864A2DAF800106D
:103A400041F48071CAF80010FFF792F9804607E050
:103A5000FFF78EF9A0EB0800022801D9032631E018
:103A6000DAF80000C005F3D566BBD5F8900010F475
:103A7000407014D0216C814211D0D5F89000D5F857
:103A8000901020F4407041F48031C5F89010D5F8C2
:103A9000901021F48031C5F89010C5F89000C0074F
:103AA0004ED0FFF765F9804641F2883A05E0FFF70E
:103AB0005FF9A0EB08015145D0D8D5F890008007F8
:103AC000F5D5EEB33746B9F1000F03D0A86D20F05D
:103AD0008050A8652078C00707D0D5F888006168B5
:103AE00020F003000843C5F888002078800707D538
:103AF000D5F88800A16820F00C000843C5F88800BC
:103B00002078400707D5D5F88800E16820F030001C
:103B10000843C5F888002078000707D5D5F8880045
:103B2000216920F0C0000843C5F88800207880068D
:103B300009D5D5F88800616920F44060084300E0A9
:103B40003DE0C5F888002078400607D5D5F8880004
:103B5000A16920F440500843C5F888002078000689
:103B600007D5D5F88800E16920F440400843C5F83E
:103B700088002088C00507D5D5F88800216A20F480
:103B800040300843C5F888002088800507D5D5F85F
:103B90008800616A20F440200843C5F88800208826
:103BA000400519D5D5F88800A16A20F440100843D3
:103BB000C5F88800A06AB0F5801F09D00CE0D5F8E0
:103BC0009000216C20F440700843C5F890007AE71B
:103BD000E86840F48010E860208800050FD5D5F82B
:103BE0008800E16A20F440000843C5F88800E06AD4
:103BF000B0F5800F03D1E86840F48010E8602088B9
:103C0000C0040FD5D5F88800216B20F04070084320
:103C1000C5F88800206BB0F1807F03D1E86840F4DC
:103C20008010E860208881044FF000600ED5D5F840
:103C30008810626B21F040611143C5F88810616BF8
:103C4000814203D1E96841F48011E9602188490487
:103C50000ED5D5F88810A26B21F040611143C5F84C
:103C60008810A16B814203D1E86840F48010E860BD
:103C7000208800040FD5D5F88800E16B20F0405073
:103C80000843C5F88800E06BB0F1805F03D1E868B5
:103C900040F48030E8603846BDE8F88F00100240FC
:103CA000007000402DE9F0470D4604004FF000077A
:103CB00025D0DFF8AC91D9F8000000F00F00A84241
:103CC0000CD2D9F8001021F00F012943C9F80010D7
:103CD000D9F8000000F00F00A84210D12168614E11
:103CE000C80741F2883A58D06068DFF87C81032821
:103CF00008D0022830682CD0400500282BDB01209A
:103D0000BDE8F08730688001F9D5F06800F0030263
:103D1000F068C0F30310401C032A18D0534AB2FBCA
:103D2000F0F0F268C2F306225043F268C2F3416237
:103D3000521C5200B0FBF2F0404517D9B06810F0A9
:103D4000F00F0CD0880711D5A06840B10EE0484AAA
:103D5000E5E78003D1E700F0B7F8404506D9B06841
:103D600020F0F00040F08000B0608027B06861680B
:103D700020F003000843B060FEF7FAFF804605E03C
:103D8000FEF7F6FFA0EB080151453BD8B06861682B
:103D900000F00C00B0EB810FF2D12068810714D540
:103DA000400703D5B06840F4E060B06020780007B9
:103DB00005D5B06820F4605040F4E060B060B068B1
:103DC000A16820F0F000084304E0802F03D1B06820
:103DD00020F0F000B060D9F80010484601F00F0163
:103DE000A94217D90168C84621F00F012943016093
:103DF000FEF7BEFF0746D14606E0FEF7B9FFC11B3E
:103E0000494501D903207BE7D8F8000000F00F00F6
:103E1000A842F2D12078400705D5B068E16820F4C7
:103E2000E0600843B0602078000706D5B0682169DB
:103E300020F4605040EAC100B06000F045F8B1687D
:103E40000C4AC1F30311515C01F01F01C8400A493B
:103E500008600A480068BDE8F047FEF7A7BF000009
:103E6000002002400010024000B4C4040024F4000A
:103E700000127A00C89700081000002004000020FB
:103E80000548064900688968054AC1F30221515C6A
:103E900001F01F01C84070471000002000100240D0
:103EA000D89700080548064900688968054AC1F3A3
:103EB000C221515C01F01F01C84070471000002072
:103EC00000100240D8970008184A10B59068C0F357
:103ED0008101174801290BD091684410C1F3810179
:103EE000022906D09168C1F38101032903D0002083
:103EF00010BD204610BDD16801F00303D168C1F3A5
:103F00000311491C032B02D0B0FBF1F001E0B4FB1C
:103F1000F1F0D168C1F306214843D168C1F3416192
:103F2000491C4900B0FBF1F010BD00000010024038
:103F30000024F4002DE9F843040078D02078F54DF2
:103F4000C00745D0A868E96800F00C0001F0030143
:103F50000C2802D0082817D001E0032914D060688B
:103F6000B0F5803F17D0B0F5A02F286817D020F407
:103F700080302860286820F4802028606068D8B1EC
:103F8000FEF7F6FE064613E02868800320D5606839
:103F90000028D2D01CE0286840F48030EDE740F4DF
:103FA00080202860F7E7FEF7E3FE801B64286ED8C8
:103FB00028688003F7D50BE0FEF7DAFE064604E03A
:103FC000FEF7D6FE801B6428F1D828688003F7D45A
:103FD000207880074BD5A868E96800F00C0001F054
:103FE00003010C2802D004280DD001E002290AD0D8
:103FF000E068002828682BD040F480702860FEF725
:10400000B7FE064619E02868400502D5E06800289A
:1040100093D06868217C20F0FE4040EA016068602F
:10402000BD480068FEF7C2FE002800D11FE06DE128
:10403000FEF79EFE801B0228B9D828684005F7D5F8
:104040006868217C20F0FE4040EA016068600EE074
:1040500020F480702860FEF78BFE064604E0FEF731
:1040600087FE801B0228A2D828684005F7D4207854
:10407000000728D560690028D5F8940012D040F0D8
:104080000100C5F89400FEF773FE064605E08FE0D8
:10409000FEF76EFE801B022889D8D5F894008007B1
:1040A000F6D510E020F00100C5F89400FEF760FEA0
:1040B000064604E0FEF75CFE801B022878D8D5F89F
:1040C00094008007F6D42078400761D5A86D0027BA
:1040D000C00008D4A86D40F08050A865A86D0127E5
:1040E00000F0805000908D480168C90511D4016826
:1040F000804641F480710160FEF73AFE064604E016
:10410000FEF736FE801B022852D8D8F80000C00502
:10411000F6D5A068012815D00528D5F8900016D04E
:1041200020F00100C5F89000D5F8900020F00400C0
:10413000C5F89000A06841F28838B8B1FEF718FEC3
:1041400006460EE0D5F8900040F00100F0E740F0A0
:104150000400C5F89000F5E7FEF70AFE811B414513
:1041600026D8D5F890008007F6D50CE0FEF700FEC3
:10417000064604E0FEF7FCFD811B414518D8D5F842
:1041800090008007F6D41FB1A86D20F08050A8657C
:104190002078800628D5A0690028D5F8980012D08C
:1041A00040F00100C5F89800FEF7E2FD064605E084
:1041B00072E0FEF7DDFD801B02286DD8D5F898006F
:1041C0008007F6D510E020F00100C5F89800FEF752
:1041D000CFFD064604E0FEF7CBFD801B02285BD82E
:1041E000D5F898008007F6D4E069E8B3A968C1F370
:1041F000810103295BD00228286820F080702860A4
:1042000003D0FEF7B5FD044649E0FEF7B1FD0646D2
:1042100004E0FEF7ADFD801B02283DD82868800130
:10422000F7D4F4E908016FF00F0202EB0111084323
:10423000218A5204490802EB4151A26841EA022155
:104240000843217D4FF07E42490802EB416108435B
:10425000217B40EAC160E968314A11400843E860C7
:10426000286840F0807000E052E02860E86840F084
:104270008070E860FEF77CFD044604E0FEF778FD00
:10428000001B022808D828688001F7D540E0FEF717
:104290006FFD001B022802D90320BDE8F8832868BF
:1042A0008001F4D4E8681F490840E86030E0012844
:1042B000F3D0E868226A00F00301914226D1616AD6
:1042C00000F0F0020901103991421FD1A26A00F4F6
:1042D000FE41B1EB022F19D194F82C2000F0784167
:1042E000B1EBC26F12D1218E00F4C002490849051A
:1042F000A1F50011914209D194F8341000F0C0608A
:1043000049084906A1F10071814201D00120C4E7AA
:104310000020C2E7001002400400002000700040AE
:104320000C809F01FCFFEEFE7047000038B501686D
:1043300004464A688868C043430606D5C30704D1CB
:10434000D3435B0601D4E16C05E0830708D4D34373
:104350001B0605D4216D01B02046BDE8304008475A
:10436000830603D5430601D5C30551D4D3439B0629
:104370004ED443060AD494F85D30032B49D0236E03
:1043800043F004032366CB688B680093830609D44B
:10439000236E43F0010323668B6800930B6823F0C0
:1043A00040030B60C00506D4206E40F00800206674
:1043B000206880680090206E002829D0206841681D
:1043C00021F0E0014160012084F85D00900701D4F4
:1043D000D00722D02068416821F003014160114DCF
:1043E000A06D40B18563A06DFDF78EFF18B1206E02
:1043F00040F040002066606D002809D08563606D44
:10440000FDF782FF002803D0206E40F040002066B8
:1044100038BDC8688868009038BD2046FFF784FF23
:1044200038BD00006162000870B5040009D0606A00
:10443000002540B125616561A56294F85D0040B139
:104440000CE0012070BD6068B0F5827FF4D0E561BA
:10445000F2E784F85C50204600F05CF8022084F813
:104460005D002068016821F040010160E0684FF4C0
:10447000E062904201D9002101E04FF48051B0F593
:10448000706F02D0904200D0A562A088228900F40B
:10449000827002F404421043227C02F002021043B4
:1044A000227D02F001021043228B02F400721043BD
:1044B000227F02F03802104394F8202002F080029C
:1044C0001043228D02F40052104322681060A0694C
:1044D000042202EA104094F8242001F4805102F0F2
:1044E0001002104394F8342002F008021043A2890D
:1044F00002F4706210430843216848602068C16973
:1045000021F40061C1612566012084F85D0000206E
:1045100070BD000010B586B0044614216846FBF754
:10452000B1FE17492068884227D11648016E41F430
:1045300080510166016E01F480510591C16C41F01A
:104540000101C164C06C694600F00100059048F2A9
:10455000E0000090022001900020029003900520CE
:1045600004904FF09040FEF721FB00220121232010
:10457000FEF764FC2320FEF753FC06B010BD0000DC
:10458000003001400010024010B5401EB0F1807FA5
:1045900001D3012010BD4FF0E02460610F216017AE
:1045A00003F0A5FF0020A06107202061002010BDBE
:1045B000704770477047000030B590F83C20012AE2
:1045C00042D0012280F83C20CA688B6822F44072F5
:1045D0001A434B6822F480621A430B6822F400628B
:1045E0001A430B6922F480521A434B6922F4005299
:1045F0001A430B6B22F480421A430B8B22F4702275
:1046000042EA0342CB6922F080521A430F4D0368FD
:104610000024AB4202D00E4DAB4210D10D8D22F4DE
:10462000700242EA05520D6A22F080722A434D6AF6
:1046300022F000722A43C96A22F000520A435A64E7
:1046400080F83C40002030BD022030BD002C0140ED
:10465000003401407047704770470000F0B590F893
:104660003C20012A3AD0012580F83C50022280F8F3
:104670003D2003685A689C68194E1A4FB34201D016
:10468000BB4204D122F4700C4A6842EA0C02DFF803
:1046900058C002EA0C02D1F800C04CEA020CC3F880
:1046A00004C00268B2420DD0B2F1804F0AD00F4B65
:1046B0009A4207D00E4B9A4204D0BA4202D00D4B18
:1046C0009A4204D1896824F080031943916080F8EC
:1046D0003D50002180F83C100846F0BD0220F0BD9E
:1046E000002C0140003401408FFFFFFD000400401A
:1046F0000008004000400140704710B5040003D09E
:1047000094F83D0010B107E0012010BD002084F8AE
:104710003C00204600F022F8022084F83D00211DD4
:10472000206801F011FE012084F8480084F83E0062
:1047300084F83F0084F8400084F8410084F8420087
:1047400084F8430084F8440084F8450084F8460067
:1047500084F8470084F83D00002010BD08B50068CB
:10476000104A1149904208D1086E40F40060086672
:10477000086E00F40060009008BD0C4A9042FBD126
:10478000886D40F010008865886D002200F01000F0
:10479000009001213620FEF751FBBDE8084036208D
:1047A000FEF73EBB002C014000100240001000400C
:1047B00090F83D10012901D001207047022180F8B6
:1047C0003D100168CA6842F00102CA6000681049E1
:1047D00088420ED0B0F1804F0BD00E49884208D0ED
:1047E0000D49884205D00D49884202D00C498842C3
:1047F00007D181680B4A1140062906D0B1F5803FE8
:1048000003D0016841F00101016000207047000001
:10481000002C01400004004000080040003401402A
:10482000004001400700010070B5044690F83C00CC
:104830000025012814D0012684F83C60022084F869
:104840003D0020688268364B1A4022F47F42826025
:10485000086870282ED010DC10F00F0F03D021E074
:104860004FF0020070BD4FEA2012072A1AD2DFE88B
:1048700002F0525252524A3840002A4BC21A984211
:1048800049D009DCB0F5805F0DD0B0F5005F1CD0D9
:10489000B0F1101F06D13EE0102A3CD0202A3AD0B9
:1048A000502A38D0012584F83D60002084F83C006F
:1048B000284670BDCB68D1E90121206801F0ADFD2B
:1048C0002068816841F0770109E0CB68D1E90121D6
:1048D000206801F0A2FD2068816841F48041816078
:1048E000E1E7CA684968206801F04AFF5021206862
:1048F00006E0CA684968206801F070FF60212068FE
:1049000001F096FDCFE7CA684968206801F038FFDA
:1049100040212068F4E7226801461046F0E70000D5
:1049200088FFCEFF2000100070472DE9F0410446BB
:104930000068C66805694FF00007A90713D5B107DD
:1049400011D5F91E01610120207720688069800758
:10495000204602D0FFF7E8FF04E000F0E1F820462F
:1049600000F0A3F92777680716D5700714D52168DA
:104970006FF004000861022020772068806910F43D
:10498000407F204602D0FFF7CFFF04E000F0C8F8D8
:10499000204600F08AF92777280715D5300713D568
:1049A00021686FF008000861042020772068C06942
:1049B0008007204602D0FFF7B7FF04E000F0B0F810
:1049C000204600F072F92777E80616D5F00614D5D0
:1049D00021686FF010000861082020772068C06906
:1049E00010F4407F204602D0FFF79EFF04E000F065
:1049F00097F8204600F059F92777E80708D0F00724
:104A000006D021686FF001000861204600F02AFA04
:104A1000280601D4A80408D5300606D521686FF40D
:104A2000025008612046FFF7C4FDE80508D53006AE
:104A300006D521686FF4807008612046FFF7B8FD45
:104A4000680608D5700606D521686FF04000086139
:104A5000204600F033FAA80608D5B00606D521682E
:104A60006FF0200008612046FFF7A4FDE80208D59A
:104A7000F00206D521686FF4801008612046FFF728
:104A8000EAFDA80208D5B00206D521686FF400102F
:104A900008612046FFF7DEFD680208D5700206D5E2
:104AA00021686FF4800008612046FFF7D5FD2802D9
:104AB0000AD5300208D521686FF40000086120464D
:104AC000BDE8F041FFF718BEBDE8F08110B586B033
:104AD000044614216846FBF7D5FB0F49206888423D
:104AE00017D10E48C16C41F00101C164C06C694628
:104AF00000F0010005904FF4E0600090022001906A
:104B0000002002900390062004904FF09040FEF7A2
:104B10004DF806B010BD0000002C0140001002400E
:104B2000704770B5044690F83C0000260D460128F9
:104B30000BD0012084F83C000C2A4AD007DC82B15B
:104B4000042A20D0082A06D131E0022070BD102AA4
:104B500053D0142A63D00126002084F83C0030464C
:104B600070BD206801F06EFC2068816941F0080189
:104B700081612068816921F0040181612068816977
:104B80002A69114311E0206801F0ACFC20688169BA
:104B900041F4006181612068816921F48061816153
:104BA000206881692A6941EA02218161D4E720688D
:104BB00001F0E2FC2068C16941F00801C161206890
:104BC000C16921F00401C1612068C1692A691143EA
:104BD00011E0206801F01AFD2068C16941F400610C
:104BE000C1612068C16921F48061C1612068C16927
:104BF0002A6941EA0221C161AEE7206801F050FD57
:104C00002068016D41F0080101652068016D21F007
:104C1000040101652068016D2A69114311E02068D3
:104C200001F076FD2068016D41F4006101652068A6
:104C3000016D21F4806101652068016D2A6941EAF6
:104C40000221016588E710B5040003D094F83D0007
:104C500010B107E0012010BD002084F83C00204680
:104C600000F022F8022084F83D00211D206801F0A8
:104C70006BFB012084F8480084F83E0084F83F0074
:104C800084F8400084F8410084F8420084F843002E
:104C900084F8440084F8450084F8460084F847000E
:104CA00084F83D00002010BD7047704730B50446C1
:104CB00069B104290ED008290FD00C2910D0102971
:104CC00011D094F84300012810D0012030BD94F891
:104CD0003E00F8E794F83F00F5E794F84000F2E76B
:104CE00094F84100EFE794F84200ECE70220E9B3C2
:104CF000042942D0082943D00C2944D0102945D09A
:104D000084F843000122206801F07AFB21492068E1
:104D1000214A224B884209D0904207D0984205D0C0
:104D20001F4DA84202D01F4DA84203D1456C45F447
:104D300000454564206888420CD0B0F1804F09D00E
:104D40001949884206D01949884203D0904201D0BF
:104D5000984207D18168164A1140062908D0B1F55A
:104D6000803F05D0016841F0010100E002E00160F0
:104D7000002030BD84F83E00C4E784F83F00C1E75E
:104D800084F84000BEE784F84100BBE784F84200A5
:104D9000B8E70000002C0140003401400040014011
:104DA0000044014000480140000400400008004069
:104DB0000700010030B504460D460068002201F0EE
:104DC0001FFB2349214A20688B1190420BD0214AB6
:104DD000904208D0204A904205D0204A904202D00A
:104DE0001F4A904209D1026A0A4206D1026A1A4257
:104DF00003D1426C22F4004242642068026A0A42F3
:104E000006D1016A194203D1016821F00101016054
:104E100001205DB1042D0CD0082D0DD00C2D0ED02D
:104E2000102D0FD084F84300002030BD84F83E00E0
:104E3000FAE784F83F00F7E784F84000F4E784F8E5
:104E40004100F1E784F84200EEE70000002C014049
:104E500011111100003401400040014000440140A4
:104E600000480140104910B5884216D10F49D1E9D8
:104E70000601FCF72FF90E4C2089401C80B22081DE
:104E8000B0F57A7F0AD99FED0B0AFCF773F92089F8
:104E9000B0F5FA6F01D90020208110BDBDE81040A7
:104EA0009FED050AFCF766B9F4040020E00200203B
:104EB000D00100200000FAC40000FA44704790F8C6
:104EC0008410012918D0012180F884102421C0F811
:104ED000881001680A680B6823F001030B6022F058
:104EE000005100224266036819602021C0F8881032
:104EF00080F8842010467047022070477047704742
:104F000070B5044690F8840001281DD0012084F873
:104F100084002420C4F8880020680568026822F014
:104F2000010202602068826822F060620A438260A7
:104F3000204601F073FC206805602020C4F888003A
:104F4000002084F8840070BD022070BD70B5044656
:104F500090F8840001281DD0012084F884002420CA
:104F6000C4F8880020680568026822F00102026027
:104F70002068826822F060420A438260204601F085
:104F80004DFC206805602020C4F88800002084F8CB
:104F9000840070BD022070BD7047704770470000EC
:104FA0002DE9F04103680446D86919689A6840F60B
:104FB0000F0528424FF000054FF002060AD1870680
:104FC0007ED501F0200702F0805C57EA0C0777D00D
:104FD000616F42E1B64FDFF8DCC2174001EA0C0C0A
:104FE00057EA0C0C6CD05FEAC07C0CD05FEAC15C65
:104FF00009D54FF0010CC3F820C0D4F8903043F02D
:105000000103C4F89030830709D5D30707D023687C
:105010001E62D4F8903043F00403C4F89030430784
:105020000AD5D30708D0266804233362D4F8903019
:1050300043F00203C4F8903003070CD501F02003BD
:105040003B4308D0266808233362D4F8903043F0FD
:105050000803C4F8903003050BD54B0109D5266829
:105060004FF400633362D4F8903043F02003C4F867
:105070009030D4F89030002B3DD0800609D501F057
:10508000200002F08051084303D0616F09B120462F
:105090008847D4F8900021688968490602D410F046
:1050A000280F2AD0204601F0E3FC206880684006E3
:1050B0001ED52068083050E8001F21F0400100E0B4
:1050C00021E040E80012002AF3D1D4F8800078B142
:1050D00079498163D4F88000FDF716F900280AD0D9
:1050E000D4F88000816B00E02046BDE8F04108471D
:1050F0002046FFF753FFBDE8F0812046FFF74EFF43
:10510000C4F89050F7E7D4F86CC02027BCF1010F29
:105110007ED15FEAC06C7BD55FEAC16C78D5102088
:10512000186220688068400651D5D4F880100A685B
:1051300050680004000C3ED0B4F85C3083423AD989
:10514000A4F85E000868006880062CD4206850E847
:10515000001F21F4807140E80012002AF6D1206877
:10516000083050E8001F21F0010140E80012002A39
:10517000F5D12068083050E8001F21F0400140E8D8
:105180000012002AF5D1C4F88C70E566206850E85A
:10519000001F21F0100140E80012002AF6D1D4F8D7
:1051A0008000FDF779F82667B4F85C00B4F85E106B
:1051B000401A81B207E0B4F85C1081429BD11068BC
:1051C000800698D526672046FFF798FE93E7B4F847
:1051D0005C00B4F85E10401A81B2B4F85E0000289A
:1051E00089D0002987D0206850E8002F22F49072DF
:1051F00040E80023002BF6D12D4BDB43206808301C
:1052000050E8002F1A4040E8002CBCF1000F00E0ED
:105210000EE0F3D1C4F88C70E5666567206850E84D
:10522000002F22F0100240E80023002BF6D1C9E73E
:10523000C60209D5560207D54FF4801018622046E1
:10524000BDE8F041FFF7A9BE03060AD501F08003CF
:1052500002F40002134304D0A16F00297FF444AF8D
:1052600049E7420611D54A060FD52046016851E8A4
:10527000002F22F0400241E80023002BF6D1C0F8B5
:105280008870856700F03EF935E7020206D54A00CE
:1052900004D52046BDE8F041FFF77EBEC00195D59C
:1052A000002993DA2046BDE8F041FFF728BE000050
:1052B0000100001020010004D569000810B50400A9
:1052C00003D0D4F8880010B107E0012010BD002001
:1052D00084F88400204600F027F82420C4F88800D1
:1052E0002068016821F001010160A06A10B1204628
:1052F00001F0B6FA204601F0FDFB0128E6D0206857
:10530000416821F4904141602068816821F02A01C0
:1053100081602068016841F0010101602046BDE81C
:10532000104001F001BB00002DE9F04798B00446A1
:10533000142111A8FAF7A6FF44216846FAF7A2FF44
:1053400046492068464DDFF81CA1002602274FF091
:1053500007084FF0180988425AD10120CDE900060C
:105360006846FEF751FB08B1FBF734FC286E40F4A9
:1053700080402866286E00F480401690E86C40F06B
:105380000200E864E86CCDE9127600F002001690A5
:10539000C020CDE91468119011A95046FDF706FC14
:1053A000324D314880272860C5E90196C5E9036779
:1053B0006E61AE61EE6128462E62FDF73FF808B1DE
:1053C000FBF708FCC4F88050AC62284D26486035D5
:1053D000143028601920686005F10801102081E868
:1053E000C1006E61AE61EE6128462E62FDF726F8BF
:1053F00008B1FBF7EFFBE567002201212520AC6235
:10540000FDF71CFD2520FDF70BFD18B0BDE8F0876A
:1054100017498842F9D1684600970296FEF7F4FAD8
:1054200008B1FBF7D7FBA86D40F40030A865A86D64
:1054300000F400301690E86C40F00200E864E86C7C
:10544000CDE9127600F00200CDF844901496CDE933
:10545000158011A95046FDF7A9FBD6E70038014099
:1054600000100240000400480800024068060020C6
:105470000044004070B50446D0F88800202801D0D0
:10548000022070BD39B332B32165A4F85420A4F8CA
:1054900056200021C4F890102120C4F88800E06F45
:1054A000D8B1154BC362E36F14481863E36F144817
:1054B0005863E06F134681632068E56F00F12802AE
:1054C0002846216DFDF71CF838B11020C4F8900073
:1054D0002020C4F88800012070BD216840200862A7
:1054E0002068083050E8001F41F0800140E80012B9
:1054F000002AF5D1002070BD236A0008656A000803
:10550000DF6900080249884201D104F08DB8704774
:10551000400500207047FEE7F0B500230A2430253F
:1055200037261F4610E0B4EB107F02D905EB107C44
:1055300001E006EB107C01F813C001EB430C000105
:105540005B1C8CF80170DBB29342ECD3F0BD00EB36
:105550008100006E00F0F84070478068C0F3C00022
:1055600070478068C0F3C00070478068C0F30000D7
:1055700070478068C0F3000070478068C0F3800007
:1055800070478068C0F380007047C06810F4406FB7
:1055900001D00020704701207047042303EAD15353
:1055A00010B518444369C1F3045107248C40A34348
:1055B0008A401343436110BD00EB8100016E21F06E
:1055C0000041114301667047F0B53C4B186840F04C
:1055D000400018604FF090440020616921F01001F4
:1055E000616100BF00BF00BF00BF00BF00BF00BFC0
:1055F00000BF00BF00BF4FF6FE7644F6206203E016
:10560000904234D8401C80B299688907F8D54FF48D
:1056100003400021D8604FF6FF7003E0914227D885
:10562000491C89B29D68ED07F8D0656945F0100501
:105630006561DD6800EA851500BF00BF00BF00BFDF
:1056400000BF00BF00BF00BF00BF00BF676927F0F9
:105650001007676100BF00BF00BF00BF00BF00BFF1
:1056600000BF00BF00BF00BF05E0914201D9304636
:10567000F0BD491C89B29F68BF07F6D54FF40446B8
:105680000021DE6003E09142F2D8491C89B29E6895
:10569000F607F8D0606940F01000606100BF00BFFD
:1056A00000BF00BF00BF00BF00BF00BF00BF00BF02
:1056B000D86845EA900080B2F0BD0000003001409B
:1056C00070B592B000240F9410943C216846119458
:1056D000FAF7D8FD25484FF0A041042601604FF4A9
:1056E0004031C0E90114C4600461C0E90546047793
:1056F00044770125056280F8244080F83840C4636F
:1057000080F84040FCF75CFC08B1FBF763FA052029
:10571000CDE90F040FA915481194FCF7ADFA08B1B3
:10572000FBF758FA124800900920CDE901057F20C7
:1057300008950594CDE9030684200A908DF824404D
:1057400080208DF825400B908DF826408DF8305044
:105750002020CDE90D4069460448FBF71FFE0028D4
:1057600001D0FBF737FA12B070BD0000080300202B
:105770000200300470B590B03C216846FAF782FD13
:105780001E481D49002401604FF44031C0E9011456
:10579000C46004260461C0E9054604774477012506
:1057A000056280F8244080F83840C46380F84040A7
:1057B000FCF706FC08B1FBF70DFA11480090092030
:1057C000CDE901057F2008950594CDE903068DF804
:1057D00024408DF825408DF826408DF8305020204B
:1057E000CDE90D4069460548FBF7D8FD002801D0FA
:1057F000FBF7F0F910B070BD0001005074030020F9
:1058000004006008114808B5816C41F0040181640E
:10581000816C01F004010091816C41F0010181640F
:10582000806C002200F00100009001210B20FDF7A8
:1058300005FB0B20FDF7F4FA002201210C20FDF7F7
:10584000FDFABDE808400C20FDF7EABA001002405E
:10585000124810B5104901600021416081600122A9
:10586000C1600274417481741123C0E905321023B0
:10587000C3610323C0E908328262C262C0E90C211D
:105880008163C163FDF700F8002803D0BDE8104034
:10589000FBF7A0B910BD000000640040E003002049
:1058A0002DE9F04186B014216846FAF7EBFC204858
:1058B000C16C41F02001C164C16C01F0200105916F
:1058C000C16C41F00101C164C16C01F0010105919D
:1058D000C16C41F00201C164C06C4FF0904700F010
:1058E00002000590012210213846FDF73BFADFF84F
:1058F00044804FF40066002231464046FDF732FAFC
:1059000001241020CDE90004032569463846CDE97D
:105910000245FDF74BF9002000960395CDE90140C3
:1059200069464046FDF742F906B0BDE8F081000047
:105930000010024000040048124810B510490160F0
:105940004FF48271416000214FF47062C0E902128D
:105950000222026101224261920482611822C0E99E
:10596000072107224162C0E90A1201634163FEF781
:105970005BFD002803D0BDE81040FBF72BB910BD3C
:10598000003001404404002030B59BB0002419943D
:105990001A9417941894149415941C21684616941C
:1059A000FAF770FC342107A8FAF76CFC3A48394939
:1059B000202501601021C0E90115F921C0E9031477
:1059C0008021C0E90541FEF798FE08B1FBF702F916
:1059D0004FF48050179017A92F48FEF725FF08B104
:1059E000FBF7F8F82C48FFF72EF908B1FBF7F2F8AF
:1059F000CDE9145414A928481694FEF72FFE08B1D7
:105A0000FBF7E8F8602000907D20CDE901040394C5
:105A100004940594002269461F480694FFF781F814
:105A200008B1FBF7D7F8042269461B48FFF779F85D
:105A300008B1FBF7CFF8082269461748FFF771F85D
:105A400008B1FBF7C7F8F82001900C22694612480C
:105A5000FFF767F808B1FBF7BDF8079408940994BD
:105A60004FF400500A94CDE90B400D9400030E94BE
:105A7000CDE90F401194129407A907481394FEF73B
:105A80009BFD08B1FBF7A6F80348FFF71FF81BB012
:105A900030BD0000002C0140A80400203EB50024C9
:105AA0000F48009401940D4902940160A921C0E9B6
:105AB000011441F28731C16080218161FEF71DFE32
:105AC00008B1FBF787F80094694605480294FEF791
:105AD000C5FD002801D0FBF77DF83EBD0010004059
