:020000040800F2
:10000000102E0020F1010008575800089F510008E9
:10001000555800086D0A00082582000800000000FD
:100020000000000000000000000000005B5C000811
:10003000430C000800000000EB5B0008675C000850
:100040000B0200080B0200080B0200080B0200085C
:100050000B0200080B0200080B0200080B0200084C
:100060000B0200080B0200080B020008790B0008C5
:10007000850B00080B0200080B0200080B020008A9
:100080000B020008000000009D0800080B02000899
:10009000B5810008490C0008550C00080B02000847
:1000A0000B0200080B0200080B0200080B020008FC
:1000B0000B0200080B0200080B0200080B020008EC
:1000C0000B0200080B0200080B0200083D5C000850
:1000D0000B020008BD6700080B0200080B020008B5
:1000E0000B0200080B0200080B0200080B020008BC
:1000F0000B0200080B0200080B02000800000000C1
:10010000000000000B020008000000000B020008C5
:100110000B02000800000000295D00080B02000827
:100120000B0200080B0200080B0200080B0200087B
:100130000B02000800000000000000000B02000895
:100140000B0200080B020008000000000000000085
:10015000000000000000000000000000000000009F
:100160000000000000000000000000000B0200087A
:100170000B0200080000000000000000000000006A
:10018000000000000B02000800000000000000005A
:10019000000000000000000000000000000000005F
:1001A00000000000000000000B0200080B02000825
:1001B0000B0200080B0200080B0200080000000000
:1001C000000000000B02000800000000000000001A
:1001D0000B0200080B020008DFF810D000F00EFB45
:1001E00000480047CD8F0008AFF30080102E00209C
:1001F0000648804706480047FEE7FEE7FEE7FEE7C1
:10020000FEE7FEE7FEE7FEE7FEE7FEE7195D000812
:10021000D90100082DE9F05F0546002092469B4673
:1002200088460646814640241BE02846414647460C
:10023000224600F0F8F853465A46C01A914110D3AE
:1002400011461846224600F0DFF82D1A67EB010828
:100250004F4622460120002100F0D6F817EB000996
:100260004E41201EA4F10104DFDC484631462A46F7
:100270004346BDE8F09FD2B201E000F8012B491ED1
:10028000FBD270470022F6E710B513460A46044633
:100290001946FFF7F0FF204610BD2DE9FE4F81EA19
:1002A000030404F0004421F0004100944FF0000BDF
:1002B00023F0004350EA01045ED052EA03045BD00D
:1002C000C3F30A54C1F30A552C44A4F2F334019445
:1002D000A0FB0254C1F3130141F48011C3F31303D3
:1002E00043F4801301FB024400FB034E840A970A87
:1002F00044EA815447EA8357A4FB076802958D0AB4
:1003000005FB07854FEA932C04FB0C542705029D3F
:100310004FEA065847EA1637B5EB08056EEB070CAF
:10032000870E920E47EA811742EA8312A7FB020169
:10033000B6EB0B0164EB00042B0D43EA0C335E18A3
:1003400044EB1C50DA465146E7FB0201C5F31304A7
:100350004FEA0B3343EA14534FEA0432019C43EA59
:100360000603A4F10C040294009CCDE900B400F053
:10037000B0F803B0BDE8F08F00200146F9E700F0C7
:10038000004230F000400AD0C10D01F56071C0F3A9
:10039000160042EA0151C20840071143704700208D
:1003A0000146704701F0004330B421F0004150EAAB
:1003B000010206D00A0DA2F56072C1F31301002AF2
:1003C00002DC30BC00207047440F44EAC104C10085
:1003D000E01830BC00EBC25000F035B830B50B4629
:1003E000014600202022012409E021FA02F59D4265
:1003F00005D303FA02F5491B04FA02F52844151E39
:10040000A2F10102F1DC30BD202A04DB203A00FA1F
:1004100002F1002070479140C2F1200320FA03F35B
:10042000194390407047202A04DB203A21FA02F059
:100430000021704721FA02F3D040C2F1200291401E
:100440000843194670470029A8BF7047401C49005F
:1004500008BF20F00100704710B4B0FA80FC00FA29
:100460000CF050EA010404BF10BC704749B1CCF154
:10047000200421FA04F411FA0CF118BF01212143E0
:100480000843A3EB0C01CB1D4FEA00614FEA10209B
:1004900042BF002010BC704700EBC350104400293D
:1004A000A4BF10BC7047401C490008BF20F00100E9
:1004B00010BC704710B5141E73F1000408DA401C1C
:1004C00041F1000192185B411A4301D120F0010073
:1004D00010BD2DE9F04D92469B4611B1B1FA81F263
:1004E00002E0B0FA80F220329046FFF78DFF04461A
:1004F0000F4640EA0A0041EA0B0153465A460843B8
:1005000013D0114653EA010019D0C8F140025046F9
:10051000FFF789FF05460E46504659464246FFF70B
:1005200073FF084305D0012004E020463946BDE8AA
:10053000F08D0020054346EAE0762C4337430A98C5
:100540006305E40AA0EB08000022FD0A44EA4754D0
:100550000A3002D500200146E9E70105101969417A
:10056000DDE9084500196941BDE8F04DA2E72DE934
:10057000FE4F804681EA0300C00F0C46009021F038
:10058000004123F00045B8EB0200A94105D24046E6
:10059000214690461C460B46024623F0004010437D
:1005A00047D0270DC7F30A00C3F30A510290401A3F
:1005B000019040286BDAC3F3130040F4801B0098CD
:1005C000924620B10023D2EB030A63EB0B0B019898
:1005D0005946C0F140025046FFF716FF06460D4649
:1005E00050465946019A00F01BF910EB0800614192
:1005F000002487EA115284EAE7731A4340D0009A34
:1006000062B3019A012A4FEA075215DC001B61EB25
:1006100002014FF0004202EA0752CDE90042001CFD
:1006200041F5801132462B46FFF753FF03B0BDE87A
:10063000F08F40462146F9E7001B61EB0201001CE8
:1006400041F5801300185B412018A2F5001747EB15
:10065000030140EAD570B6196D4111E06D084FEA0B
:10066000360645EAC0754FEA0752001B61EB0201EE
:10067000001C41F5801149084FEA30000019514132
:1006800032462B4603B0BDE8F04FFFF713BF00988A
:10069000012240000023D0EB020263EBE0730098DC
:1006A00021464FEAE074B8EB000061EB0401E9E792
:1006B00083F000435BE781F0004158E72DE9F04DFE
:1006C00081EA030404F0004B21F0004514464FF08A
:1006D000000A23F0004150EA050220D054EA01024A
:1006E0001DD0C5F30A570246C5F31303C1F3130027
:1006F000C1F30A5640F4801543F48013A7EB0608B3
:10070000101BD64608F2FD3873EB050002D308F142
:10071000010801E092185B41B8F1000F03DA0020F4
:100720000146BDE8F08D00204FF480110646844656
:100730000EE0171B73EB050705D3121B63EB0503D4
:1007400006434CEA010C49084FEA300092185B411D
:1007500050EA0107EDD152EA030012D082EA040008
:1007600083EA0501084305D0101BAB4106D20122E4
:10077000002306E000224FF0004302E06FF0010288
:1007800053101AEB06004CEB085110EB0A0041EB3A
:100790000B01BDE8F04DFFF78DBEC1F30A52C1F366
:1007A000130140F2FF3341F480119A4202DA002033
:1007B0000146704740F233439A42A2F2334202DCD0
:1007C0005242FFF730BEFFF71FBE000030B5041ED7
:1007D00071F1000404DB4FF00044404264EB01017E
:1007E000141E73F1000405DB1C464FF00043524217
:1007F00063EB0403994208BF904230BD064C074D9D
:1008000006E0E06840F0010394E8070098471034E0
:10081000AC42F6D3FFF7E4FC5C9600087C96000837
:10082000202A06DBCB17203A41FA02F043EAE073B4
:1008300006E041FA02F3D040C2F1200291400843A1
:100840001946704770B58C1810F8015B15F0070356
:1008500001D110F8013B2A1106D110F8012B03E059
:1008600010F8016B01F8016B5B1EF9D12B0705D461
:100870000023521E0DD401F8013BFAE710F8013BAA
:10088000CB1A921C03E013F8015B01F8015B521EC6
:10089000F9D5A142D8D3002070BD000010B504489E
:1008A00001F0AEF8BDE81040024801F0A9B8000020
:1008B000280200209402002070B504462068816858
:1008C000C1F3400504F097FC78B375BB20688168DC
:1008D00001F00D01012909D0E06D40F01000E06544
:1008E000206E40F001002066012070BD8168124A30
:1008F0001140891C816021680320086002F0C2F861
:10090000054613E002F0BEF8401B02280ED920680D
:100910008068C0070AD0E06D40F01000E065206EEE
:1009200040F001002066012070BD03E0206880686F
:10093000C007E7D10020F7E7C0FFFF7FF8B5044606
:1009400000200090206804F056FC78BB2068816885
:10095000284A114209D0E06D40F01000E065206E99
:1009600040F0010020660120F8BD8168214E7F3EE5
:100970003140491C81602048806800F0E07000022E
:1009800010D51E481E490068B0FBF1F0401C00EB7A
:1009900040008000009002E00098401E0090009807
:1009A0000028F9D102F06EF805461CE020E004F0C2
:1009B00022FC20B9206881683140491C816002F026
:1009C00061F8401B02280ED920680068C043C007A8
:1009D00009D0E06D40F01000E065206E40F00100AD
:1009E00020660120F8BD20680168C943C907DED12F
:1009F0000020F8BD3F0000800003005010000020E0
:100A0000400D03002DE9F04106460220B082164B4E
:100A10004FF4FA681A4602F108021F8833CA4745A4
:100A200013D27F1C1F80B6F90420101841EBE27727
:100A3000C3E90207B6F906004FEAE07100196941FF
:100A4000C3E904010020BDE8F08142460023FFF71E
:100A5000E1FB30804246002320462946FFF7DAFBBF
:100A600070800120EFE7000080000020FEE70428EE
:100A70004FF00000704700207047000010B50022C2
:100A80000449054806F044F80449034806F036F8DE
:100A9000002010BD0C2600203C1D00200C22002050
:100AA00010B50146034806F029F8024805F0FAFFA0
:100AB000002010BD3C1D00200020704710B50A46E4
:100AC0000849D1F8BC12D1F81412002901D0012034
:100AD00010BD0146034806F01BF8BDE81040014870
:100AE00006F09DB83C1D002070B504462DED048B2A
:100AF000B4F90400A58A00EE100AF8EEC00A00EE70
:100B0000105AB8EE400A20EE800A10EE100AFFF7E5
:100B100036FC9FED178B53EC182BFFF7BEFBFFF74E
:100B200041FC09EE100A84ED039AB4F9060000EEC8
:100B3000100AF8EEC00A00EE105AB8EE400A20EE95
:100B4000800A10EE100AFFF71AFC53EC182BFFF77F
:100B5000A4FBFFF727FC00EE100A84ED040A30EE38
:100B6000090AB1EE400A84ED020ABDEC048B70BDA7
:100B700028F224E99AC9E93F014801F07EBA000051
:100B800088050020014801F078BA0000E80500203F
:100B900010B502680E4CD1B214230839A24203D218
:100BA0000C4AB1FBF3F104E00A4A2032B1FBF3F145
:100BB000891D436C23F003031A448264054A803282
:100BC000C26401F01F0201219140016510BD0000C7
:100BD0000804024000080240017901F07F01074A41
:100BE000491E02EB81024265044A4032826501F0EF
:100BF0001F0201219140C1657047000000090240B9
:100C000030B5D0E913546C60446D002C02D0D0E9AB
:100C100016546C6090F8444004F01F050124AC4069
:100C2000056C6C60046863608368102B04D00368F3
:100C300099600068C26030BD03689A600068C16056
:100C400030BD704772B6FEE7014801F000BC0000FD
:100C500000030020014801F0FABB0000000300205F
:100C600010B515490164036853F8802F848E22F46F
:100C7000F81242EA04421A600F4A70324264036872
:100C800053F8802F90F8384022F0706242EA0462F4
:100C90001A60094AB0328264084AC264074AD832EC
:100CA0000265064AF0324265002001F5547200E008
:100CB00001C19142FCD310BD00A4004088A50040B2
:100CC000F0B5D1E901650C692C430D68002E19D0EF
:100CD00045F080452C43D1E90665354391F82070F5
:100CE0004E6946EA076635438E8945EA0645406DFA
:100CF00003EBC30300EBC3031C605D6008330020FB
:100D00000B4E0FE044EA8544E5E71418155CE778DC
:100D100045EA0765A77864783F0447EA0424254339
:100D200020C3001DCC68345D8442EED8F0BD0000C5
:100D3000EC950008064880ED010AB0EE001A00EEBE
:100D4000810ADFED040A20EE200A80ED020A7047D6
:100D5000380000203ACD133F10B52DED048B82B042
:100D60009FED170A9FED178A9FED179A174CB0EE6B
:100D7000491AD4ED030A04F11C0000F05DF8F0EE0E
:100D8000408AB0EE491AD4ED040AB0EE480A04F1E4
:100D9000300000F051F8F0EE400A694601A894EDE9
:100DA000061AB0EE680A00F013F8DDED000A9DEDBA
:100DB000010A00F0B1F802B0BDEC048B10BD0000D8
:100DC0000000000000007A4417B7513838000020B6
:100DD00070B504462DED048BF0EE408AB0EE609ABB
:100DE000F0EE419A0D46B0EE690A07F003FBB0EE53
:100DF000408AB0EE690A07F055FA68EE800A49EEBB
:100E0000480AC4ED000A68EE880A49EE000AC5EDFA
:100E1000000ABDEC048B70BDB4EEC10AF1EE10FA0D
:100E200002DDB0EE410A7047B4EEE00AF1EE10FACE
:100E3000F9D2B0EE600A704710B504462DED028B72
:100E400030EE608AD4ED010A94ED020A60EE880A61
:100E500000EE810A84ED020A94ED041AD4ED030A2F
:100E6000FFF7DAFF84ED020AD4ED000A00EE880AEB
:100E700094ED041AD4ED030ABDEC028BBDE81040DA
:100E8000FFF7CABF10B50021064803F071FD042129
:100E9000044803F06DFDBDE810400821014803F04F
:100EA00067BD0000C803002010B50021064803F00C
:100EB000E7FD0421044803F0E3FDBDE810400821EC
:100EC000014803F0DDBD0000C803002010B52DED82
:100ED000048BF0EE408AB0EE609AF0EE419AB0EEEC
:100EE000690A07F087FAB0EE408AB0EE690A07F0A7
:100EF000D9F968EE800A074849EE080AC0ED030AEE
:100F000029EE000A08EEC80A80ED040ABDEC048B45
:100F100010BD00003800002010B52DED068BB0EE9E
:100F2000402ABEEE001A20EE011A9FED400AF0EEB4
:100F3000411A40EE801A00EEC01AB0EE420AF4EEFA
:100F4000C01AF1EE10FA01DDB0EE610AB4EEC01A7B
:100F5000F1EE10FA01DDB0EE410AF0EE420AF4EED5
:100F6000E01AF1EE10FA01D2F0EE610AB4EEE01AE6
:100F7000F1EE10FA01D2F0EE410A30EE200AF6EE60
:100F8000000A20EE200A32EE402A71EEC01A31EE3D
:100F9000401A32EE200A71EEA08A31EE209ADFED7F
:100FA000249A9FED24AAB0EE691AF0EE4A0AFFF7E0
:100FB00033FFB0EE408AB0EE691AF0EE4A0AB0EEA6
:100FC000680AFFF729FFF0EE408AB0EE691AF0EEEA
:100FD0004A0AB0EE490AFFF71FFF174A1168C86AAC
:100FE00000EE900AF8EE600A68EE200AFCEEE00AD5
:100FF00010EE903A4B6300EE900A1368F8EE600A28
:1010000068EEA00AFCEEE00A10EE901A996300EE7A
:10101000900A1168F8EE600A20EE200ABCEEC00AC1
:1010200010EE100AC863BDEC068B10BDD7B35D3F50
:1010300048E17A3F0AD7A33CC803002010B504F06A
:1010400009F90E4A108000EE100ADFED0D0AB8EE25
:10105000400A20EE200ADFED0B0A60EE200AC2ED06
:10106000050A9FED090AB9EE0C1A00EE810A82ED1D
:10107000060A00F00BF882ED060A10BD38000020C9
:10108000DB0FC9400000803881049F40DFED090A72
:10109000094901E030EE600A10EE100A8842F9DAE0
:1010A00001E030EE200AB5EEC00AF1EE10FAF8D3F6
:1010B00070470000DB0FC940DB0FC94010B50B487B
:1010C0000168001D0468001D0068084400280BD05A
:1010D0000822074904F064F8054920460422BDE8C7
:1010E0001040103104F05CB810BD00009075FF1F77
:1010F000E2000020F8B504460E460025009594F85D
:101100005800012810D0012084F858002046FFF72D
:10111000D3FB0346180009D0E06D40F01000E065F5
:1011200084F858501846F8BD0220F8BDE06D20F450
:10113000885040F00200E06520688168124A114042
:1011400006F08042114341F0004181600F49206860
:101150000FE0009A521C0092009A8A4209D3E06D77
:1011600020F0020040F01000E06584F858500120A3
:10117000F8BD8268D20F002AEBD1E06D20F00200AA
:1011800040F00100E065CBE7C0FFFF3F02DE040056
:10119000704700002DE9F84F04460D460027002651
:1011A000009600206169DFF8009494F85820012A25
:1011B0000BD04FF0010884F85880FC4A41B1296AED
:1011C000012905D0A36EEBB12AE00220BDE8F88F1B
:1011D0006868092838D1A86A48B1296800F07C00FD
:1011E00001F0F84140EA5140E96A084303E0286809
:1011F00000F0F840400C2168CB6C13400343CB64F3
:10120000606621E0A1666666A96A39B1286A01F0C4
:101210007C01401E0843E96A084301E0286A401E39
:101220002968C1F38463297901F01F018B400343CE
:10123000A06E401EA066616E1943616620B92068E9
:10124000C36C13400B43C364206803F0D0FF58B94C
:1012500095F8250098B12068C16895F8262021F4FA
:10126000401141EA4251C160206803F0D0FF82463C
:10127000206803F0BCFF5AEA000A0ED002E195F89C
:10128000260095F82410400540EA01512068C26804
:1012900022F440121143C160E6E7A86AE8B3E86AA5
:1012A000D8B395F82500012868D02068C16821F0DE
:1012B0000071C16095F83000012865D0206801698F
:1012C00021F002010161AA68B2F1004F3BD0296808
:1012D000206803F0A8FF2068416921F000414161C6
:1012E00020686A69C168C1F3C10149008A4029695F
:1012F000042958D02B6800EB8100016EDFF8B0C2E2
:1013000003F0F84301EA0C011343194341F0004193
:10131000016620682A69A96900E01FE000EB8200ED
:10132000026E22F080720A430266297F20682A69D1
:10133000012935D0002100EB8200026E22F00072FC
:101340000A4302669EE029680022206803F06BFFD2
:101350002068416941F000414161C1E795F82500ED
:10136000012805D02068C16821F00071C160A1E7A3
:101370002068C16841F00071C1609BE7E06D40F0FA
:101380002000E065012795E7D5E90D1001432068AD
:10139000026922F4FF7242F002021143016192E7F6
:1013A0004FF00071C7E7002103F017FF40036FD033
:1013B0000021206803F011FF90FAA0F0B0FA80F14C
:1013C000286842036BD090FAA0F0B0FA80F0814216
:1013D00004D100221146206803F034FF0121206867
:1013E00003F0FBFE40035DD00121206803F0F5FE11
:1013F00090FAA0F0B0FA80F12868420359D090FA30
:10140000A0F0B0FA80F0814204D1002201212068CE
:1014100003F018FF0221206803F0DFFE40034BD0E9
:101420000221206803F0D9FE90FAA0F0B0FA80F112
:101430002868420347D090FAA0F0B0FA80F08142C9
:1014400004D100220221206803F0FCFE0321206861
:1014500003F0C3FE400339D00321206803F0BDFE32
:1014600090FAA0F0B0FA80F12868420335D090FAE3
:10147000A0F0B0FA80F0814204D10022032120685C
:1014800003F0E0FE206803F0BAFE48B3B9E0FFE7DE
:101490000021206803F0A1FEC0F3846190E7C0F34F
:1014A000846094E70121206803F097FEC0F3846113
:1014B000A2E7C0F38460A6E70221206803F08DFE56
:1014C000C0F38461B4E7C0F38460B8E70321206807
:1014D00003F083FEC0F38461C6E7C0F38460CAE70B
:1014E00020682A7B296850F8B03FC1F3120C23EA28
:1014F0000C0302F0180C2F4A22FA0CF20A40134394
:101500000360E86848457CD12868410319D090FA07
:10151000A0F1B1FA81F1491C01F01F01092931D86C
:101520004103002910D090FAA0F1B1FA81F101F144
:10153000010101F01F0108FA01F808D1C0F384612C
:1015400009E0C0F38461E6E7C0F38461EFE790FA55
:10155000A0F1B1FA81F101F1010101F01F0148EAA6
:10156000816102D1C0F3846003E090FAA0F0B0FA88
:1015700080F000F1010000F01F0000EB400041EAA4
:1015800000513AE04FEA4031002915D090FAA0F11D
:10159000B1FA81F101F1010101F01F0108FA01F82E
:1015A0000DD1C0F384610EE000007F4000401004C4
:1015B00000F0FF03FFFF0700C0F38461EAE790FA41
:1015C000A0F1B1FA81F101F1010101F01F0148EA36
:1015D000816102D1C0F3846003E090FAA0F0B0FA18
:1015E00080F000F1010000F01F00A0F10A0000EB04
:1015F000400041EA005040F00071AA68206803F002
:1016000012FE28482968014248D0274A906800F015
:10161000E070264B994202D0254B99421ED103021D
:101620001CD42168B1F1A04F38D140F4000091687A
:1016300021F0E071014391601E481F490068B0FB32
:10164000F1F0801C00EB40008000009002E0009868
:10165000401E009000980028F9D11FE0174D184B4C
:10166000A9420CD1C5010AD42168994216D040F094
:101670008070916821F0E071014391600EE0114D9E
:10168000A9420BD1410209D42168994206D040F405
:101690008000916821F0E0710143916084F8586006
:1016A000384693E50000088000030050000021C385
:1016B0001000C09010000020400D0300000052C731
:1016C00000010050000084CB70B50068B0F1A04F5D
:1016D0003CD109212C4800F06BF82C4D68600921A1
:1016E0002B4800F065F8A860A9782A4C39B3218806
:1016F000AA88511AA1806188401AE0802046FFF72D
:10170000F3F92549A06888420CDC244A904209D8A4
:10171000E068884206DC904204D82069884201DCF7
:10172000904214D900206870012028701C4801687C
:1017300021F400610160BDE87040FFF7B5BBA988E6
:10174000A180E0801348FFF75DF9A87070BDFFF736
:1017500075FCD4ED030A94ED020AFFF7EBFA114889
:1017600090ED001A1048D0ED000A104890ED000AE4
:10177000FFF7ACFB68780028E8D028780028E5D18E
:10178000BDE87040FFF7E8BA280200202C000020D6
:10179000940200209406002000009644000096C4A5
:1017A0001404004850000020400000203C000020AD
:1017B000A1F5807100680F390ED0B1F5837F08D094
:1017C000B1F5037F02D0D0F880007047D0F88C00CC
:1017D0007047D0F888007047D0F884007047704791
:1017E0002DE9F04104464748806800F01F05206855
:1017F00003F0FDFC10B10220BDE8F0812068C16853
:1018000001F00041C06C10F4C07F00D181B194F8A8
:101810005800012812D0012084F858002046FFF714
:101820008DF80146002759B184F858700846E3E75F
:10183000E06D40F02000E0650120DDE70220DBE7FD
:10184000E06DC00504D5206E20F00800206600E0A1
:101850002766E06D42F20102904340F48050E0655B
:10186000294B20684FF0A046984201D1324600E053
:101870000246824200D01DB9E26D22F48012E26578
:101880006022026084F858702068C268920203D512
:10189000426842F480624260A06908280ED0206845
:1018A000426822F0400242602068426842F0200212
:1018B0004260206898420CD132460BE020684268B2
:1018C00022F0200242602068426842F040024260FA
:1018D000EFE70246824209D045B1062D06D0072D1A
:1018E00004D0E06D40F48010E0659FE7C26802F02C
:1018F0000072002A9AD18268044B1A4042F0080212
:10190000826093E70003005000010050C0FFFF7F9A
:10191000704770472DE9F0479CB004460D464FF0E4
:10192000000994F8580001280DD0012084F85800CF
:1019300000261896199620684FF0A0482D4F404574
:1019400005D1019704E002201CB0BDE8F0870196A4
:10195000019840B1019803F05AFC8246206803F0D8
:1019600056FC40B10AE0E06D40F02000E06584F8EC
:1019700058600120E8E7BAF1000F09D0E06D40F0AF
:101980002000E0654FF0010984F858604846DBE725
:101990001948296840F61F72D1B1816894F838302F
:1019A00021F4604141EA43316B6819438160D8F802
:1019B0000810C1F30001BB68C3F300031943E3D16E
:1019C000AB68296819438368934319438160DBE757
:1019D000816821F460418160D8F80810C1F30001EA
:1019E000BB68C3F300031943CED181689143816082
:1019F000CAE7000000010050000300507047704724
:101A00002DE9F05F04464FF000082068056846683D
:101A10009A48806800F01F07A8070ED5B0070CD5BC
:101A2000E06DC00603D4E06D40F40060E065204640
:101A3000FFF7AEFB216802200860DFF844B26807B8
:101A40004FF0A04901D5700703D4280737D53007D8
:101A500035D5E06DC00603D4E06D40F40070E0655C
:101A6000206803F0D8FB20B32068584501D14946CF
:101A700000E00146814208D03FB1052F05D0092F73
:101A800003D0584503D1494602E0C16801E0014650
:101A9000C96889040DD4016809070AD503F0B3FBAE
:101AA00058B3E06D40F01000E065206E40F001009A
:101AB00020662046FFF7A2FF21680C200860A806D8
:101AC00001D5B00603D4680656D5700654D5E06D2E
:101AD000C00603D4E06D40F40050E0652068C16C9E
:101AE00011F4C07F1AD04FF0000A03F094FB0246B5
:101AF0002068584515D1494614E02068416821F016
:101B00000C014160E06D20F48070E065E06DC00480
:101B1000CFD4E06D40F00100E065CAE74FF0010A64
:101B2000E3E70146814265D0F7B3062F62D0072F65
:101B300060D0584500D08146D9F80C10BAF1000F9A
:101B400014D08B0102D58AB18A040FD402685206E0
:101B50000CD589020AD403F046FB30B3E06D40F0A7
:101B60001000E065206E40F0010020662046FFF77F
:101B7000ABFD21686020086028060BD5300609D52A
:101B8000E06D40F48030E065204600F07BF921688C
:101B900080200860E8050FD5F0050DD5E06D40F414
:101BA0000030E065204601E024E025E0FFF7B0FECC
:101BB00021684FF480700860A8050CD5B0050AD5DF
:101BC000E06D40F48020E0652046FFF7A2FE21682A
:101BD0004FF400700860E80639D5F00637D5E06BA1
:101BE000D8B1EFB12548806800F46040F0B14FF003
:101BF00001081BE0C168A1E72068416821F060018D
:101C00004160E06D20F48050E065E06DC005ADD42A
:101C1000E06D40F00100E065A8E74FF0010805E045
:101C20002068C068C00701D04FF00108B8F1010F6B
:101C30000AD1E06D40F48060E065206E40F0020063
:101C400020662046FFF7DBFE21681020086068054B
:101C500012D5700510D5E06D40F48040E065206E2F
:101C600040F00800206621684FF48060086020463C
:101C7000BDE8F05FFFF7B3BDBDE8F09F0003005083
:101C800000010050F8B50446002500260096002CFF
:101C900002D0E06D10B107E00120F8BD204600F051
:101CA000F3F8266684F8586020688168C1F34071B3
:101CB00019B181686C4A1140816020688168C1F364
:101CC0000071A1B98168694A114041F08051816079
:101CD000674868490068B0FBF1F0401C4000009084
:101CE00002E00098401E009000980028F9D120687A
:101CF0008168C1F3007141B9E16D41F01001E16506
:101D0000216E41F001012166012503F07CFAE16DAD
:101D1000C90600D430B1E06D40F01000E065012547
:101D20002846F8BDE06D20F4807040F00200E065C8
:101D3000206803F060FA88B94FF0A0408068C0F3D3
:101D400000004D498968C1F30001084306D160686D
:101D50004A498A6822F47C1202438A60E168E06B97
:101D6000627F0843A16841EA4231084394F8241095
:101D700040EA0140012903D1218D491E40EA41403A
:101D8000E16A29B101F47871226B014342EA010052
:101D90002168CA683A4B1A400243CA602068016948
:101DA000626B21F0406111430161206803F01BFA6E
:101DB00080BB207F94F83810800340EA41012068FE
:101DC000C26844F202039A430A43C260206968B1C0
:101DD0002068016941F480310161206850F8C01F1A
:101DE00022696FF30D01114301600AE02068016967
:101DF00021F480310161206850F8C01F6FF30D019C
:101E0000016094F84000012813D02068016921F096
:101E100001010161606901281CD02068016B21F07B
:101E20000F010163E06D20F0020040F00100E06569
:101E300076E7D4E911100143D4E9130210430143BA
:101E40002068026940F2FC739A43114341F001019A
:101E50000161DFE72068016B226A21F00F01521E49
:101E600011430163DEE70000C0FFFF5FC0FFFF7F9B
:101E700010000020400D030000010050000300503E
:101E80000740F0FF704700002DE9F04198B004468C
:101E9000142113A8FEF7F6F9442102A8FEF7F2F97F
:101EA0004FF40040216800258203DFF8DC80032620
:101EB000364C4FF09047B1F1A04F12D0344B9942BD
:101EC0003ED10290119202A801F054FC08B1FEF735
:101ED000B9FED8F80010491CC8F80010012932D00A
:101EE00039E00290119202A801F044FC08B1FEF71B
:101EF000A9FED8F80010491CC8F80010012907D124
:101F0000E06C40F40050E064E06C00F4005001909C
:101F1000E06C40F00100E064E06C00F00100019032
:101F2000012013901496159513A9384600F0C8FCAB
:101F300000221146122000F00FFE122000F0FEFDDC
:101F400018B0BDE8F081E06C40F40050E064E06C53
:101F500000F400500190E06C40F00100E064E06C9F
:101F600000F001000190022013901496159513A91A
:101F7000384600F0A5FC00221146122000F0ECFDCE
:101F8000122000F0DBFDDBE7000000200010024023
:101F90000001005010B50021002808D090F825203D
:101FA0000123022A05D00421C163012124E001207C
:101FB00010BD0268146824F00104146002681468FB
:101FC00024F00E041460826C146824F4807414608D
:101FD00090F84420046C02F01F0203FA02F26260DF
:101FE000D0E913426260426D32B1146824F4807407
:101FF0001460D0E9164262602430437000220270FF
:10200000084610BD70B5002490F825100023012269
:10201000022906D00421243081614270037001241A
:1020200029E001680D6825F001050D6001680D6863
:1020300025F00E050D60816C0D6825F480750D602E
:1020400090F84410154601F01F018A40016C4A6067
:10205000D0E913215160416D31B10A6822F48072D8
:102060000A60D0E91621516080F8255080F82430AC
:10207000816B01B18847204670BDF0B4016C0A68DD
:1020800001680B6890F84440042604F01F0406FA27
:1020900004F5154215D05D0713D50A68920603D4DE
:1020A0000A6822F004020A6090F8441001F01F014F
:1020B00006FA01F5016C4D60016B002941D0F0BCBE
:1020C00008474FF0020C0CFA04F616424FF00007D6
:1020D0004FF0010519D09E0717D50A68920605D45E
:1020E0000A6822F00A020A6080F8255090F844102D
:1020F00001F01F010CFA01F6016C4E6080F82470AB
:10210000C16A00291DD0F0BC08470826A640164227
:1021100017D01A0715D50A6822F00E020A6090F847
:102120004410026C01F01F0105FA01F15160C56312
:1021300080F8255080F82470416B002901D0F0BC54
:102140000847F0BC7047000070B50446002C0DD065
:102150002B4A2068142190420AD22A4A0244B2FB38
:10216000F1F189006164284921640BE0012070BD10
:10217000234A52420244B2FBF1F1890061642049D2
:1021800008392164022184F82510026847F6F071AD
:102190008A43D4E902131943D4E904352B43194384
:1021A000A3691943E3691943236A19431143016081
:1021B0002046FEF7EDFCA0680025B0F5804F00D169
:1021C00065602079A16C00F07F000860D4E91310ED
:1021D00048606068401E032808D82046FEF7FCFCD3
:1021E000606D0560D4E91610486002E06565A5657C
:1021F000E5652434A561012060702570002070BD64
:1022000008040240F8FFFDBF0000024070B504461C
:10221000002594F8240001280CD0012084F8240023
:1022200094F825600020012E06D084F824000225B1
:10223000284670BD022070BD022684F82560E06348
:102240002068066826F0010606602046FEF7D8FCE6
:10225000206B28B12068016841F00E01016009E09F
:102260002068016821F0040101602068016841F0E4
:102270000A010160A06C0168C90303D5016841F43B
:1022800080710160606D18B1016841F48071016076
:102290002068016841F001010160C9E770B504469A
:1022A00000F0F0FB0546601C02D00448406804447E
:1022B00000F0E8FB401BA042FAD370BD04000020F0
:1022C00070B5044694F85C00022805D0206E40F0FA
:1022D00008002066012070BD2068D0F8C4309B0241
:1022E00005D5206E40F400702066012070BDD0F846
:1022F000C400C0F301452B462046FEF7E1FC2168EF
:102300000120A840C1F8CC00A065002070BD704736
:1023100070470000F0B590F85C40022C05D0016ECB
:1023200041F0080101660120F0BD402943D0046856
:10233000D4F898502D0760D0D4F89850C5F30125F3
:10234000D4F89860F60106D5D4F88040E40502D5AB
:102350006D1C05F00305C46C05EBC50604EBC60651
:10236000346804F080445460ECB3346824F0604472
:102370001460346804F000549460346804F000443D
:102380001461B488A4B2D4617468C4F30344D46003
:10239000746804F480145461746804F40014946143
:1023A0007468C4F30664146274680836E40F5462F7
:1023B0000024224F31E00468D4F890502D0716D045
:1023C000D4F89050C5F30125D4F89060F60106D5F5
:1023D000D4F88040A40502D56D1C05F0030505EB7B
:1023E000C506846C00E00EE004EBC606B8E7016E9B
:1023F00041F4807101660120F0BD016E41F48071ED
:1024000001660120F0BD3468C4F38A441460B0E76B
:1024100016F804C003F804C0641CD2F80CC017F806
:102420000CC0A445F4D8402904D00068C0F89C50E2
:102430000020F0BD0068C0F89450F9E7EC95000862
:102440000068D0F8C40000F00700704770472DE91D
:10245000F05F04462068016D01F4E051D0F854802B
:1024600008EA0108016D01F00701D0F8549009EA6B
:102470000109016D01F03801D0F854A00AEA010AFF
:10248000016D01F47101476D0F40016D01F4602190
:10249000D0F854B00BEA010B456D016DCE437106C7
:1024A00007D4E943490604D4402101652046FFF7DB
:1024B000CDFFF0050ED4E843C0050BD42068D0F85A
:1024C000D820D0F8E01011404FF480720265204609
:1024D00000F0C6F9B8F1000F06D02068C0F85080AF
:1024E0004146204600F0EAF9B9F1000F06D0206815
:1024F000C0F850904946204600F0A2F9BAF1000F0A
:1025000006D02068C0F850A05146204600F09FF940
:10251000B00509D4E843800506D421684FF4007063
:102520000865204600F0CBF930060DD4E8430006DC
:102530000AD42068D0F8D420D0F8DC1011408022D2
:102540000265204600F08EF9B00409D4E843800407
:1025500006D421684FF400500865204600F07FF94A
:10256000300409D4E843000406D421684FF4004045
:102570000865204600F072F970040AD4E84340046C
:1025800007D421684FF480400865206E40F0800039
:102590002066BBF1000F06D02068C0F850B0594645
:1025A0002046FFF7B5FE27B120680765206E384347
:1025B0002066206E002802D02046FFF7A8FEBDE866
:1025C000F09F00002DE9F0470446002C07D0724F21
:1025D0004FF4407994F85C00002618B107E0012020
:1025E000BDE8F08784F85D60204600F0D9F82068E7
:1025F000816921F01001816100F044FA05464FF035
:1026000003080CE000F03EFA401B0A2807D9206EB0
:1026100040F00100206684F85C800120E0E720683B
:1026200080690007EED42068816941F00101816171
:1026300000F028FA05460CE000F024FA401B0A28B6
:1026400007D9206E40F00100206684F85C800120EC
:10265000C6E720688069C007EED02068816941F034
:10266000020181612068B84202D14C49606808606B
:10267000207C012839D02068816941F040018161C6
:10268000607C012837D02068816921F48041816114
:10269000A07C012835D02068816941F48051816196
:1026A00020688169A26821F440711143816120682A
:1026B000816921F0A40181612068016921F0100184
:1026C0000161E068012822D030B302282BD02068B5
:1026D000816941F0800181612068016941F0100148
:1026E0000161E068032818D022E02068816921F0A8
:1026F00040018161C4E72068816941F480418161C2
:10270000C6E72068816921F480518161C8E72068AB
:10271000816941F0040181610AE02068816941F02A
:102720002001816104E02068816941F0200181611C
:10273000207E401E4106E069401E41EA0020216AD9
:10274000491E0843A18A491E40EA01402168C86128
:10275000A06848450FD1A06AE16A401E491E40EAC0
:102760000121206B401E41EA0011A08C401E41EA6D
:1027700000402168C860206850F8C01FE26B114318
:1027800001602046FEF76CFAA6652666012084F8F3
:102790005C00002024E70000006400400065004069
:1027A00010B598B00446142113A8FDF76BFD442121
:1027B00002A8FDF767FD1F492068884238D18014C0
:1027C000029040030E9002A800F0D4FF08B1FEF77B
:1027D00039FA1948816D41F000718165816D01F010
:1027E00000710191C16C41F00201C164C06C00F044
:1027F000020001904FF440701390022014900020CA
:10280000159016900920179013A90C4800F058F85D
:1028100000221146152000F09FF9152000F08EF9D6
:1028200000221146162000F097F9162000F086F9D4
:1028300018B010BD006400400010024000040048C1
:10284000CA0703D00A46402106F0D0BC70470A07E9
:1028500003D50A46412106F0C9BC7047704770474E
:10286000704700002DE9F041134E002730680762E1
:10287000C761818C00291DD0C468EFF31081C1624B
:1028800072B6058A10E0206958B12146306806F01A
:1028900019FD58B127613068818C491E81846169B6
:1028A000C1616D1EADB21834002DECD13068C06A24
:1028B00080F31088BDE8F081280000207047704741
:1028C0002DE9F84F0022DFF890914FF0010803271F
:1028D0004FF00F0C09F1040AA9F1040BB4E008FA57
:1028E00002F52B40002B6ED00C7904F00304012C70
:1028F00001D0022C15D18668540007FA04FE26EA9E
:102900000E06D1F80CE00EFA04FE4EEA060EC0F8F0
:1029100008E04468AC430D79C5F3001595402543A4
:1029200045600C79E443A40702D18C68012C08D0DF
:10293000C568540007FA04F6B5438E68A6402E43D6
:10294000C6600C7904F00304022C11D1D40800EB0A
:102950008406356A5407E40E0CFA04FE25EA0E05D7
:10296000D1F810E00EFA04FE4EEA050EC6F820E09B
:102970000568540007FA04F6B5430E7906F003061D
:10298000A6402E4306604C6814F4403F5BD0334CA5
:10299000256E45F001052566246E04F001040094BF
:1029A0002F4C22F003052E19B56894074FEA147EC8
:1029B0000CFA0EF4A543B0F1904F05D0294CA0427B
:1029C00004D1012417E03EE0002414E0264CA0428C
:1029D00001D102240FE0254CA04201D103240AE0DA
:1029E000234CA04201D1042405E0224CA04201D195
:1029F000052400E0062404FA0EF42C43B460D9F850
:102A000000409C434D68ED0200D51C43C9F80040CE
:102A1000DAF800409C434D68AD0200D51C43CAF86B
:102A20000040DBF800409C434D68AD0300D51C43DB
:102A3000CBF80040084D083D2C689C434E68F603D7
:102A400000D51C432C60521C0B6833FA02F47FF44F
:102A500046AFBDE8F88F00000804014000100240B6
:102A6000000001400004004800080048000C004835
:102A70000010004800140048002A01D0816170470E
:102A800081627047014880687047000004000020A0
:102A90000248816842681144816070470400002048
:102AA00010B50024032000F077F80F2000F008F89C
:102AB00008B1012401E000F029F8204610BD000013
:102AC00070B5054600240F4E7068002817D04FF4EB
:102AD0007A71B1FBF0F00C490968B1FBF0F001F03C
:102AE00039FC08B101240BE0102D06D20022294642
:102AF000501E00F031F8356002E0012400E00124AE
:102B0000204670BD040000201000002082B00A485A
:102B1000016E41F001010166016E01F001010191B8
:102B2000816D41F080518165806D00F08050019091
:102B300002B000F0F1BD000000100240002809DBE7
:102B400000F01F02012191404009800000F1E020C7
:102B5000C0F8001170470000F0B40D460D4B1B6823
:102B6000C3F30223C3F10704042C00D90424191D64
:102B7000072901D2002300E0DB1E012606FA04F13A
:102B8000491E294099409E40761E16403143F0BCB4
:102B900005F077BB0CED00E000F00701054A106876
:102BA0004FF6FF03184040EA012003490843106034
:102BB000704700000CED00E00000FA0501680122FA
:102BC000C0F8D022002280F8C82231F8540F40F01B
:102BD00001000880088840F002000880002070474B
:102BE00070B504460F4D00290DD001290AD1D4F843
:102BF000D80204F0BAFB607A002803D0286840F0BD
:102C00000600286070BD607A28B103F02EF82868AD
:102C100020F006002860D4F8D802BDE8704004F027
:102C20003BBB000010ED00E010B50C0607D501F02D
:102C3000070101EB810100EBC100103005E001EB61
:102C4000810100EBC10000F5A87099B232B10122F8
:102C500002730181190C4181002010BD0022027312
:102C6000C180F9E701EB810200EBC202D0F8D80283
:102C7000526A04F0E6B901EB810200EBC202D0F81F
:102C8000D802D2F8642104F03ABA70B504460B06B3
:102C900001F0070000EB800104EBC1014FF00102DD
:102CA0004FF0000502D510314A7002E001F5A8711D
:102CB0004D70087094F89002012808D084F8902292
:102CC000206804F07BFF84F89052002070BD022041
:102CD00070BD70B5044601F00F002279904201D911
:102CE000012070BD0B0601F0070000EB800104EB32
:102CF000C1014FF001024FF0000502D510314A70BA
:102D000002E001F5A8714D708D70087094F8900282
:102D1000012808D084F89022206805F003F884F890
:102D20009052002070BD022070BD2DE9F0470B7855
:102D30008D6904685FEA424A4FF0000C4BF68F79C8
:102D400048F2800848F68F7648F2C00730D5B4F8CC
:102D500050A0544440F2024A0AEBC30A34F80A4035
:102D6000C4F30904A54202D32D1B8D6101E0C1F813
:102D700018C08D6955B9056835F823C00CEA090CEF
:102D80008CF4005C4CEA080C25F823C0520607D5E9
:102D90000B78026832F8235035403D4322F8235027
:102DA000B4B30A8949690068234605F00CFA2FE09C
:102DB000B4F850A0544440F2064A0AEBC30A34F86F
:102DC0000A40C4F30904A54202D32D1B8D6101E022
:102DD000C1F818C08D6955B9056835F823C00CEAEB
:102DE000090C8CF4005C4CEA080C25F823C0520650
:102DF00007D40B78026832F8235035403D4322F85F
:102E000023502CB14A8949690068234605F0DBF953
:102E10002046BDE8F0872DE9F05F05460C461646D2
:102E20002178D4F818B028685FEA466E48F6BF7972
:102E300048F2800A48F68F774CF280084FF6FF720E
:102E40004FF400434FF0000C7DD5B0F850E07044D3
:102E500040F2024E0EEBC10E30F80E00C0F3090036
:102E6000834504D9ABEB000BC4F818B001E0C4F8FB
:102E700018C0D4F818B0BBF1000F0FD0760408D5F5
:102E80002E6836F821B00BEA070B4BEA080B26F840
:102E900021B094F82410012960D08DE1607810B140
:102EA000012811D018E02868B0F85020104400EB39
:102EB000C10000F202400188C1F3090101800188CC
:102EC00041F40041018007E02868B0F85020104428
:102ED00000EBC100A0F802C42868617811B1012993
:102EE00011D018E0B0F850100844217800EBC10070
:102EF00000F206400188C1F309010180018841F414
:102F00000041018007E0B0F850100844217800EB40
:102F1000C100A0F806C4E07802280BD12178286807
:102F200030F8212002EA090282F0200242EA0A0275
:102F300020F8212021782846FFF794FE70040AD556
:102F40002178286800E05EE030F821203A4042EA2B
:102F5000080220F821200020BDE8F09F61690144AB
:102F60006161E1690144E1612669216AB14203D3EB
:102F70003046091A216205E049B184F824C00846A8
:102F8000C4F820C0617829B101292CD034E084F83C
:102F900024C0F7E72968B1F850603144267801EB86
:102FA000C60101F202410E88C6F309060E8058B12F
:102FB0003E280ED84308C60700D05B1C0E8802EAE4
:102FC000832216430E8017E00A8842F400420A80EA
:102FD00012E04209C60600D1521E0E8843EA822240
:102FE00016430E8008E02968B1F850201144227879
:102FF00001EBC201A1F8020483B222896169286849
:1030000005F0FDF8D8E0B0F850E0704440F2064E0C
:103010000EEBC10E30F80E00C0F30900834504D357
:10302000ABEB000BC4F818B001E0C4F818C0D4F83A
:1030300018B0BBF1000F0FD0760408D42E6836F814
:1030400021B00BEA070B4BEA080B26F821B094F8E5
:10305000241001295DD0AFE0607810B1012811D0B3
:1030600018E02868B0F85020104400EBC10000F2CE
:1030700002400188C1F309010180018841F4004147
:10308000018007E02868B0F85020104400EBC10030
:10309000A0F802C42868617811B1012911D018E0A4
:1030A000B0F850100844217800EBC10000F206404F
:1030B0000188C1F309010180018841F400410180C8
:1030C00007E0B0F850100844217800EBC100A0F8E8
:1030D00006C4E07802280BD12078296831F8202036
:1030E00002EA090282F0200242EA0A0221F82020C4
:1030F00021782846FFF7B6FD700408D420782968A7
:1031000031F820203A4042EA080221F8202000202D
:1031100022E7616901446161E1690144E161266975
:10312000216AB14203D33046091A216205E051B148
:103130000846C4F820C084F824C0296866782EB1F7
:10314000012E2BD032E084F824C0F6E7B1F85060AD
:103150003144267801EBC60101F206410E88C6F320
:1031600009060E8058B13E280ED84308C60700D085
:103170005B1C0E8802EA832216430E8016E00A8842
:1031800042F400420A8011E04209C60600D1521EF4
:103190000E8843EA822216430E8007E0B1F85020E1
:1031A0001144227801EBC201A1F8060483B26289BE
:1031B0006169286805F023F82178286830F8212013
:1031C00002EA090282F0100282F0200242EA0A02B8
:1031D00020F821200020BFE601F0070101EB81016A
:1031E00000EBC100D0F86C0170472DE9F0410446B6
:1031F0000F0601F0070000EB800104EBC1014FF066
:1032000001064FF0000502D510314E7002E001F5C5
:10321000A8714D700870C2F30A000861CB70022BD0
:1032200000D10D7194F89002012809D084F89062C1
:10323000206804F0E7FA284684F89052BDE8F0814F
:103240000220FBE710B501F0070404EB840100EB5A
:10325000C10101F5A8714A618B610022CA614A70FF
:103260000C70006804F0BBFD002010BD70B5044672
:1032700001F007002279904201D9012070BD0B06B0
:103280004FF000054FF0010206D500EB800104EB82
:10329000C10110314A7006E001EB810104EBC1016C
:1032A00001F5A8714D708A70087094F89002012899
:1032B00008D084F89022206804F073FD84F89052BE
:1032C000002070BD022070BD10B501F0070404EBB2
:1032D000840100EBC10110314A618B61012281F848
:1032E00024200B620023CB614A700C70006804F04C
:1032F00076FD002010BD10B50446206804F060FF84
:10330000010404D52046BDE8104002F0A5BA4105ED
:103310000ED5206830F8441F21F4806101802046DA
:1033200000F026F92046BDE81040002100F04CB91D
:10333000410406D5206830F8441F21F48041018003
:1033400010BD810406D5206830F8441F21F40051D7
:10335000018010BDC10420D5206830F8401F21F045
:1033600004010180206830F8401F21F0080101802D
:1033700094F8C802012806D1002084F8C802002170
:103380002046FFF72DFC204600F006F9206830F8B3
:10339000441F21F48051018010BD010515D520681E
:1033A00030F8401F41F008010180206830F8441FC8
:1033B00021F400610180206830F8401F41F00401D1
:1033C0000180204600F030F910BD010629D52068A3
:1033D00030F8441F21F08001018094F8C80218B130
:1033E000204600F021F910BD206830F8401F41F060
:1033F00004010180206830F8401F41F0080101807D
:10340000012084F8C8022068B0F8540000F0F000F1
:103410008008C4F8CC022046BDE810400121FFF727
:10342000DFBB810509D5206830F8441F21F4007105
:103430000180204600F0C4F810BDC005FCD520680E
:1034400030F8441F21F48071018010BD70B504462E
:10345000002C04D094F89102002510B106E0012060
:1034600070BD84F89052204600F03AF8032084F8AA
:103470009102206804F04EFC002101260BE001EBD4
:10348000810004EBC00046740174C5740562456296
:103490008562491CC9B220798842F0D800210DE02C
:1034A00001EB810004EBC00000F5A87045700170CD
:1034B000C570056145618561491CC9B220798842A2
:1034C000EED894E8070004F01CFC257384F89162A0
:1034D000A07A012802D12046FFF770FB002070BDC2
:1034E00030B597B00446442106A8FCF7CBFE1E4930
:1034F0002068884236D11D4CE06C40F00100E06449
:10350000E06C00F001000090142101A8FCF7BAFE65
:103510004FF4C05001900220029000250395032033
:1035200004900A20059001A94FF09040FFF7C8F9D8
:103530004FF400500690139506A800F01BF908B14F
:10354000FDF780FBA06D40F40000A065A06D00F4C5
:1035500000000090002211461420FFF7FDFA14200D
:10356000FFF7ECFA17B030BD005C004000100240DD
:1035700070B5044601256079022801D0FDF762FB91
:103580002946D4F8D80203F0A2FED4F8D802BDE848
:10359000704003F053BE000010B50446607A002866
:1035A00006D00648016821F00601016002F05DFBCB
:1035B000D4F8D802BDE8104003F06EBE10ED00E074
:1035C000D0F8D80203F072BE10B5044694F8900209
:1035D00001280AD0012084F890022173206804F0A9
:1035E00007FE002084F8900210BD022010BDD0F824
:1035F000D82200F52671104603F075BE10B50446BA
:1036000094F8900201280CD0012084F890022068E0
:1036100004F0C7FD206804F06DFB002084F89002E0
:1036200010BD022010BD000010B50446D4F8D80229
:1036300003F09BFE607A002804D00348016841F043
:103640000601016010BD000010ED00E02F49304B75
:103650000A6832214A432F4900280AD0B0F5007F7A
:103660002DD0086820F4C06040F48060086000201D
:1036700070470868C0F34120022805D051F8800F38
:1036800020F480700860F2E7D1F8800020F48070A8
:10369000C1F88000086820F4C06040F40070086041
:1036A000B2FBF3F0401C00E0401E4A69520501D510
:1036B0000028F9D148694005D9D50320704708682A
:1036C000C0F34120022805D051F8800F40F48070EB
:1036D0000860CCE7D1F8800040F48070C1F8800029
:1036E000086820F4C06040F400700860B2FBF3F09A
:1036F000401C00E0401E4A69520501D50028F9D15E
:1037000048694005B3D50320704700001000002031
:1037100040420F00007000400248816841F480413F
:10372000816070470070004010498A6B42F48072DB
:103730008A638A6B22F480728A63D0E90012114393
:1037400082681143C2680A43018A42EA0142084979
:103750004A600A68406922F4FE4242EA002008609A
:10376000086840F0600008607047000000100240E8
:10377000002000402DE9F84F04460026002720686D
:10378000A04D000366D54FF00008A86DC00009D415
:10379000A86D40F08050A865A86D00F080500090A2
:1037A0004FF00108DFF860A2DAF8000040F4807002
:1037B000CAF80000FFF766F9814607E0FFF762F9F3
:1037C000A0EB0900022801D9032603E0DAF8000083
:1037D000C005F3D526B13746B8F1010F36D039E030
:1037E000D5F8900000F4407080B1216C81420DD07A
:1037F00055F8900F20F44070296841F48031296019
:10380000296821F48031296045F89009C00711D05A
:10381000FFF738F9814641F2883A07E0FFF732F9BD
:10382000A0EB0900504501D9032603E0D5F890002C
:103830008007F3D50EB13746CEE7D5F89000216C5E
:1038400020F440700843C5F89000C5E7A86D20F04B
:103850008050A8652078C00707D0D5F88800616837
:1038600020F003000843C5F888002078800707D5BA
:10387000D5F88800A16820F00C000843C5F888003E
:103880002078400707D5D5F88800E16820F030009F
:103890000843C5F888002078000707D5D5F88800C8
:1038A000216920F0C0000843C5F888002078800610
:1038B00007D5D5F88800616920F440600843C5F851
:1038C00088002078400607D5D5F88800A16920F443
:1038D00040500843C5F888002078000607D5D5F881
:1038E0008800E16920F440400843C5F8880020883A
:1038F000C00507D5D5F88800216A20F44030084378
:10390000C5F888002088800507D5D5F88800616A49
:1039100020F440200843C5F88800208840050FD5D2
:10392000D5F88800A16A20F440100843C5F8880043
:10393000A06AB0F5801F03D1E86840F48010E86009
:10394000208800050FD5D5F88800E16A20F44000F2
:103950000843C5F88800E06AB0F5800F03D1E86835
:1039600040F48010E8602088C0040FD5D5F88800A6
:10397000216B20F040700843C5F88800206BB0F13F
:10398000807F03D1E86840F48010E86020884FF021
:10399000006180040ED5D5F88800626B20F040608D
:1039A0001043C5F88800606B884203D1E86840F492
:1039B0008010E860208840040ED5D5F88800A26BFE
:1039C00020F040601043C5F88800A06B884203D106
:1039D000E86840F48010E860208800040FD5D5F82E
:1039E0008800E16B20F040500843C5F88800E06B88
:1039F000B0F1805F03D1E86840F48030E860384679
:103A0000BDE8F88F00100240007000402DE9F0473B
:103A100004460D460027002C17D0DFF8A091D9F8F6
:103A2000000000F00F00A84211D2D9F8000020F0E9
:103A30000F002843C9F80000D9F8000000F00F007B
:103A4000A84204D00120BDE8F0870120FBE72078E0
:103A50005B4EC00741F2883A4ED06068DFF864815F
:103A6000032806D002281ED03068400520D401204B
:103A7000E9E73068800101D40120E4E702F0B6F8FC
:103A8000404520D9B06810F0F00F04D020788007AE
:103A900019D5A068B8B9B06820F0F00040F08000F7
:103AA000B06080270FE03068800301D40120CAE7AE
:103AB00000F0BAF8404506D9B06820F0F00040F0B8
:103AC0008000B0608027B068616820F00300084380
:103AD000B060FEF7D7FF804607E0FEF7D3FFA0EB0C
:103AE0000800504501D90320ADE7B068616800F0D7
:103AF0000C00B0EB810FF0D12068810715D540078D
:103B000003D5B06840F4E060B0602078000705D5C8
:103B1000B06820F4605040F4E060B060B068A16824
:103B200020F0F0000843B06005E0802F03D1B068BA
:103B300020F0F000B060D9F8000000F00F00A842BB
:103B400017D9D9F8000020F00F002843C9F8000069
:103B5000FEF798FF074606E0FEF794FFC01B5045AE
:103B600001D903206FE7D9F8000000F00F00A84248
:103B7000F2D12078400705D5B068E16820F4E06014
:103B80000843B0602078000706D5B068216920F4AA
:103B9000605040EAC100B06000F046F8B1680A4ADF
:103BA000C1F30311515C01F01F01C84007490860CF
:103BB00007480068BDE8F047FEF782BF00200240DA
:103BC0000010024000B4C404249600081000002035
:103BD0000400002001480068704700001000002029
:103BE00000B5FFF7F7FF05498968054AC1F30221CF
:103BF000515C01F01F01C84000BD000000100240F0
:103C00003496000800B5FFF7E5FF05498968054AC5
:103C1000C1F3C221515C01F01F01C84000BD00008A
:103C2000001002403496000810B51A4A9068C0F39C
:103C30008101194801290BD091684410C1F3810119
:103C4000022906D09168C1F38101032903D0002025
:103C500010BD204610BDD16801F00303D168C1F347
:103C60000311491C032B0DD0B0FBF1F0D168C1F357
:103C700006214843D168C1F34161491C4900B0FBAA
:103C8000F1F010BDB4FBF1F0D168C1F30621484357
:103C9000F0E70000001002400024F4002DE9F84392
:103CA0000446002C0CD02078FE4DC00752D0A868E6
:103CB00000F00C00E96801F003010C2803D004E0D7
:103CC0000120BDE8F883032916D0082814D06068C5
:103CD000B0F5803F17D0B0F5A02F19D0286820F498
:103CE00080302860286820F480202860606818B33D
:103CF000FEF7C8FE06461BE0286880032AD56068E8
:103D000040BB0120DDE7286840F480302860EDE703
:103D1000286840F480202860286840F480302860BB
:103D2000E4E7FEF7AFFE801B642801D90320C8E753
:103D300028688003F5D50DE0FEF7A4FE064606E0F0
:103D4000FEF7A0FE801B642801D90320B9E728688C
:103D50008003F5D4207880074ED5A86800F00C00C9
:103D6000E96801F003010C2801D102290BD00428D5
:103D700009D0E06870B3286840F480702860FEF7CE
:103D800081FE06461BE02868400501D5E06868B161
:103D90006868217C20F0FE4040EA01606860C2480B
:103DA0000068FEF78DFE38B301208AE7012088E71E
:103DB000FEF768FE801B022801D9032081E72868EE
:103DC0004005F5D56868217C20F0FE4040EA01609E
:103DD000686011E0286820F480702860FEF752FEC9
:103DE000064606E0FEF74EFE801B022801D903209E
:103DF00067E728684005F5D4207800072CD560696E
:103E0000A8B1D5F8940040F00100C5F89400FEF781
:103E100039FE064606E0FEF735FE801B022801D972
:103E200003204EE7D5F894008007F4D514E0D5F8C8
:103E3000940020F00100C5F89400FEF723FE06462A
:103E400006E0FEF71FFE801B022801D9032038E799
:103E5000D5F894008007F4D4207840076FD54FF050
:103E60000008A86DC00009D4A86D40F08050A86576
:103E7000A86D00F0805000904FF001088B4E306824
:103E8000C00511D4306840F480703060FEF7FAFD50
:103E9000074606E0FEF7F6FDC01B022801D9032005
:103EA0000FE73068C005F5D5A068012813D00528B4
:103EB00018D055F8900F20F001002860286820F0F5
:103EC000040045F89009A06841F2883608B3FEF76F
:103ED000D9FD074618E0D5F8900040F00100C5F87C
:103EE0009000F0E755F8900F40F004002860286833
:103EF00040F0010045F89009E5E7FEF7C3FDC01B5F
:103F0000B04201D90320DCE6D5F890008007F4D553
:103F10000EE0FEF7B7FD074606E0FEF7B3FDC01B57
:103F2000B04201D90320CCE6D5F890008007F4D444
:103F3000B8F1010F03D1A86D20F08050A86520785A
:103F400080062CD5A069A8B1D5F8980040F00100F2
:103F5000C5F89800FEF796FD064606E0FEF792FDCE
:103F6000801B022801D90320ABE6D5F89800800712
:103F7000F4D514E0D5F8980020F00100C5F89800B9
:103F8000FEF780FD064606E0FEF77CFD801B02285A
:103F900001D9032095E6D5F898008007F4D4E069AC
:103FA000F0B3A9684FF0FF37C1F3810103295ED058
:103FB000022807D0286820F080702860FEF762FD94
:103FC00004464CE0286820F080702860FEF75AFD17
:103FD000064606E0FEF756FD801B022801D90320A5
:103FE0006FE628688001F5D454F8201F6068228AA3
:103FF000401E41EA0010A16807EB5202090241EAA3
:1040000042510843217D07EB510140EA4160217B89
:1040100040EAC160E968264A11400843E86000E0D0
:1040200062E0286840F080702860E86840F08070A6
:10403000E860FEF727FD044606E0FEF723FD001BBF
:10404000022801D903203CE628688001F5D54BE021
:10405000FEF718FD001B022801D9032031E628686D
:104060008001F5D4E86813490840E8603CE0012885
:1040700038D0E868226A00F00301914230D1616AC9
:1040800000F0F002491EB2EB011F29D1A26A00F430
:10409000FE41B1EB022F23D100F0784194F82C209F
:1040A0000AE0000000100240040000200070004000
:1040B0000C809F01FCFFEEFEB1EBC26F10D1228E8F
:1040C00000F4C00107EB5202B1EB425F08D194F853
:1040D000341000F0C06007EB5101B0EB416F03D02A
:1040E0000120EEE50120ECE50020EAE57047000044
:1040F00038B50446206842688168C9434B060AD532
:10410000CB0708D1D3435B0605D4E16C01B0204650
:10411000BDE8304008478B0708D4D3431B0605D4BD
:10412000216D01B02046BDE8304008478B0603D51D
:104130004B0601D5CB0551D4D3439B064ED44B0639
:104140000AD494F85D30032B49D0236E43F0040366
:104150002366C368836800938B0609D4236E43F0FB
:104160000103236683680093036823F04003036020
:10417000C80506D4206E40F00800206620688068DC
:104180000090206E002829D02068416821F0E001CD
:104190004160012084F85D00900701D4D00722D04F
:1041A0002068416821F003014160114DA06D40B1CC
:1041B0008563A06DFDF726FF18B1206E40F040002A
:1041C0002066606D002809D08563606DFDF71AFFD9
:1041D000002803D0206E40F04000206638BDC16842
:1041E0008068009038BD2046FFF780FF38BD000092
:1041F000495C000870B50446002C09D0606A0025AF
:1042000040B125616561A56294F85D0040B10CE0A4
:10421000012070BD6068B0F5827FF4D0E561F2E7FF
:1042200084F85C50204600F05BF8022084F85D00C2
:104230002068016821F040010160E1684FF4E0620C
:10424000914201D9002001E04FF48050B1F5706F28
:1042500002D0914200D0A562A188228901F4827126
:1042600002F404421143227C02F002021143227D37
:1042700002F001021143228B02F400721143227FEB
:1042800002F03802114394F8202002F0800211431A
:10429000228D02F40052114322681160A1690422A8
:1042A00002EA114194F8242000F4805002F0100238
:1042B000114394F8342002F008021143A28902F459
:1042C000706211430143206841602068C16921F494
:1042D0000061C1612566012084F85D00002070BD89
:1042E00010B586B00446142101A8FBF7CBFF17498F
:1042F0002068884227D11648016E41F4805101663A
:10430000016E01F480510091C16C41F00101C16462
:10431000C06C00F00100009048F2E0000190022023
:1043200002900020039004900520059001A94FF011
:104330009040FEF7C5FA002211462320FEF70CFC40
:104340002320FEF7FBFB06B010BD0000003001404B
:104350000010024010B5401EB0F1807F01D3012053
:1043600010BD4FF0E02460610F21601703F089FF5A
:104370000020A06107202061002010BD7047704719
:104380007047000030B590F83C20012A42D001224D
:1043900080F83C20CA6800248B6822F440721A43DB
:1043A0004B6822F480621A430B6822F400621A43BD
:1043B0000B6922F480521A434B6922F400521A43CB
:1043C0000B6B22F480421A430B8B22F4702242EAD8
:1043D0000342CB6922F080521A430F4D0368AB426F
:1043E00002D00E4DAB4210D10D8D22F4700242EA84
:1043F00005520D6A22F080722A434D6A22F0007243
:104400002A43C96A22F000520A435A6480F83C40A9
:10441000002030BD022030BD002C0140003401409E
:104420007047704770470000F0B590F83C20012AB3
:1044300034D0012680F83C60022280F83D200368D9
:104440005A689C68164FDFF85CC0BB4201D06345D8
:1044500003D122F470054A682A43134D2A400D689F
:1044600015435D600268BA420DD0B2F1804F0AD0A8
:104470000E4B9A4207D00E4B9A4204D0624502D0AE
:104480000C4B9A4204D124F080038968194391604F
:104490003C304670002101700020F0BD0220F0BDCC
:1044A000002C0140003401408FFFFFFD000400405C
:1044B0000008004000400140704710B50446002C41
:1044C00003D094F83D0010B107E0012010BD00209A
:1044D00084F83C00204600F017F8022084F83D00E4
:1044E000211D206801F026FC01203D34E07260703F
:1044F000A070E07020716071A071E0712072607234
:10450000A0722070002010BD08B500680B498842D9
:1045100012D10B48816D41F010018165806D00F072
:1045200010000090002211463620FEF715FBBDE872
:1045300008403620FEF702BB08BD00000010004016
:104540000010024090F83D10012901D00120704771
:10455000022180F83D100068124988420ED0B0F167
:10456000804F0BD01049884208D01049884205D0AE
:104570000F49884202D00F4988420CD181680E4A07
:10458000114006290BD0B1F5803F08D0016841F0F9
:104590000101016003E0016841F0010101600020B8
:1045A00070470000002C014000040040000800405B
:1045B00000340140004001400700010070472DE930
:1045C000F04104462068C66805694FF00007A90756
:1045D00014D5B10712D5F91E01610120207720689A
:1045E0008069800703D02046FFF7E8FF05E02046FA
:1045F00000F0E4F8204600F0B9F92777680717D5EE
:10460000700715D521686FF004000861022020773B
:104610002068806910F4407F03D02046FFF7CEFF6A
:1046200005E0204600F0CAF8204600F09FF9277701
:10463000280716D5300714D521686FF008000861E7
:10464000042020772068C069800703D02046FFF748
:10465000B5FF05E0204600F0B1F8204600F086F9ED
:104660002777E80617D5F00615D521686FF01000FA
:104670000861082020772068C06910F4407F03D0CB
:104680002046FFF79BFF05E0204600F097F8204604
:1046900000F06CF92777E80708D0F00706D021680A
:1046A0006FF001000861204600F042FA280601D4AC
:1046B000A80408D5300606D521686FF402500861B9
:1046C0002046FFF75CFEE80508D5300606D52168D0
:1046D0006FF4807008612046FFF750FE680608D529
:1046E000700606D521686FF040000861204600F092
:1046F00020FAA80608D5B00606D521686FF020007C
:1047000008612046FFF73CFEE80208D5F00206D516
:1047100021686FF4801008612046FFF782FEA8022E
:1047200008D5B00206D521686FF400100861204654
:10473000FFF776FE680208D5700206D521686FF48F
:10474000800008612046FFF76DFE28020AD530027E
:1047500008D521686FF4000008612046BDE8F041EB
:10476000FFF7AABEBDE8F08110B586B0044614215B
:1047700001A8FBF787FD0F492068884217D10E4832
:10478000C16C41F00101C164C06C00F001000090F7
:104790004FF4E0600190022002900020039004900A
:1047A0000620059001A94FF09040FEF789F806B069
:1047B00010BD0000002C014000100240704770B591
:1047C00004460D46002694F83C0001280BD0012039
:1047D00084F83C000C2A4FD007DC82B1042A22D096
:1047E000082A06D134E0022070BD102A59D0142ABC
:1047F0006BD00126002084F83C00304670BD29466D
:10480000206801F001FB2068816941F008018161A5
:104810002068816921F004018161206881692A6929
:1048200011438161E6E72946206801F03FFB2068DB
:10483000816941F4006181612068816921F48061AE
:104840008161206881692A6941EA02218161D1E799
:104850002946206801F076FB2068C16941F0080113
:10486000C1612068C16921F00401C1612068C1698A
:104870002A691143C161BDE72946206801F0AEFBFA
:104880002068C16941F40061C1612068C16921F4F7
:104890008061C1612068C1692A6941EA0221C16160
:1048A000A8E72946206801F0E5FB2068016D41F08A
:1048B000080101652068016D21F00401016520688F
:1048C000016D2A691143016594E72946206801F0CA
:1048D00009FC2068016D41F4006101652068016DEB
:1048E00021F4806101652068016D2A6941EA022195
:1048F00001657FE710B50446002C03D094F83D0015
:1049000010B107E0012010BD002084F83C002046D3
:1049100000F018F8022084F83D00211D206801F005
:1049200009FA01203D34E0726070A070E0702071DF
:104930006071A071E07120726072A072207000201E
:1049400010BD000008B500680649884208D1064835
:10495000016E41F400610166006E00F40060009099
:1049600008BD0000002C014000100240704700000C
:1049700030B5044600290DD004290ED008290FD0E7
:104980000C2910D0102911D094F84300012810D020
:10499000012030BD94F83E00F8E794F83F00F5E7B9
:1049A00094F84000F2E794F84100EFE794F84200F1
:1049B000ECE70220F1B3042940D0082941D00C29AA
:1049C00042D0102943D084F843000122206801F02E
:1049D0000DFA23492068234A234B884209D090428C
:1049E00007D0984205D0214DA84202D0204DA842C0
:1049F00003D1456C45F400454564206888420CD0DD
:104A0000B0F1804F09D01B49884206D01A4988422C
:104A100003D0904201D098421CD18168174A1140BE
:104A200006291BD0B1F5803F18D0016841F0010183
:104A3000016013E0FFE784F83E00C6E784F83F001A
:104A4000C3E784F84000C0E784F84100BDE784F87C
:104A50004200BAE7016841F001010160002030BD69
:104A6000002C01400034014000400140004401405E
:104A70000048014000040040000800400700010019
:104A800030B504460D4600222946206801F0AEF9F3
:104A9000224A21492068931188420BD0204988423C
:104AA00008D02049884205D01F49884202D01F49BA
:104AB000884209D1016A114206D1016A194203D123
:104AC000416C21F4004141642068016A114206D121
:104AD000016A194203D1016821F00101016001203E
:104AE0005DB1042D0CD0082D0DD00C2D0ED0102D45
:104AF0000FD084F84300002030BD84F83E00FAE770
:104B000084F83F00F7E784F84000F4E784F84100B8
:104B1000F1E784F84200EEE7002C0140111111008A
:104B20000034014000400140004401400048014081
:104B30007047704790F88410012918D0012180F83F
:104B400084102421C0F8881001680A680B6823F0DB
:104B500001030B6022F000510022426603681960D5
:104B60002021C0F8881080F884200020704702209F
:104B700070477047704770B5044694F88400012868
:104B80001DD0012084F884002420C4F88800206807
:104B90000568026822F0010202602068826822F043
:104BA00060620A438260204601F0D4FA2068056002
:104BB0002020C4F88800002084F8840070BD022002
:104BC00070BD70B5044694F8840001281DD0012002
:104BD00084F884002420C4F88800206805680268EE
:104BE00022F0010202602068826822F060420A43DB
:104BF0008260204601F0AEFA206805602020C4F8EB
:104C00008800002084F8840070BD022070BD7047C9
:104C1000704770472DE9F04104462368D869196848
:104C20009A6840F60F0500EA0507002F0ED18506A9
:104C30000CD501F0200502F08056354306D0616F97
:104C400000297DD02046BDE8F04108470026022516
:104C5000002F76D0B54FDFF8D8C2174001EA0C0C10
:104C600057EA0C0C6DD05FEAC07C0CD05FEAC15CE7
:104C700009D54FF0010CC3F820C0D4F8903043F0B0
:104C80000103C4F89030830709D5D30707D0236800
:104C90001D62D4F8903043F00403C4F89030430709
:104CA0000AD5D30708D0256804232B62D4F89030A6
:104CB00043F00203C4F8903003070CD501F0200341
:104CC0003B4308D0256808232B62D4F8903043F08A
:104CD0000803C4F8903003050BD54B0109D52568AE
:104CE0004FF400632B62D4F8903043F02003C4F8F3
:104CF0009030D4F89030002B3CD0800609D501F0DC
:104D0000200002F08051084303D0616F09B12046B2
:104D10008847D4F8900021688968490602D410F0C9
:104D2000280F2DD0204601F03FFB20688068400608
:104D300022D52068083050E8001F21F0400101E032
:104D400018E023E040E80012002AF2D1D4F88000F5
:104D500068B178498163D4F88000FDF753F90028E1
:104D600008D0D4F88000816BBDE8F04108472046A8
:104D7000FFF74FFFBDE8F0812046FFF74AFFF9E754
:104D80002046FFF746FFC4F89060F3E7E76E012F77
:104D90007DD1C7067BD5CF0679D510201862206853
:104DA00080684FF02003400655D5D4F880100A687B
:104DB000506880B2F0B3B4F85C7087423FD9A4F871
:104DC0005E000868006880062CD4206850E8001F48
:104DD00021F4807140E80012002AF6D120680830E2
:104DE00050E8001F21F0010140E80012002AF5D12F
:104DF0002068083050E8001F21F0400140E8001210
:104E0000002AF5D1C4F88C30E666206850E8001F0F
:104E100021F0100140E80012002AF6D1D4F88000F9
:104E2000FDF7B8F82567B4F85C00B4F85E10401AD6
:104E300081B200E003E02046FFF79BFE9AE7B4F85A
:104E40005C10814296D11068800693D52567204674
:104E5000FFF78FFE8EE734F85C0F6188401A81B24D
:104E600060885C3C002885D0002983D0206850E809
:104E7000002F22F4907240E80027002FF6D12B4F2C
:104E8000FF432068083050E8002F3A4000E016E069
:104E900040E8002CBCF1000FF3D1C4F88C30E6667A
:104EA0006667206850E8002F22F0100240E80023D7
:104EB000002BF6D125672046FFF75BFE5AE7C502B7
:104EC00009D5550207D54FF4801018622046BDE879
:104ED000F041FFF79DBE03060CD501F0800302F4FC
:104EE0000002134306D0A16F0029A7D02046BDE8D9
:104EF000F0410847420606D54A0604D52046BDE8DB
:104F0000F04101F07BBA020206D54A0004D52046E2
:104F1000BDE8F041FFF77BBEC0018FD500298DDAD7
:104F20002046BDE8F041FFF725BE0000010000105B
:104F3000200100040F63000810B50446002C03D0C4
:104F4000D4F8880010B107E0012010BD002084F8DB
:104F50008400204600F028F82420C4F88800206847
:104F6000016821F001010160A06A10B1204601F042
:104F700015F9204601F06CFA012813D02068416829
:104F800021F4904141602068816821F02A0181600C
:104F90002068016841F0010101602046BDE8104031
:104FA00001F060B9012010BD2DE9F04798B004462A
:104FB000142113A8FBF766F9442102A8FBF762F954
:104FC00048492068484DDFF82491182700264FF003
:104FD00007084FF0020A88425BD101200290039635
:104FE00002A8FEF7C7FB08B1FBF72CFE286E40F4C1
:104FF00080402866286E00F480400190E86C40F004
:105000000200E864E86C00F002000190C0201390F8
:10501000CDF850A015961696CDF85C8013A9484699
:10502000FDF74EFC334D324828606F60AE60EE6095
:1050300080272F616E61AE61EE612E622846FDF71A
:1050400083F808B1FBF7FEFDC4F88050AC62284835
:10505000284D143060352860192068601020A86041
:10506000EE602F616E61AE61EE612E622846FDF743
:105070006BF808B1FBF7E6FDE567AC62002211466C
:105080002520FDF769FD2520FDF758FD18B0BDE886
:10509000F08719498842F9D1CDF808A0049602A8F2
:1050A000FEF768FB08B1FBF7CDFDA86D40F40030BA
:1050B000A865A86D00F400300190E86C40F0020093
:1050C000E864E86C00F0020001901397CDF850A05E
:1050D00015961696CDF85C8013A94846FDF7F0FBAF
:1050E000D4E70000003801400010024000040048EE
:1050F00008000240880500200044004070B50446C6
:10510000D4F88800202801D0022070BD31B32AB322
:1051100044F8501FA280E280002121642120A06376
:10512000E06A503CE0B1164BC362E36F1548186368
:10513000E36F15485863E06F816320681346283099
:10514000E56F02462846216DFDF760F840B110205A
:105150008834A06020202060012070BD012070BD37
:105160002168402008622068083050E8001F41F0A4
:10517000800140E80012002AF5D1002070BD000037
:105180005D6300089F6300081963000802498842B4
:1051900001D104F06FB97047600400207047FEE74A
:1051A000F0B500230A2530263727002412E0B5EB9E
:1051B000107F04D906EB107C01F813C003E007EB65
:1051C000107C01F813C0000101EB430C8CF8014086
:1051D0005B1CDBB29342EAD3F0BD00EB8100006EB2
:1051E00000F0F84070478068C0F3C00070478068E6
:1051F000C0F3C00070478068C0F30000704780684B
:10520000C0F3000070478068C0F38000704780687A
:10521000C0F380007047C06810F4406F01D00020D8
:1052200070470120704710B501F0007300EBD350B8
:105230004369C1F3045107248C40A3438A401343BC
:10524000436110BD00EB8100016E21F0004111436C
:1052500001667047F0B53D4A106840F040001060AC
:1052600000204FF09044616921F01001616100BF9E
:1052700000BF00BF00BF00BF00BF00BF00BF00BF36
:1052800000BF4FF6FE7544F6206305E0984201D951
:105290002846F0BD401C80B291688907F6D50021F0
:1052A0004FF40340D0604FF6FF7003E09942F0D80E
:1052B000491C89B29668F607F8D0666946F0100670
:1052C0006661D66800EA861600BF00BF00BF00BF57
:1052D00000BF00BF00BF00BF00BF00BF676927F06D
:1052E0001007676100BF00BF00BF00BF00BF00BF65
:1052F00000BF00BF00BF00BF05E0994201D92846AA
:10530000F0BD491C89B29768BF07F6D500214FF45C
:105310000445D56003E09942F2D8491C89B29568EA
:10532000ED07F8D0606940F01000606100BF00BF79
:1053300000BF00BF00BF00BF00BF00BF00BF00BF75
:10534000D06846EA900080B2F0BD00000030014015
:1053500070B592B000240F94109411943C216846CB
:10536000FAF790FF24484FF0A04101604FF440311C
:1053700041608460C46004614461042686610477EE
:1053800044770125056280F8244080F83840C463E2
:1053900080F84040FCF776FC08B1FBF753FC052091
:1053A0000F90109411940FA91348FCF7B3FA08B1A9
:1053B000FBF748FC114800900920019002947F20DF
:1053C00003900496059408958DF824408DF82540A7
:1053D0008DF8264080200A900B908DF830500D9467
:1053E00020200E9069460448FBF7D4FE002801D027
:1053F000FBF728FC12B070BD280200200200300428
:1054000070B590B03C2101A8FAF73CFF1E481D4939
:1054100001604FF44031416000248460C460046145
:10542000446104268661047744770125056280F88B
:10543000244080F83840C46380F84040FCF722FCE8
:1054400008B1FBF7FFFB114801900920029003947B
:105450007F2004900596069409958DF828408DF8D4
:1054600029408DF82A408DF834500E9420200F905A
:1054700001A90548FBF78EFE002801D0FBF7E2FBEF
:1054800010B070BD000100509402002004006008BC
:1054900008B51148816C41F004018164816C01F010
:1054A00004010091816C41F001018164806C00F085
:1054B00001000090002211460B20FDF74DFB0B2050
:1054C000FDF73CFB002211460C20FDF745FBBDE833
:1054D00008400C20FDF732BB0010024010B5124806
:1054E00010490160002141608160C16001220274A5
:1054F000417481741123436182611023C3610323CA
:10550000036242628262C262026341638163C16379
:10551000FDF758F8002803D0BDE81040FBF792BB18
:1055200010BD000000640040000300202DE9F041A0
:1055300086B0142101A8FAF7A5FE1F48C16C41F0FE
:105540002001C164C16C01F020010091C16C41F0E7
:105550000101C164C16C01F001010091C16C41F015
:105560000201C164C06C00F0020000904FF090484E
:10557000012210214046FDF77FFA104F4FF40065DD
:10558000002229463846FDF777FA102001900124C1
:10559000029403940326049601A94046FDF790F96E
:1055A0000195029400200390049601A93846FDF766
:1055B00087F906B0BDE8F081001002400004004801
:1055C00010B51248104901604FF48271416000210A
:1055D00081604FF47062C260022202610122426166
:1055E000920482611822C2610162416281620722D3
:1055F000C26201634163FEF7FDFD002803D0BDE8F0
:105600001040FBF71FBB10BD0030014064030020B9
:1056100010B598B000241594169417941C210EA868
:10562000FAF730FE342101A8FAF72CFE2D482C4958
:10563000016010214160846040F2F311C160046197
:10564000446180218161FFF755F908B1FBF7FAFA4F
:10565000202015901694179415A92248FEF7E4FE11
:1056600008B1FBF7EFFA60200E90FA200F9010942B
:10567000119412941394149400220EA91948FFF760
:105680009EF808B1FBF7DEFA04220EA91548FFF7D1
:1056900096F808B1FBF7D6FA08220EA91148FFF7D1
:1056A0008EF808B1FBF7CEFA0194029403940494A7
:1056B00005944FF400500690079408940994000351
:1056C0000A900B940C940D9401A90648FEF75AFE1B
:1056D00008B1FBF7B7FA0348FFF746F818B010BD5A
:1056E000002C0140C80300203EB500240094019422
:1056F00002940E480C490160A9214160846040F287
:10570000E731C16080218161FEF7D7FE08B1FBF768
:1057100099FA0094029469460448FEF785FE002831
:1057200001D0FBF78FFA3EBD0010004014040020AA
:1057300010B51848164901604FF4E131416000216D
:105740008160C16001610C2242618161C1610162BD
:1057500041628162FFF7F0FB08B1FBF773FA0021A9
:105760000C48FFF72EFA08B1FBF76CFA0021094844
:10577000FFF701FA08B1FBF765FA0648FFF7DAF917
:10578000002803D0BDE81040FBF75CBA10BD000054
:10579000003801406004002010B518481649016027
:1057A0004FF4E131416000218160C16001610C2250
:1057B00042618161C161016241628162FFF7BCFBAC
:1057C00008B1FBF73FFA00210C48FFF7FAF908B1DE
:1057D000FBF738FA00210948FFF7CDF908B1FBF7CC
:1057E00031FA0648FFF7A6F9002803D0BDE81040BB
:1057F000FBF728BA10BD000000440040F40400206C
:1058000010B500220F49104801F0F5FB08B1FBF775
:1058100019FA0E490C4801F0D2FD08B1FBF712FA53
:105820000B49094801F057F908B1FBF70BFA064894
:1058300001F084FE002803D0BDE81040FBF702BA57
:1058400010BD0000A80000203C1D0020EC0100203D
:10585000FC000020FEE7FEE72DE9F05F044640F67D
:105860008F7940F206484FF0000AB6E1B0F84410D4
:1058700001F00F06082E02D30120BDE8F09FE6B329
:1058800030F8267039047DD530F8261001EA090178
:1058900041F0800120F8261006EB860004EBC005DD
:1058A00005F5A875287B00286DD0E87802286BD014
:1058B0002978206830F8212048F68F731A4048F282
:1058C000C0031A4320F821202978206830F82120CD
:1058D000520473D5B0F85020131840F2024202EB84
:1058E000C101595AC1F3090BBBF1000F04D02A8939
:1058F0005B46696902F067FCD0E0FFE7C9062BD47C
:10590000018848F60F72114041F40041018004F112
:1059100010052068B0F850102A78014440F2024087
:1059200000EBC200085AC0F30900E8616969084445
:10593000686100212046FDF795F9207B002894D06E
:10594000A869002891D1207B216840F08000A1F84F
:105950004C0084F80CA040E104F5A87501880A0504
:105960003FD5B0F850100844297808EBC101405ADF
:10597000C0F30900E861082821D0206801884BF6AF
:105980008F7202E09EE05FE071E0114081F480518F
:1059900048F28002114301802068018848F6BF73F5
:1059A000194081F01001114301802068018801EA4B
:1059B000090141F08001018000205EE75EE00823DC
:1059C000EA8804F52671206802F0FDFB2068018852
:1059D00001EA090141F0800101802046FDF707FE40
:1059E000FBE00904B7D5018801EA090141F0800113
:1059F00001802068B0F850100844297808EBC101F4
:105A0000405AC0F30900E86180B169690029A2D059
:105A100083B2EA88206802F0D6FBE9696869084425
:105A2000686100212046FDF726F9D6E0206801884C
:105A30004BF68F72114081F4805181F4005148F28D
:105A4000800211430180C8E02068B0F850102A7825
:105A5000014408EBC202895AC1F3090BBBF1000FE4
:105A60001CD0EA885B46696902F0ADFB16E03A4655
:105A700029462046FDF759F983460FE0B0F850203B
:105A800008EBC1010244515AC1F3090BBBF1000FED
:105A900004D06A895B46696902F095FBE86958445D
:105AA000E861A86910B12869584504D929782046C9
:105AB000FDF7E1F806E06869584468612946206806
:105AC00002F08DF938066FD506EB860004EBC001B5
:105AD0001031206830F8262048F60F731A4042F43F
